:10000000F0FF0320C1050000630A0000650A00003C
:10001000690A00006B0A00006D0A00000000000081
:10002000000000000000000000000000610A000065
:10003000670A000000000000610A0000610A000079
:10004000610A0000610A0000610A0000610A000004
:10005000610A0000610A0000610A0000610A0000F4
:10006000610A0000610A0000610A00009D090000A9
:10007000610A0000610A0000610A0000610A0000D4
:10008000610A0000610A0000610A0000610A0000C4
:10009000610A0000610A0000610A0000610A0000B4
:1000A000610A0000610A0000610A0000610A0000A4
:1000B000610A0000610A0000610A0000610A000094
:1000C000610A0000610A0000610A0000610A000084
:1000D000610A0000610A0000610A0000610A000074
:1000E000610A0000610A000000000000000000003A
:1000F00000000000610A0000610A0000610A0000BF
:10010000610A0000610A0000610A0000610A000043
:10011000610A0000610A0000610A0000610A000033
:10012000610A0000610A0000610A0000610A000023
:10013000610A0000610A0000610A0000610A000013
:10014000610A0000610A0000610A0000610A000003
:10015000610A0000610A00000000000000000000C9
:10016000000000000000000000000000000000008F
:10017000000000000000000081020000610A000091
:10018000610A0000610A0000610A0000610A0000C3
:1001900000000000610A0000610A0000610A00001E
:1001A000610A0000610A0000610A0000610A0000A3
:1001B000610A0000610A0000610A0000610A000093
:1001C000610A0000610A0000610A0000610A000083
:1001D000610A0000610A0000610A0000610A000073
:1001E000610A0000610A0000610A0000610A000063
:1001F000610A0000610A0000610A0000610A000053
:10020000610A00000000000000000000610A000018
:10021000610A0000610A0000610A0000610A000032
:10022000610A0000610A0000610A0000610A000022
:10023000610A0000610A0000610A0000610A000012
:10024000610A0000610A0000610A0000610A000002
:10025000610A0000610A0000610A0000610A0000F2
:10026000F8B500BFF8BC08BC9E4670470D090000F9
:10027000F8B500BFF8BC08BC9E467047E90800000E
:100280002DE9F04784B04FF084431C6D14F0007FDB
:100290001CBF4FF000721A6514F0010F63D04FF0CD
:1002A000844301221A655A6D22F001025A65D3F87F
:1002B000A43013F07F0F56D04FF08443D3F8A450EE
:1002C000C5F305252B01854AD268D718D15811F0FE
:1002D000804FD15805EB8500814E56F8200014BFA1
:1002E00021F06041C1F38A410160D2587B6813F468
:1002F000001F03D112F0005F40F0E68005EB85039C
:10030000774A02EB83031B6900221A707E68754BE3
:100310000FCB0DF1100C0CE90F00C6F30346664439
:1003200016F810AC6E4E4FEA850808EB050906EB8F
:100330008909524607F10801D9F8040000F054FB7E
:10034000D9F8083083F800A0D9F80C300BB17A68DE
:100350001A804FF08443C3F8A850634B1B6813B155
:10036000614A5068984714F0100F67D04FF08443EB
:1003700010221A655A6D22F010025A65D3F8B43073
:1003800013F07F0F5AD04FF08443D3F8B450C5F325
:1003900005252B01514A1269D718D15811F0804F09
:1003A000D05805F1010101EB81014D4E56F8216055
:1003B00014BF20F06040C0F38A403060D2587B68A0
:1003C00013F4001F02D112F0005F74D105EB850316
:1003D000434A02EB83035B6A00221A707E68414B3A
:1003E0000FCB0DF1100C0CE90F00C6F30346664469
:1003F00016F8108C3A4E6B1C03EB830306EB830359
:10040000424607F10801586800F0EEFAAB005A19AD
:1004100006EB8202D26982F800802B4406EB830649
:10042000336A0BB17A681A804FF08443C3F8B8502E
:100430002D4B9B6813B12C4AD068984714F4007F69
:1004400020D04FF084434FF400721A655A6D22F4A5
:1004500000725A65D3F8D820D3F8E03013F0010FBA
:100460000AD012F0010F07D04FF08442D2F8E030EA
:1004700023F00103C2F8E0301B4B9B6913B11A4A09
:10048000D069984714F4006F12D04FF084424FF4B3
:1004900000631365D2F8C430C3F30423D2F8C42038
:1004A000C2F30442934203D20133DBB29A42FBD13E
:1004B00004B0BDE8F08705EB8503094A02EB83032E
:1004C0005B6A01221A7089E705EB8503044A02EB97
:1004D00083031B6901221A7018E700BF1000002077
:1004E00038000020300A0000600000202C4B002261
:1004F0001A7403F500632B4ADA621A46536813F044
:10050000200FFBD1284B01225A711A46D37813F0E1
:10051000010FFBD0254B264A1A621A46536813F086
:10052000040FFBD1214B234A5A621A46536813F039
:10053000080FFBD11D4B204A9A621A46536813F0EC
:10054000100FFBD1194B1B4A1A631A46536813F05C
:10055000400FFBD1154B4322C3F8A4201A46D2F812
:10056000A43013F0400FFAD0104B4422C3F8EC2013
:100570001A46D2F8EC3013F0400FFAD00B4B44225D
:10058000C3F8F0201A46D2F8F03013F0400FFAD03A
:10059000054B0A4A1A6144F2FF725A61704700BF64
:1005A000001400400401200000080040001C00402E
:1005B000060101000601020006013000FFFFFB00FA
:1005C00008B51B4B98471B4B9847EFF3108172B649
:1005D000194AD2F8883043F47003C2F88830BFF368
:1005E0004F8FBFF36F8F01B962B6144C2023636045
:1005F00000F072F8124B23F07F030F4A9360114B07
:100600009847A36823F00103A3602346DA6812F039
:10061000010FFBD1094B5A6842F004025A600122D3
:100620009A60094B9847094B984700F0EBF9FEE7B1
:100630006F0A00006F0A000000ED00E0006000415A
:10064000000000005D0800006F0A00006F0A000053
:1006500038B54FF0844301229A611A46936913F02A
:10066000010FFBD04FF084439A6942F002029A6175
:10067000164ADA612B22C3F8802001221A629A6995
:1006800022F4804222F0010242F480429A611A462A
:10069000936913F0010FFBD14FF0844300249C6554
:1006A0000122DA654FF000725A65094D2C606C60CA
:1006B000AC6028222146074800F0CAF9EC602C61A2
:1006C0006C61AC61EC612C626C6238BD00050200AB
:1006D00010000020380000201E4B1F4A9342F0B447
:1006E00038BF002103D203F8011B9342FBD11B4A00
:1006F000D2E9000150EA01034FF0000610D09468DF
:10070000034602F10C076CB921B1014403F8016BF7
:100710009942FBD13A46D2E9000150EA0103EED1F9
:10072000F0BC704759B101F10C030C38801A1A441F
:100730003B461C1813F8015B25709342F9D111F068
:10074000030318BF012303EB910107EB81073A462E
:10075000E1E700BF10000020100000200C0800009E
:100760004FF4005318684FF000531B78012B12D040
:10077000013018BF01204FF0005311221A7082225D
:100780005A7013229A708422DA7000221A710122A0
:100790005A719A7170474FF000535B78022BE7D182
:1007A0004FF000539B78032BE2D14FF00053DB78DE
:1007B000042BDDD10020DEE7134B05221A60022254
:1007C00083F84020012183F84210402283F843201F
:1007D00083F84B2083F84E2083F8532083F856107B
:1007E00083F8571083F83110882083F83B004FF0CE
:1007F0000040C3F8800083F8C42083F8D72083F832
:10080000DF1083F8BF207047008000418000002087
:100810001C0000000000000060000020200000001C
:100820000000000010000020280000000000000070
:100830003800002028000000000000009C0000207C
:100840000C00000000000000A800002004000000D0
:1008500000000000000000000000000070B50D4D19
:100860000D4C641BA4100026A64209D10B4D0C4C64
:10087000FFF7F6FC641BA4100026A64205D170BD4C
:1008800055F8043B98470136EEE755F8043B984786
:100890000136F2E76C0200006C0200006C020000FE
:1008A000700200000F4B01221A801A46136913F0E0
:1008B000010FFBD10B4B4FF401421A8000221A6248
:1008C0001A46136913F0200FFBD1064B00225A621F
:1008D0001A46136913F0400FFBD1024B83225A8151
:1008E000704700BF0024004010B5054C237833B991
:1008F000044B13B10448AFF300800123237010BDF3
:1009000080000020000000000000000008B5034B3C
:100910001BB103490348AFF3008008BD000000008D
:1009200084000020000000000D4AD36823F4E06337
:100930001B041B0C43F0BF6343F40033D360BFF3CD
:100940005F8F62B6074BE02283F80B234FF4006100
:10095000196083F84E234FF480429A60704700BFBD
:1009600000ED00E000E100E00B4B01221A601A46A6
:10097000136913F0010FFBD1074B4FF4C2621A60E9
:1009800001221A7302229A8333229A721A46136939
:10099000002BFCD1704700BF0038004008B5074A63
:1009A000908980B2064B58604CF2FF3191811B68F0
:1009B00013B1034A9168984708BD00BF0024004066
:1009C0009C00002008B500F03BF8FFF7F5FEFFF7AC
:1009D0008DFD00F02CF8FFF73BFEFFF763FFFFF7FC
:1009E000C3FFFFF7A1FF08BD0A44914200F1FF33A6
:1009F00000D1704710B511F8014B03F8014F914237
:100A0000F9D110BD08B50020FFF7DCFFFFF7A8FE05
:100A100000B9FEE700F001F8FBE74FF400531B6854
:100A200083F3088842F204031B6818477047704735
:100A30000001020304050607080C101418203040BA
:100A4000024B4FF482721A80704700BF0040004191
:100A500002440346934200D1704703F8011BF9E7B3
:100A6000FEE7FEE7FEE7FEE7FEE7FEE7FEE770478C
:10200000F8FF0320453C0000A34500008347000083
:102010003D4900003F490000414900000000000028
:102020000000000000000000000000003B43000032
:10203000AB480000000000003B4300003B430000B1
:102040003B4300003B4300003B4300003B43000098
:102050003B4300003B4300003B4300003B43000088
:102060003B4300003B4300003B430000FD450000B4
:102070003B4300003B4300003B4300003B43000068
:102080003B4300003B4300003B4300003B43000058
:102090003B4300003B4300003B4300003B43000048
:1020A0003B4300003B4300003B4300003B43000038
:1020B0003B4300003B4300003B4300003B43000028
:1020C0003B4300003B4300003B4300003B43000018
:1020D0003B4300003B4300003B4300003B43000008
:1020E0003B4300003B4300000000000000000000F4
:1020F000000000003B4300003B4300003B43000066
:102100003B4300003B4300003B4300003B430000D7
:102110003B4300003B4300003B4300003B430000C7
:102120003B4300003B4300003B4300003B430000B7
:102130003B4300003B4300003B4300003B430000A7
:102140003B4300003B4300003B4300003B43000097
:102150003B4300003B430000000000000000000083
:10216000000000000000000000000000000000006F
:102170000000000000000000193200003B43000096
:102180003B4300003B4300003B4300003B43000057
:10219000000000003B4300003B4300003B430000C5
:1021A0003B4300003B4300003B4300003B43000037
:1021B0003B4300003B4300003B4300003B43000027
:1021C0003B4300003B4300003B4300003B43000017
:1021D0003B4300003B4300003B4300003B43000007
:1021E0003B4300003B4300003B4300003B430000F7
:1021F0003B4300003B4300003B4300003B430000E7
:102200003B43000000000000000000003B430000D2
:102210003B4300003B4300003B4300003B430000C6
:102220003B4300003B4300003B4300003B430000B6
:102230003B4300003B4300003B4300003B430000A6
:102240003B4300003B4300003B4300003B43000096
:102250003B4300003B4300003B4300003B43000086
:10226000F8B500BFF8BC08BC9E467047A542000008
:10227000F8B500BFF8BC08BC9E467047814200001C
:1022800070B582B09F4B1B78A3B99F4B1B78002B76
:1022900040F08F819D4B1B78002B40F091819C4B2F
:1022A0001B78002B00F08A81994B00221A7002F0F3
:1022B00045F883E1934B00221A70964B1B7B082B49
:1022C00005D1944C221D04F10C05002103E002F01D
:1022D00035F873E1194612F8010B80EA0103DBB20D
:1022E000AA42F7D1884223D18A4B1B798A4A1278B5
:1022F0009A4220D0884A1370864B03F114020433AB
:1023000093E8030082E80300844B5B78B3B9814B08
:102310005B79013B092B50D8DFE813F049006800D6
:1023200072007B009400AB00C500DC002E000801A9
:1023300002F004F842E102F001F83FE10021774B9E
:102340005970A2F114030B225A75143304F11B02C5
:1023500013F8010B41409342FAD16E4AD1766F4B8C
:102360001878002300931432082100F5A07001F0C2
:10237000CBFB01F0E3FF21E1684B93F871397BB1AE
:10238000674A0023674EA2F2516500BF52F8040B62
:10239000316841F82300013395F871198B42F5DB60
:1023A000604B1B684FF05A32C3F8FC2305E05B4BCF
:1023B000D3F80220574BC3F817205B4B04F11B02E4
:1023C000002100BF13F8010B41409342FAD1514A5A
:1023D000D176524B1878002300931432082100F56F
:1023E000A07001F091FB01F0A9FFE7E04B4BD3F89F
:1023F0000610484AC2F8171000229A71DA71DCE719
:10240000444A464B53F80A1FC2F816101B799376BC
:10241000D3E7404B9B79414A92F82F239A4209D93E
:1024200002333E4A02EB8303D3F80720394BC3F84B
:102430001720C2E7374B00225A7504229A750122F1
:10244000DA75BAE7334B9B79344A92F850269A42B0
:1024500007D9CC33314A52F823202E4BC3F817202A
:10246000ABE72C4B00225A7505229A750122DA75CA
:10247000A3E7284B9B79294A92F871299A420AD9F5
:1024800003F5CA73254A02EB8303D3F80120214BDD
:10249000C3F8172091E71F4B00225A7506229A7540
:1024A0000122DA7589E71B4B9B791C4A92F850266A
:1024B0009A4207D9CC33174AD2F81710174A42F874
:1024C00023107AE7134B00225A7507229A750122CE
:1024D000DA7572E70F4B9B79104A92F871299A428C
:1024E00008D90C4AD2F817100C4A02EB8303C3F840
:1024F000511662E7074B00225A7508229A7501228D
:10250000DA755AE7660B0020650B0020640B00208B
:10251000430B0020B40A0020410B002010000020D3
:1025200061060020880B0020C80A0020524BD3F817
:1025300074692EB3514B987928B14F4BDB7A012B3C
:102540002ED04D4B98724C4D0423EB7200232B730D
:102550006B734A498B7A00934B7A0A7AC979B047F0
:10256000EB7A032B03D90322EA720522AA73434AAA
:10257000414B53F80A1FC2F816101B7993761CE7DB
:102580003E4A917999720321D972002119735973C6
:1025900004219973D3F80A30C2F8163091760CE70B
:1025A000364B0322DA7500221A765A7601229A7681
:1025B00003E7334B00221A7001F0C0FE02B070BD79
:1025C000304B00221A702D4B1B7B082B1BD12A4B42
:1025D00000225A70294B03F11402191D03C982E825
:1025E00003001B79012B11D0022B2FD0224B18781E
:1025F00000230093244A082100F5807001F084FA3A
:1026000001F09CFEDAE701F099FED7E71A4B93F848
:102610007C3973B9194B00225A759A75DA751A7696
:10262000164B154A91785976D17899761279DA76DF
:10263000DCE7124B02225A750F4AD2F87829117939
:1026400099755179D97592791A76E9E70A4B93F819
:102650007C393BB9094BFF221A7502225A750022B8
:102660009A75C3E7044B012283F87D2900210748AE
:1026700002F02CF9BAE700BF10000020B40A0020D5
:10268000650B0020640B0020C80A0020B13F000049
:1026900080B5002001F06FFF0021764802F042F97A
:1026A00002F0BCF801F0D2FF02F0A0F802F086F8C8
:1026B00001F01AFF704B00221A611A705A606F4BBA
:1026C0004FF48002C3F89420962002F019F86C4D64
:1026D0006C4C6D4FDFF8C08151E123F001032B708A
:1026E00002F0BCF84FF4C051092001F0C1FF02F024
:1026F00071F800BF01F0CEFF0028FBD002F006F910
:1027000000EB4010C000B0F57F4F0EDA5F4B83FB4B
:1027100000230344C017C0EBE310E061F870574B8F
:102720004FF00042C3F89C2031E1FF20F5E723F091
:1027300002032B7001F042F82EE123F004032B700A
:10274000534BDB7803F0F003402B20D04FF4C05103
:10275000002001F0B1FF02F055F800BF01F0BEFF0C
:102760000028FBD002F0D8F820614A4BD870001244
:10277000187133788BB17368B268934213DA3F4AA9
:102780004FF48001C2F898100133736009E100230F
:102790002361404AD3701371EBE7384B4FF480024A
:1027A000C3F89420FDE0F1680A44934205DA334A05
:1027B0004FF48001C2F89410E6E73369013B3361BE
:1027C00000227260002B40F0EC803270E9E00122C0
:1027D0002F4BDB78C3F3810393422FD0D8F800301E
:1027E000013BC8F800306BB34FF4C051002001F03A
:1027F0003FFF01F0EFFF00BF01F04CFF0028FBD0CE
:1028000002F084F8A061B8701C4B1B6AC3F3C023AC
:10281000DEB2A6701E4A917866F3C30191706528F6
:102820003CDD7E2840F3DF80C72840F3DE80002BAC
:1028300014BF0321042132E00222C9E70423C8F8AF
:102840000030D1E71249CB7862F38303CB700422C6
:10285000C8F8002003F00C032BB9032211461046E0
:1028600001F0E0FEC0E705221421012001F0DAFEAC
:10287000BAE700BFF5410000100B002000800041C6
:10288000680B00208C0A0020700B00208180808063
:102890003C0B0020800B00208C0B002000216A4B99
:1028A000DB78B1EB131F00F0A280684A1368013B8C
:1028B0001360002B00F09F80654BD3F8A030C3F36A
:1028C000C00383F0010194F82420914200F09C8021
:1028D00060480268013A0260002A00F09E805C4A6B
:1028E000136A83F40023C3F3C04394F8201063F306
:1028F000000184F82010136A83F48023C3F380431B
:10290000C9B263F3410184F82010136A83F40033E1
:10291000C3F34043C9B263F3820184F82010136A01
:1029200083F48033C3F30043C9B263F3C30184F873
:102930002010136A83F40043C3F3C033C9B263F3B6
:10294000041184F82010116A81F48041C1F38031B0
:1029500094F8203061F3451384F82030DBB23B71EA
:10296000003318BF012384F82330136AC3F34053A4
:1029700084F82130344A917863F382019170364EA5
:1029800001F09AFD2B7813F0010F7FF4A6AE2B789F
:1029900013F0020F7FF4CBAE2B7813F0040F7FF40B
:1029A000CCAE2B7813F0080FEAD023F008032B707D
:1029B0004FF4C051012001F05BFE01F00BFF00BF9E
:1029C00001F068FE0028FBD001F0A0FF6061787084
:1029D00053287FF7FCAE8A287FF72EAFBF28B4BFFD
:1029E00003220022F4E6012159E7022157E7174BA1
:1029F00004221A6060E7144BDA7861F30712DA7088
:102A0000124B04221A6057E7124B042119600E4B37
:102A1000D97862F34101D97061E784F824100A4A39
:102A2000D07861F34100D0700A4A042111602BB9BB
:102A300005221421012001F0F5FD50E70522114681
:102A4000022001F0EFFD4AE73C0B0020940B002030
:102A500000800041900B0020100B002008B5964B21
:102A60001A6842F210739A4200DD08BD012001F09D
:102A7000D5FC0021012001F0C7FA904B1B78002BF8
:102A800044D08F4B93F8233013B18E4B19221A6028
:102A90008B4B93F8203013F0020F0CD113F0010F81
:102AA00011D0874B5A6840F6C3139A42DDDD0320EC
:102AB00000F032FDD9E7824B5B68002BD5DC0320A8
:102AC00000F02AFDD1E7032000F026FD7D4B1B68B6
:102AD000002B6FD17A4B93F82330002B7BD07A4BAD
:102AE0003C221A60764B93F8203013F0200F00F050
:102AF0008280734BDB68002BB7DD6F4A13600720C1
:102B000000F00AFD714B01221A70AEE7704B1B7882
:102B10002BB36B4B93F8233013B16A4B19221A6015
:102B2000674B93F8203013F0080F0CD113F0040F0B
:102B300011D0634B9A6840F2DB539A4295DD062030
:102B400000F0EAFC91E75E4B9B68002B8DDC0620D1
:102B500000F0E2FC89E7062000F0DEFCB6E75B4B04
:102B60001B78002BB2D0564B93F8233013B1554B42
:102B700019221A60524B93F8203013F0200F0CD119
:102B800013F0100F12D04E4BDB68B3F5FA6FFFF65F
:102B90006CAF092000F0C0FC67E7494BDB68002BF5
:102BA0003FF763AF092000F0B7FC5EE7092000F0B3
:102BB000B3FC8BE7013B434A1360002B7FF455AF16
:102BC000002000F0A9FC00233C4A1370404A137017
:102BD0003E4A137049E7002000F09EFC3A4B1B6808
:102BE000002B7FF442AF05221421012001F01AFDD1
:102BF00001F092FC39E713F0100F0ED0304BDB6878
:102C0000B3F5FA6FBFF631AF2B4A13602F4B012299
:102C10001A70082000F080FC27E713F0080F0FD08F
:102C2000274B9B68002B7FF720AF042000F074FC3B
:102C3000234B9A68204B1A60254B01221A7014E727
:102C400013F0040F0FD01E4B9B6840F2DB529342EF
:102C50003FF70BAF184A1360052000F05DFC1C4BDA
:102C600001221A7001E713F0020F0DD0144B5B68BC
:102C7000002B7FF7FAAE104A1360022000F04CFCE4
:102C80000E4B01221A70F0E613F0010F0FD00C4B1F
:102C90005B6840F6C31293423FF7E7AE064A136003
:102CA000012000F039FC054B01221A70DDE60020FE
:102CB00000F032FCD9E600BF580B0020690B002061
:102CC0008C0A0020500B0020480B00206B0B0020CA
:102CD0006A0B002008B5784B1B7C012B0AD0002022
:102CE00001F09CFB0021084601F08EF9002000F065
:102CF00013FC08BD012001F091FB0021084601F002
:102D000083F96E4B93F8233053B96B4B5B69062BF9
:102D100000F2CE80DFE803F00A12304B7192AA0075
:102D20000020654B187400F0F7FBE2E7002001F08B
:102D300097F9614A536901335361DAE75F4BDB6806
:102D4000C82B11DDC3F1C80383EAE370A0EBE37085
:102D500000EBD0700221401001F026FA01F080F95A
:102D6000072000F0D9FBC4E7092000F0D5FB524A48
:102D7000536901335361BCE7504B5868B0F5166F87
:102D80000DDAC0F5166000210028B8BF404201F0FE
:102D90000BFA01F065F9012000F0BEFBA9E7032062
:102DA00000F0BAFB444A536901335361A1E7434B36
:102DB0009B6840F2DB52934217DCC3F5BB630433DC
:102DC000002BB8BF5B4203EB83035B003C4880FBF6
:102DD0000320DB170021C3EBE00001F0E5F901F06F
:102DE0003FF9052000F098FB83E7062000F094FBF4
:102DF000314A5369013353617BE7304B9B68002BA9
:102E000014DD002BB8BF5B4203EB83035B002C484F
:102E100080FB0320DB170021C3EBE00001F0C4F9C5
:102E200001F01EF9042000F077FB62E7062000F0B5
:102E300073FB214A5369013353615AE71F4B5868AA
:102E400000280BDD00210028B8BF404201F0ACF99A
:102E500001F006F9022000F05FFB4AE7032000F0D2
:102E60005BFB154A53690133536142E7134BDB683F
:102E7000B3F5FA6F14DAC3F5FA6383EAE370A0EBF3
:102E8000E37000EBD0700021401001F08DF901F0EB
:102E9000E7F8072000F040FB082000F03DFB28E7A2
:102EA000092000F039FB044A53690133536120E7DC
:102EB000014B00225A611CE7100A00208C0A0020F6
:102EC0001F85EB5138B5012001F0A8FA6C4B1B7E31
:102ED00033B1012B05D0022B3ED0032B00F08880AC
:102EE00038BD684B00221A60654B1B7B6BB101F04B
:102EF000E5FC002000F010FB614B00221A76052251
:102F00001146032001F08EFBEAE75D4B1C6A5E4B25
:102F10005B68E41A84EAE475A5EBE47500212846B1
:102F200001F042F901F09CF8012D06DD002CB4BF40
:102F30000220012000F0F0FAD2E7032000F0ECFAC2
:102F4000514B5868C0F30721C0B201F07DFC4C4BD7
:102F500000221A76DA61C3E74A4B00221A60484B16
:102F60001B7B6BB101F0AAFC002000F0D5FA444BAA
:102F700000221A7605221146032001F053FBAFE729
:102F80003F4B5D6A404B9B68ED1A85EAE574A4EB04
:102F9000E57404EB840464003C4B83FB0423E017DA
:102FA0000021C0EBE30001F0FFF801F059F8312CEB
:102FB00006DD002DCCBF0520042000F0ADFA8FE720
:102FC000062000F0A9FA304B9B6803EB83035B00FB
:102FD0002E4A82FB0312D817C0EBE200C0F3072190
:102FE000C0B201F031FC264B00221A76DA6177E795
:102FF000234B1B7B6BB101F061FC002000F08CFACD
:103000001F4B00221A7605221146032001F00AFB0D
:1030100066E71B4B9C6A1C4BDB68E41A84EAE47588
:10302000A5EBE47505EBD570164B1968401001F05F
:10303000BBF801F015F8032D08DD002C18DB114B4F
:1030400000221A60082000F067FA49E7092000F022
:1030500063FA0D4BD86800EBD070C0F34721C0F382
:10306000470001F0F1FB064B00221A76DA6137E7E0
:10307000044B02221A60072000F04EFA30E700BF2E
:10308000100A0020540B00208C0A00201F85EB51F1
:1030900038B50C461546092800F2B780DFE800F085
:1030A000050B121920274E759CA95A4B01221A7341
:1030B00001F004FC38BD01F02FFA0021084601F0B0
:1030C000C3FBF7E701F08EF90021084601F0BCFBD5
:1030D000F0E701F06BF90021084601F0B5FBE9E7E4
:1030E00001F0B6F90021084601F0AEFBE2E701EB82
:1030F000022000F0E1FF05281CD8DFE800F00308FB
:103100000B0F13172946204601F09EFBD2E701F072
:1031100091FBCFE7022001F0C9FBCBE7032001F0D0
:10312000C5FBC7E7032001F0C1FBC3E7012001F0A5
:10313000BDFBBFE7052001F0B9FBBBE701EB0220B7
:1031400000F008FE05281CD8DFE800F003080B0F8C
:1031500013172946204601F077FBABE701F06AFB25
:10316000A8E7022001F0A2FBA4E7032001F09EFBE8
:10317000A0E7032001F09AFB9CE7012001F096FBF9
:1031800098E7052001F092FB94E701EB022000F0A4
:10319000B3FE05281CD8DFE800F003080B0F131757
:1031A0002946204601F050FB84E701F043FB81E70C
:1031B000022001F07BFB7DE7032001F077FB79E73C
:1031C000032001F073FB75E7012001F06FFB71E74D
:1031D000052001F06BFB6DE7084601F0F9F918B91D
:1031E000032001F063FB65E70021084601F02CFB9A
:1031F00060E701F0D7F918B9032001F057FB59E750
:103200000021084601F020FB54E7042001F04EFBAA
:1032100050E700BF100A00202DE9F04784B04FF0BE
:1032200084431C6D14F0007F1CBF4FF000721A65C0
:1032300014F0010F62D04FF0844301221A655A6DD9
:1032400022F001025A65D3F8A43013F07F0F55D055
:103250004FF08443D3F8A450C5F305252B014A4A07
:10326000D268D718D15811F0804FD15805EB85009E
:10327000464E56F8200014BF21F06041C1F38A4148
:103280000160D2587B6813F4001F02D112F0005F76
:1032900071D105EB85033D4A02EB83031B690022D4
:1032A0001A707E683A4B0FCB0DF1100C0CE90F0031
:1032B000C6F30346664416F810AC344E4FEA850850
:1032C00008EB050906EB8909524607F10801D9F810
:1032D000040001F065FAD9F8083083F800A0D9F8A5
:1032E0000C300BB17A681A804FF08443C3F8A850B1
:1032F000284B1B6813B1274A5068984714F4007F85
:1033000020D04FF084434FF400721A655A6D22F4B6
:1033100000725A65D3F8D820D3F8E03013F0010FCB
:103320000AD012F0010F07D04FF08442D2F8E030FB
:1033300023F00103C2F8E030164B9B6913B1154A24
:10334000D069984714F4006F12D04FF084424FF4C4
:1033500000631365D2F8C430C3F30423D2F8C42049
:10336000C2F30442934203D20133DBB29A42FBD14F
:1033700004B0BDE8F08705EB8503044A02EB830344
:103380001B6901221A708CE73C0A0020640A0020A5
:10339000DC480000D40A0020F40A00201C000000D1
:1033A000000000003C0B00200500000000000000B1
:1033B000700B002005000000010000000300000069
:1033C00000000000780B0020050000000100000054
:1033D0000100000000000000800B0020050000003C
:1033E000010000000200000000000000E0090020D1
:1033F0003000000000000000B40A0020200000009F
:103400000000000010000020800900000000000003
:10341000410B00200300000000000000640B0020AE
:103420000300000000000000880B002004000000E2
:103430000100000000000044D40A00202000000029
:10344000000000003C0A00205000000000000000C6
:10345000670B00200100000000000000240B00208A
:103460000C00000000000000100B00201400000001
:10347000000000008C0A002028000000000000006E
:10348000300B00200C00000000000000680B002042
:1034900001000000000000008C0B00200C00000068
:1034A000010000000400000004000000040000000F
:1034B000690B00200400000000000000440B002005
:1034C00004000000000000006D0B0020010000005F
:1034D00000000000480B0020100000000000000069
:1034E000100A00202C00000000000000580B0020F3
:1034F00008000000000000009009002050000000BB
:1035000000000000600B002004000000000000002C
:103510000000000000000000554B1870092800F260
:10352000A580DFE800F0050B1D2F3E5062718395EA
:10353000504B4FF40042C3F8942070474D4B4FF46A
:103540000042C3F898200122C3F898200222C3F851
:1035500098204FF480729A610422C3F89420704737
:10356000444B4FF40042C3F898200122C3F898203E
:103570000222C3F898204FF480729A610422C3F8A3
:10358000982070473B4B4FF40042C3F8982001222B
:10359000C3F898200222C3F898204FF480725A6131
:1035A0007047344B4FF40042C3F898200122C3F80F
:1035B00098200222C3F894204FF480729A6104226A
:1035C000C3F8942070472B4B4FF40042C3F8982067
:1035D0000122C3F898200222C3F894204FF480728D
:1035E0009A610422C3F898207047224B4FF400429E
:1035F000C3F898200122C3F898200222C3F894202F
:103600004FF480725A6170471A4B4FF40042C3F86E
:1036100098200122C3F894200222C3F898204FF486
:1036200080729A610422C3F894207047114B4FF4C2
:103630000042C3F898200122C3F894200222C3F864
:1036400098204FF480729A610422C3F89820704742
:10365000084B4FF40042C3F898200122C3F894208D
:103660000222C3F898204FF480725A61704700BF5D
:10367000100A002000800041474B00221A7403F515
:103680000063464A5A621A46536813F0080FFBD18A
:10369000434B444A9A621A46536813F0100FFBD109
:1036A0003F4B414A1A631A46536813F0400FFBD14F
:1036B0003B4B4222C3F884201A4600BFD2F8843024
:1036C00013F0400FFAD0394B00229A6377225A63E5
:1036D0001A46D36B13F0040FFBD1344B022283F84C
:1036E00030201A46D36B13F0020FFBD12F4A136C14
:1036F00003F00303032BFAD12D4B01225A711A4612
:10370000D37813F0010FFBD0254B2A4A1A621A46D0
:10371000536813F0040FFBD1214B4122C3F8E4207E
:103720001A4600BFD2F8E43013F0400FFAD01C4B19
:103730004422C3F8EC201A46D2F8EC3013F0400FC4
:10374000FAD0174B4122C3F8F4201A46D2F8F430CD
:1037500013F0400FFAD0124B4122C3F820211A4631
:10376000D2F8203113F0400FFAD00D4B4122C3F8AC
:1037700024211A46D2F8243113F0400FFAD00C4B12
:103780006FF07F421A6140F2FF725A610A4A9A61F1
:103790004FF4C0721A627047001400400601010025
:1037A000001C00400601300006010200001000402D
:1037B00000080040070101005688010010B54FF4D1
:1037C000C051052000F078FF01F01CF800F086FFE2
:1037D0000028FBD001F0A0F832383B4B586020EABB
:1037E000E0703A4B5870001298704FF4C0510620A8
:1037F00000F062FF01F006F800F070FF0028FBD037
:1038000001F08AF83238304B986020EAE0702F4B94
:10381000D870001218714FF4C051072000F04CFF0F
:1038200000F0F0FF00F05AFF0028FBD001F074F820
:103830003238254BD86020EAE070254B58700012D2
:103840009870244B9B68032B05D8DFE803F0021324
:10385000161900F0BFFA204B1B78A3B91F4B1B6A47
:10386000C3F38023184A53701D4A917863F3000113
:10387000917010BDFFF7F2F8EDE7FFF723FBEAE7E1
:10388000FFF728FAE7E70020134B1870154B1B6869
:10389000104CA360124A537060612074E06120767E
:1038A000014600F0B1FBA368012B05D0022BD5D156
:1038B0000020FFF731FED1E70020FFF72DFE0A4B75
:1038C0003C221A60CAE700BF8C0A0020780B002057
:1038D000800B0020100A00206D0B002000800041AA
:1038E0003C0B0020440B0020480B00202DE9F84F32
:1038F0008B46924698469DF828709DF82C609DF85E
:1039000030503F4BD3F800903E4C20700123637041
:103910003D4800F04FF9A770E67025710223E3726D
:10392000002323736373A373A371E3712372637220
:1039300084F82FB384F850A6B8F1000F03D009F033
:103940000F03012B13D02F4B002283F871292D4A2E
:103950000D9BC2F874394FF00053C2F878391B78C8
:10396000112B2CD0274B002283F87C293FE0C9F390
:103970000219B9F1010FE6D184F8718900F0BEFF98
:103980000028FBD1214B1968D1F8FC33B3F15A3F21
:1039900009D01F4B03EB8808002200BF43F8042B1B
:1039A0004345FBD1D3E70B46194A01EB880800BF1A
:1039B00053F8041B42F8041B4345F9D1C7E74FF005
:1039C00000535B78822BCDD14FF000539B78132BA3
:1039D000C8D14FF00053DB78842BC3D1094B0122AF
:1039E00083F87C294FF00053DF711E725D72054B26
:1039F000002283F87D2900F0A1FCBDE8F88F00BF0C
:103A00000440800010000020E0090020880B002006
:103A10006106002070B4394B394A1A60012083F8DE
:103A20004200072283F8432083F8440083F84500CE
:103A300083F8460083F84700402283F8482083F843
:103A40004920022183F84A1083F84B10412483F85F
:103A50004C4083F84D2083F84E1083F84F1083F8C4
:103A6000501083F8511083F8521083F85310062435
:103A700083F85440442483F8554083F8560083F873
:103A8000570083F85B10112583F8315083F83250CA
:103A900083F83350052683F83660882683F83B6028
:103AA000184EC3F8806083F8C04083F8C14083F8A3
:103AB000C24083F8C31083F8C41083F8C62083F88B
:103AC000C70083F8C80083F8C90083F8CA2083F8C8
:103AD000CB2083F8CC2083F8CD2083F8CE2083F848
:103AE000CF2083F8D62083F8D74083F8DF20102238
:103AF00083F8B32083F8B45070BC70470080004155
:103B0000F013200007F0C080F8B59DF818C0BCF194
:103B1000010F01D90020F8BD4FF08443D3F8C43021
:103B200013F4001F3FD14FF08443D3F8C440C4F3D3
:103B3000044426011D4B9F69BD19B0F5006F26BFD7
:103B400020F0604040F080408004B8510B460829C6
:103B500028BF0823180468601CF0FD0F1ED1114611
:103B60001A4605F1080000F01BFE114A13780133D4
:103B7000DBB213706A6842EA036343F400036B60CC
:103B8000012000FA04F44FF08443C3F8E040C3F886
:103B9000D0405A6D42F400725A65BCE7BB5943F0FD
:103BA0000053BB51E1E70020B5E700BF3C0A00200D
:103BB000670B002038B504463022002100F062FE79
:103BC0004FF0844301229A611A46936913F0010F62
:103BD000FBD04FF084439A6942F002029A61174980
:103BE000CC60A2B242F0004242F48032C3F8A0207E
:103BF00004F110028A6192B242F08072C3F8C020D0
:103C000004F12002CA6192B242F48032C3F8F0207B
:103C100004F128020A620A4D03CDA062E16292B269
:103C200042F40032C3F884209A6922F001029A61BA
:103C30001A46936913F0010FFBD138BD3C0A0020EE
:103C40003049000008B51B4B98471B4B9847EFF3D2
:103C5000108172B6194AD2F8883043F47003C2F862
:103C60008830BFF34F8FBFF36F8F01B962B6144C2A
:103C70002023636000F006FC124B23F07F030F4A01
:103C80009360114B9847A36823F00103A360234678
:103C9000DA6812F0010FFBD1094B5A6842F00402B6
:103CA0005A6001229A60094B9847094B9847FEF7E2
:103CB000EFFCFEE7434900004349000000ED00E04F
:103CC0000060004100200000553F00004349000013
:103CD0004349000038B54FF0844301229A611A46E7
:103CE000936913F0010FFBD04FF084439A6942F0BF
:103CF00002029A61144ADA612B22C3F88020012261
:103D00001A629A6922F001029A611A46936913F0C5
:103D1000010FFBD14FF0844300249C650122DA653A
:103D20004FF000725A65094D2C606C60AC6028221F
:103D30002146074800F0A6FDEC602C616C61AC6187
:103D4000EC612C626C6238BD000502003C0A002068
:103D5000640A0020B0F52F7F2BDC1B4B9B6803EB24
:103D600083035B00194A82FB0312DB17C3EBE203F8
:103D70001A1F824202DC043383421CDA144B9B6814
:103D8000022B1AD1104B5B78CBB1114B1B7EC3B900
:103D90000F4A00EB800000EB8000A3F1993383FB16
:103DA0000013C017C0EBA30050620223137601205A
:103DB000704702207047002070470320704704209E
:103DC00070470520704700BF8C0A00201F85EB510B
:103DD000100A002008B5002000F020FB0021084652
:103DE00000F012F90020FFF797FB124B1B7853B13C
:103DF000114B93F8233003B108BD0E4B00221A700B
:103E000000F026FBF8E70C4B93F8233073B10B4A14
:103E1000136801331360802BEEDD0522114602206A
:103E200000F000FC034B01221A70E5E7034B00226F
:103E30001A60E1E76C0B00208C0A00204C0B00207C
:103E4000154B01221A801A46136B13F0010FFBD198
:103E50004FF080131B689A0C02F07002D90A01F42B
:103E6000E061C3F302430A431A430B4BA3F8482013
:103E70004FF480721A803F22DA7203221A724FF4D2
:103E8000C0529A801822DA80072283F82E201A4620
:103E9000136B002BFCD1704700200043154B01220F
:103EA0001A801A46136B13F0010FFBD14FF08013E9
:103EB0001B681A0902F07002D90001F4E061C3F333
:103EC00082030A431A430B4BA3F848204FF4807235
:103ED0001A803F22DA7203221A724FF4C0529A807B
:103EE0000022DA80072283F82E201A46136B002B5B
:103EF000FCD17047001C004340F2465398421BDC43
:103F0000124BDB6803EBD3735B101A1F824202DC97
:103F10000433834212DA0E4B9B68022B10D10B4BF9
:103F20005B787BB10A4B1B7E73B9094B40009862EA
:103F300003221A7601207047022070470020704744
:103F40000320704704207047052070478C0A00202A
:103F5000100A00200E4A38B5002313600D4A0E4C9B
:103F600013600E4A0E4D13600E4A13600E4A136022
:103F70000E4A536213610123936000F0E3FC00F0EA
:103F8000E1FCAC4200D338BD54F8043B9847F8E755
:103F9000600B00209C0900206C2200009809002082
:103FA000702200009009002094090020A009002040
:103FB000124B93F87D3903B97047104B002283F8F8
:103FC0007D29D3F8782901211170D3F878290221AD
:103FD0005170D3F8782903219170D3F878390422ED
:103FE000DA70BFF34F8F0649CA6802F4E062054BEE
:103FF0001343CB60BFF34F8F00BFFDE710000020DD
:1040000000ED00E00400FA0510B4C0B1114B4FF40C
:1040100000129A61104B012283F821200F4B0E4AA7
:10402000987892F8214064F38200987082F8221008
:10403000DA7861F30002DA705DF8044B7047054AE4
:104040004FF400115161044A002182F82110014609
:10405000E4E700BF008000418C0A00203C0B0020F8
:10406000072828BF0720C0F10700C0B2104B5860D6
:1040700010F0010F0F4B4FF4805214BFC3F898207B
:10408000C3F8942010F0020F0A4B4FF4005214BFF3
:10409000C3F89820C3F8942010F0040F054B4FF498
:1040A000804214BFC3F89820C3F89420704700BF23
:1040B000100A00200080004140F61423984216DCCC
:1040C000104B5B681A1F824202DC0433834210DA11
:1040D0000D4B9B68022B0ED10A4B5B786BB10A4BE0
:1040E0001B7E63B9084B18620120187670470220C6
:1040F0007047002070470320704704207047052058
:10410000704700BF8C0A0020100A0020114B0122CA
:104110001A601A46936813F0010FFBD10D4B4FF450
:1041200080621A600221596158690B4A02435A6140
:10413000D96342F210725A6400229A64DA641A65F2
:104140005A659A6596221A641A469368002BFCD128
:10415000704700BF00600141000F4040F0B59DF87E
:104160001440ECB94FF0844CDCF8A450C5F305259D
:104170000C4CAE007719BF0004EB070EE051CEF8EF
:104180000420CEF80810CEF80C30069BCEF8103084
:10419000DCF8543043F00103CCF85430012000E047
:1041A0000020F0BD640A0020B0F57A7F11DCB0F584
:1041B000FA7F14DCB0F5C87F13DCB0F5967F12DC13
:1041C000C82812DC642812DC3228D4BF0020012069
:1041D00000E007208842B8BF0846C0B270470620FA
:1041E000F8E70520F6E70420F4E70320F2E70220D1
:1041F000F0E7704710F0010F04D00F4A137843F036
:104200000203137010F0020F04D00B4A137843F02E
:104210000403137010F0100F04D0074A137843F012
:104220000803137010F0800F04D0034A137843F092
:1042300001031370704700BF680B00200F4B012271
:104240001A801A46136913F0010FFBD10B4B4FF480
:1042500001421A8000221A621A46136913F0200FD5
:10426000FBD1064B00225A621A46136913F0400F25
:10427000FBD1024B93225A81704700BF00240040BB
:1042800010B5054C227832B9044B13B10448AFF392
:1042900000800123237010BDF40A002000000000FC
:1042A0000000000008B5034B1BB103490348AFF3FE
:1042B000008008BD00000000F80A00200000000097
:1042C0000D4AD36823F4E0631B041B0C43F0BF6367
:1042D00043F40033D360BFF35F8F62B6074BE02235
:1042E00083F80B234FF40061196083F84E234FF4D9
:1042F00080429A60704700BF00ED00E000E100E0FE
:104300004FF08443586C20F4605020F018004004B3
:10431000400C9B6913F0010F0ED04FF084439A6953
:1043200042F002029A619A6922F001029A611A46E9
:10433000936913F0010FFBD17047FEE700B583B01E
:1043400000221146084800F01DFA0848084B019366
:104350000023009300F10E03021D00F10C01FFF792
:10436000FDFE03B05DF804FB75430000B40A0020B5
:10437000420B002008B5FFF7C3FF10F0070001D083
:10438000072809D1064B1B68B3F5A07F2CBF054B4E
:10439000054B01221A7008BDFFF7D0FFFBE700BFF5
:1043A000B40A0020660B0020640B00200A4B9B68B7
:1043B000032B0FD0094B1B781BB1094B1B68032B38
:1043C00008D0064B01221A70054B03221A60024BDB
:1043D00000221A73704700BF100A00206D0B0020E6
:1043E000440B00200A4B9B68022B0FD0094B1B7813
:1043F0001BB1094B1B68022B08D0064B01221A7017
:10440000054B02221A60024B00221A73704700BF4C
:10441000100A00206D0B0020440B0020014658B10B
:10442000084B4FF400729A61074B1970074B9A784A
:1044300061F341029A707047024B4FF400725A6167
:10444000F2E700BF008000418C0A00203C0B0020F6
:10445000094B9B68012B0ED0084B1B781BB1084BF6
:104460001B68012B07D00123044A1370044A136010
:10447000014B00221A737047100A00206D0B0020B8
:10448000440B002070B50A480A4D4FF6FF760168CC
:1044900011B9436803B970BD83684268334000F1C5
:1044A0000C0455F823302046984704EB8000EEE7D3
:1044B000983300007048000008B5074800F044F841
:1044C000064800F041F8064800F03EF8054800F0C4
:1044D0003BF8FDF7D5FE08BD3C0B0020780B002013
:1044E000800B0020700B002038B5094D0024AC6013
:1044F000084B5C702046FFF70FF82046FFF7B0FD31
:104500002046FFF78BFF2C732C742C7638BD00BF30
:10451000100A00203C0B0020084B9B686BB1084B35
:104520001B7813B1074B1B683BB1054B01221A7076
:104530000023044A1360014A13737047100A0020D5
:104540006D0B0020440B002010B50446427800217A
:10455000007800F0E7F8A2780121207800F0E2F876
:10456000E2780221207800F0DDF82279032120781A
:1045700000F0D8F810BD08B500F0B8F9FFF74AFA16
:10458000FFF77AF8FFF735FEFFF7C0FDFFF786FC6F
:10459000FFF756FCFFF79EFBFFF750FEFFF790FE7C
:1045A00008BDFEE7094B9B68032B0DD1074B1B7C15
:1045B0002BB9064B00225A61012018747047034B37
:1045C00000221A740120704700207047100A002052
:1045D00008B528B1084B9B68022B07D0002008BD06
:1045E00000210846FFF710FD0120F8E701210846E9
:1045F000FFF70AFD0120F2E7100A002008B5074A7C
:10460000908980B2064B58604CF2FF3191811B6853
:1046100013B1034A9168984708BD00BF00240040C9
:10462000240B0020084B1B786BB900280BDD10B45D
:10463000054B00245C609960DA60186101221A70F1
:104640005DF8044B70477047100B002000B585B033
:10465000064B03930122029200230193009204214E
:104660001520FFF743F905B05DF804FB9130000019
:10467000074A93889BB223F4F85323F01F030143A6
:104680000B439380136B13F0040FFBD1704700BFF3
:1046900000200043074B93F82E3003F00103002B5A
:1046A00014BF0120002003D0024B012283F82E20EA
:1046B000704700BF00200043074A93889BB223F451
:1046C000F85323F01F0301430B439380136B13F044
:1046D000040FFBD1704700BF001C0043074B93F849
:1046E0002E3003F00103002B14BF0120002003D063
:1046F000024B012283F82E20704700BF001C0043AC
:1047000008B5064B4FF40002C3F89820044B002272
:104710001A725A60186000F015F808BD0080004158
:10472000300B0020064B93F82F33834206D9032920
:1047300004D8034B03EB80000844C273704700BFEA
:1047400010000020064B1B6B13F0800F05D120F0EA
:104750007F40034BD866012070470020704700BFA0
:104760000060014110B50023934206D113F003000D
:1047700018BF012000EB930010BDC45CCC54013382
:10478000F2E7FEE710B428B1044B43F8320003EB24
:10479000C20359605DF8044B704700BFD40A002083
:1047A0005AB110B40A44431E11F8014B03F8014FEB
:1047B0009142F9D15DF8044B70477047044A138861
:1047C00043F002031380136B002BFCD1704700BF32
:1047D00000200043044A137D43F002031375136B5A
:1047E00013F4006FFBD1704700200043044A138884
:1047F00043F002031380136B002BFCD1704700BF02
:10480000001C0043044A137D43F002031375136B2D
:1048100013F4006FFBD17047001C0043044A138857
:1048200043F002031380136913F0020FFBD17047AA
:1048300000240040034B0122DA7200221A735A73DB
:104840009A73704710000020034B0222DA7218732B
:10485000597300229A73704710000020034B1B68A5
:1048600013B1013B014A1360704700BF480B0020A1
:1048700099480000654700003949000039490000A7
:104880003949000032B1C9B20244034603F8011BA2
:104890009342FBD1704700BF0A440023914201D1EB
:1048A0000020704701F8013BF8E7FEE7024B0322C6
:1048B000DA729873704700BF10000020024B032289
:1048C000DA7206229A7370471000002010B1024B72
:1048D0009861D961704700BFD40A0020000102032B
:1048E00004050607080C101418203040024B40F253
:1048F00004521A80704700BF00400041024BD86A42
:10490000C0F38000704700BF00400041014BB3F886
:104910004000704700200043014BB3F8400070474F
:10492000001C0043014B186099607047240B002065
:10493000550155091501150900207047FEE7FEE7EE
:06494000FEE7704770471E
:0200000400807A
:0C4000003912003C9100A82AFFFFFFFFCE
:00000001FF
