:020000040000fa
:10200000f8ff0320193b0000834400003b4600001a
:10201000f5470000f7470000f94700000000000006
:102020000000000000000000000000001b42000053
:1020300063470000000000001b4200001b4200003c
:102040001b4200001b4200001b4200001b4200001c
:102050001b4200001b4200001b4200001b4200000c
:102060001b4200001b4200001b420000dd44000038
:102070001b4200001b4200001b4200001b420000ec
:102080001b4200001b4200001b4200001b420000dc
:102090001b4200001b4200001b4200001b420000cc
:1020a0001b4200001b4200001b4200001b420000bc
:1020b0001b4200001b4200001b4200001b420000ac
:1020c0001b4200001b4200001b4200001b4200009c
:1020d0001b4200001b4200001b4200001b4200008c
:1020e0001b4200001b420000000000000000000036
:1020f000000000001b4200001b4200001b420000c9
:102100001b4200001b4200001b4200001b4200005b
:102110001b4200001b4200001b4200001b4200004b
:102120001b4200001b4200001b4200001b4200003b
:102130001b4200001b4200001b4200001b4200002b
:102140001b4200001b4200001b4200001b4200001b
:102150001b4200001b4200000000000000000000c5
:10216000000000000000000000000000000000006f
:102170000000000000000000ed3000001b420000e5
:102180001b4200001b4200001b4200001b420000db
:10219000000000001b4200001b4200001b42000028
:1021a0001b4200001b4200001b4200001b420000bb
:1021b0001b4200001b4200001b4200001b420000ab
:1021c0001b4200001b4200001b4200001b4200009b
:1021d0001b4200001b4200001b4200001b4200008b
:1021e0001b4200001b4200001b4200001b4200007b
:1021f0001b4200001b4200001b4200001b4200006b
:102200001b42000000000000000000001b42000014
:102210001b4200001b4200001b4200001b4200004a
:102220001b4200001b4200001b4200001b4200003a
:102230001b4200001b4200001b4200001b4200002a
:102240001b4200001b4200001b4200001b4200001a
:102250001b4200001b4200001b4200001b4200000a
:020000040000fa
:10226000f8b500bff8bc08bc9e4670478541000029
:10227000f8b500bff8bc08bc9e467047614100003d
:020000040000fa
:1022800070b582b09f4b1b78a3b99f4b1b78002b76
:1022900040f08f819d4b1b78002b40f091819c4b2f
:1022a0001b78002b00f08a81994b00221a7001f0f4
:1022b000b5ff83e1934b00221a70964b1b7b082bd2
:1022c00005d1944c221d04f10c05002103e001f01e
:1022d000a5ff73e1194612f8010b80ea0103dbb296
:1022e000aa42f7d1884223d18a4b1b798a4a1278b5
:1022f0009a4220d0884a1370864b03f114020433ab
:1023000093e8030082e80300844b5b78b3b9814b08
:102310005b79013b092b50d8dfe813f049006800d6
:1023200072007b009400ab00c500dc002e000801a9
:1023300001f074ff42e101f071ff3fe10021774bb2
:102340005970a2f114030b225a75143304f11b02c5
:1023500013f8010b41409342fad16e4ad1766f4b8c
:102360001878002300931432082100f5a07001f0c2
:1023700035fb01f053ff21e1684b93f871397bb1d4
:10238000674a0023674ea2f2516500bf52f8040b62
:10239000316841f82300013395f871198b42f5db60
:1023a000604b1b684ff05a32c3f8fc2305e05b4bcf
:1023b000d3f80220574bc3f817205b4b04f11b02e4
:1023c000002100bf13f8010b41409342fad1514a5a
:1023d000d176524b1878002300931432082100f56f
:1023e000a07001f0fbfa01f019ffe7e04b4bd3f8c6
:1023f0000610484ac2f8171000229a71da71dce719
:10240000444a464b53f80a1fc2f816101b799376bc
:10241000d3e7404b9b79414a92f82f239a4209d93e
:1024200002333e4a02eb8303d3f80720394bc3f84b
:102430001720c2e7374b00225a7504229a750122f1
:10244000da75bae7334b9b79344a92f850269a42b0
:1024500007d9cc33314a52f823202e4bc3f817202a
:10246000abe72c4b00225a7505229a750122da75ca
:10247000a3e7284b9b79294a92f871299a420ad9f5
:1024800003f5ca73254a02eb8303d3f80120214bdd
:10249000c3f8172091e71f4b00225a7506229a7540
:1024a0000122da7589e71b4b9b791c4a92f850266a
:1024b0009a4207d9cc33174ad2f81710174a42f874
:1024c00023107ae7134b00225a7507229a750122ce
:1024d000da7572e70f4b9b79104a92f871299a428c
:1024e00008d90c4ad2f817100c4a02eb8303c3f840
:1024f000511662e7074b00225a7508229a7501228d
:10250000da755ae74e0b00204d0b00204c0b0020d3
:102510002f0b0020b40a00202d0b002010000020fb
:1025200061060020700b0020c80a0020524bd3f82f
:1025300074692eb3514b987928b14f4bdb7a012b3c
:102540002ed04d4b98724c4d0423eb7200232b730d
:102550006b734a498b7a00934b7a0a7ac979b047f0
:10256000eb7a032b03d90322ea720522aa73434aaa
:10257000414b53f80a1fc2f816101b7993761ce7db
:102580003e4a917999720321d972002119735973c6
:1025900004219973d3f80a30c2f8163091760ce70b
:1025a000364b0322da7500221a765a7601229a7681
:1025b00003e7334b00221a7001f030fe02b070bd09
:1025c000304b00221a702d4b1b7b082b1bd12a4b42
:1025d00000225a70294b03f11402191d03c982e825
:1025e00003001b79012b11d0022b2fd0224b18781e
:1025f00000230093244a082100f5807001f0eef9d1
:1026000001f00cfedae701f009fed7e71a4b93f868
:102610007c3973b9194b00225a759a75da751a7696
:10262000164b154a91785976d17899761279da76df
:10263000dce7124b02225a750f4ad2f87829117939
:1026400099755179d97592791a76e9e70a4b93f819
:102650007c393bb9094bff221a7502225a750022b8
:102660009a75c3e7044b012283f87d2900210748ae
:1026700002f088f8bae700bf10000020b40a00207a
:102680004d0b00204c0b0020c80a0020913e00009a
:020000040000fa
:1026900080b5002001f0dffe0021b24802f09ef874
:1026a00002f018f801f02eff01f0fcff01f0e2ff4c
:1026b00001f08afe962001f07fffab4dab4cac4e93
:1026c000dff8c882f6e023f001032b7002f022f855
:1026d0004ff4c051092001f027ff01f0d7ff00bfe0
:1026e00001f034ff0028fbd002f06cf800eb401042
:1026f000c000b0f57f4f0eda9e4b83fb00230344ee
:10270000c017c0ebe310e061f0709b4b4ff000424c
:10271000c3f89c20d6e0ff20f5e723f002032b70de
:1027200000f0b6ffd3e023f004032b70934bdb786b
:1027300003f0f003402b12d04ff4c051002001f001
:1027400017ff01f0bbff00bf01f024ff0028fbd002
:1027500002f03ef82061f87000123871bce00023ee
:102760002361fb703b71b7e00122844bdb78c3f33c
:10277000810393422ed0d8f80030013bc8f80030d6
:1027800063b34ff4c051002001f0cefe01f07eff94
:1027900001f0dcfe0028fbd002f014f8a061b0705c
:1027a000754b1b6ac3f3c023dfb2a770734a9178dd
:1027b00067f3c3019170652819dd7e2840f3ad8071
:1027c000c72840f3ac80002b14bf032104210fe085
:1027d0000222cae70423c8f80030d2e7674bd97851
:1027e00062f38301d9700423c8f80030c9e70021df
:1027f000624bdb78b1eb131f00f09380604a1368e3
:10280000013b1360002b00f090805b4bd3f8a030ad
:10281000c3f3c00394f82420934200f08f805949f9
:102820000a68013a0a60002a00f09180524a136a4d
:10283000c3f3c04394f8201063f3000184f8201020
:10284000136ac3f38043c9b263f3410184f82010d3
:10285000136ac3f34043c9b263f3820184f82010c2
:10286000136ac3f30043c9b263f3c30184f82010b1
:10287000136ac3f3c033c9b263f3041184f82010a0
:10288000116ac1f3803194f8203061f3451384f864
:102890002030dbb23371003318bf012384f82330ba
:1028a000136ac3f3405384f82130344a917863f3b8
:1028b00082019170344f01f06ffd2b7813f0010ffe
:1028c0007ff401af2b7813f0020f7ff426af2b7843
:1028d00013f0040f7ff427af2b7813f0080fead022
:1028e00023f008032b704ff4c051012001f01cfeaf
:1028f00001f0ccfe01f02afe0028fbd001f062ffbf
:102900006061707053287ff72faf8a287ff760af20
:10291000bf28b4bf0322002227e7012168e7022174
:1029200066e7174b04221a606fe7144bda7861f3fd
:102930000712da70124b04221a6066e7114b042169
:1029400019600e4bd97862f34101d9706ee784f8b3
:1029500024300a4ad17863f34101d170094b042233
:102960001a6063e7d5400000500b00208c0a00205d
:10297000580b00208180808000800041280b0020bf
:102980007c0b0020780b0020680b0020740b0020cb
:020000040000fa
:1029900008b5012001f0b2fc0021012001f0a4fae9
:1029a000834b1b78002b42d0824b93f8233013b11a
:1029b000814b19221a607f4b93f8203013f0020fdd
:1029c0000cd113f0010f12d07a4b5a6840f6c313a2
:1029d0009a4207dd032000f009fd03e0754b5b68b8
:1029e000002b00dd08bd032000f000fdfae7032006
:1029f00000f0fcfc704b1b68002b6ad16d4b93f808
:102a00002330002b75d06d4b3c221a60694b93f834
:102a1000203013f0200f77d0664bdb68002be1dd10
:102a2000072000f0e3fc664b01221a70dae7654be1
:102a30001b782bb35f4b93f8233013b15e4b1922f5
:102a40001a605c4b93f8203013f0080f0cd113f090
:102a5000040f11d0574b9a6840f2db539a42c1dd04
:102a6000062000f0c3fcbde7524b9b68002bb9dc8d
:102a7000062000f0bbfcb5e7062000f0b7fcb9e784
:102a80004f4b1b78002bb5d04a4b93f8233013b132
:102a9000494b19221a60474b93f8203013f0200f4e
:102aa0000bd113f0100f10d0424bdb68b3f5fa6f67
:102ab00098db092000f09afc94e73e4bdb68002b82
:102ac00090dc092000f092fc8ce7092000f08efcdd
:102ad00090e7013b384a1360002b83d1002000f0bf
:102ae00085fc0023324a1370364a1370344a13703f
:102af00078e7002000f07afc304b1b68002b7ff455
:102b000071af01f079fc6de713f0100f0cd0294b79
:102b1000db68b3f5fa6fbff665af294b01221a7077
:102b2000082000f063fc5de713f0080f0bd0214b89
:102b30009b68002b7ff756af042000f057fc214b19
:102b400001221a704ee713f0040f0dd0194b9a684a
:102b500040f2db539a423ff745af052000f046fcb8
:102b6000184b01221a703de713f0020f0bd0114be6
:102b70005b68002b7ff736af022000f037fc0c4b70
:102b800001221a702ee713f0010f0dd0094b5a687d
:102b900040f6c3139a423ff725af012000f026fc10
:102ba000034b01221a701de7002000f01ffc19e7fb
:102bb000510b00208c0a00203c0b0020340b00201d
:082bc000530b0020520b002012
:020000040000fa
:102bc80008b5784b1b7c012b0ad0002001f092fb42
:102bd8000021084601f084f9002000f003fc08bd3c
:102be800012001f087fb0021084601f079f96e4bbe
:102bf80093f8233053b96b4b5b69062b00f2ce80f8
:102c0800dfe803f00a12304b7192aa000020654bee
:102c1800187400f0e7fbe2e7002001f08df9614a43
:102c2800536901335361dae75f4bdb68c82b11dd69
:102c3800c3f1c80383eae370a0ebe37000ebd07044
:102c48000221401001f01cfa01f076f9072000f08b
:102c5800c9fbc4e7092000f0c5fb524a5369013398
:102c68005361bce7504b5868b0f5166f0ddac0f5e4
:102c7800166000210028b8bf404201f001fa01f0b7
:102c88005bf9012000f0aefba9e7032000f0aafbe6
:102c9800444a536901335361a1e7434b9b6840f2af
:102ca800db52934217dcc3f5bb630433002bb8bf78
:102cb8005b4203eb83035b003c4880fb0320db178c
:102cc8000021c3ebe00001f0dbf901f035f9052044
:102cd80000f088fb83e7062000f084fb314a536943
:102ce800013353617be7304b9b68002b14dd002bcd
:102cf800b8bf5b4203eb83035b002c4880fb0320d7
:102d0800db170021c3ebe00001f0baf901f014f978
:102d1800042000f067fb62e7062000f063fb214a0d
:102d28005369013353615ae71f4b586800280bdd7c
:102d380000210028b8bf404201f0a2f901f0fcf8d8
:102d4800022000f04ffb4ae7032000f04bfb154a36
:102d580053690133536142e7134bdb68b3f5fa6fec
:102d680014dac3f5fa6383eae370a0ebe37000ebcf
:102d7800d0700021401001f083f901f0ddf8072040
:102d880000f030fb082000f02dfb28e7092000f0b8
:102d980029fb044a53690133536120e7014b0022a0
:102da8005a611ce7100a00208c0a00201f85eb518d
:020000040000fa
:102db80038b5012001f09efa644b1b7e2bb1012b24
:102dc80004d0022b38d0032b7dd038bd604b0022b5
:102dd8001a605e4b1b7b43b101f0c8fc002000f079
:102de80001fb5a4b00221a76efe7584b1c6a594be5
:102df8005b68e41a84eae475a5ebe47500212846cb
:102e080001f03ef901f098f8012d06dd002cb4bf61
:102e18000220012000f0e6fad7e7032000f0e2faea
:102e28004c4b5868c0f30721c0b201f065fc474b12
:102e380000221a76da61c8e7454b00221a60434b34
:102e48001b7b43b101f092fc002000f0cbfa3f4b12
:102e580000221a76b9e73d4b5d6a3e4b9b68ed1a36
:102e680085eae574a4ebe57404eb840464003a4b4a
:102e780083fb0423e0170021c0ebe30001f000f915
:102e880001f05af8312c06dd002dccbf05200420b6
:102e980000f0a8fa99e7062000f0a4fa2d4b9b68e9
:102ea80003eb83035b002c4a82fb0312d817c0eba9
:102eb800e200c0f30721c0b201f01efc234b002240
:102ec8001a76da6181e7214b1b7b43b101f04efc96
:102ed800002000f087fa1d4b00221a7675e71b4b7d
:102ee8009c6a1c4bdb68e41a84eae475a5ebe4757c
:102ef80005ebd570164b1968401001f0c1f801f0c8
:102f08001bf8032d08dd002c18db114b00221a607a
:102f1800082000f067fa58e7092000f063fa0d4b23
:102f2800d86800ebd070c0f34721c0f3470001f028
:102f3800e3fb064b00221a76da6146e7044b0222cd
:102f48001a60072000f04efa3fe700bf100a002081
:0c2f5800400b00208c0a00201f85eb516c
:020000040000fa
:102f640038b50c461546092800f2b780dfe800f0b2
:102f7400050b121920274e759ca95a4b01221a736e
:102f840001f0f6fb38bd01f035fa0021084601f0e6
:102f9400b5fbf7e701f094f90021084601f0aefb18
:102fa400f0e701f071f90021084601f0a7fbe9e719
:102fb40001f0bcf90021084601f0a0fbe2e701ebb7
:102fc400022000f0e7ff05281cd8dfe800f0030822
:102fd4000b0f13172946204601f090fbd2e701f0ae
:102fe40083fbcfe7022001f0bbfbcbe7032001f01a
:102ff400b7fbc7e7032001f0b3fbc3e7012001f0ef
:10300400affbbfe7052001f0abfbbbe701eb022000
:1030140000f008fe05281cd8dfe800f003080b0fb9
:1030240013172946204601f069fbabe701f05cfb6e
:10303400a8e7022001f094fba4e7032001f090fb31
:10304400a0e7032001f08cfb9ce7012001f088fb42
:1030540098e7052001f084fb94e701eb022000f0df
:10306400b9fe05281cd8dfe800f003080b0f13177e
:103074002946204601f042fb84e701f035fb81e755
:10308400022001f06dfb7de7032001f069fb79e785
:10309400032001f065fb75e7012001f061fb71e796
:1030a400052001f05dfb6de7084601f0fff918b952
:1030b400032001f055fb65e70021084601f01efbe3
:1030c40060e701f0ddf918b9032001f049fb59e785
:1030d4000021084601f012fb54e7042001f040fbf4
:0830e40050e700bf100a0020b4
:020000040000fa
:1030ec002de9f04784b04ff084431c6d14f0007f41
:1030fc001cbf4ff000721a6514f0010f62d04ff034
:10310c00844301221a655a6d22f001025a65d3f8e4
:10311c00a43013f07f0f55d04ff08443d3f8a45054
:10312c00c5f305252b014a4ad268d718d15811f09e
:10313c00804fd15805eb8500464e56f8200014bf41
:10314c0021f06041c1f38a410160d2587b6813f4cd
:10315c00001f02d112f0005f71d105eb85033d4acf
:10316c0002eb83031b6900221a707e683a4b0fcb6b
:10317c000df1100c0ce90f00c6f30346664416f86b
:10318c0010ac344e4fea850808eb050906eb8909ab
:10319c00524607f10801d9f8040001f057fad9f8a2
:1031ac00083083f800a0d9f80c300bb17a681a807b
:1031bc004ff08443c3f8a850284b1b6813b1274a1f
:1031cc005068984714f4007f20d04ff084434ff49c
:1031dc0000721a655a6d22f400725a65d3f8d82021
:1031ec00d3f8e03013f0010f0ad012f0010f07d022
:1031fc004ff08442d2f8e03023f00103c2f8e03003
:10320c00164b9b6913b1154ad069984714f4006f9b
:10321c0012d04ff084424ff400631365d2f8c430df
:10322c00c3f30423d2f8c420c2f30442934203d262
:10323c000133dbb29a42fbd104b0bde8f08705eb59
:10324c008503044a02eb83031b6901221a708ce785
:10325c003c0a0020640a002094470000d40a002095
:020000040000fa
:10326c00f40a00201c00000000000000280b0020c5
:10327c000500000000000000580b002005000000b5
:10328c00010000000300000000000000600b0020a3
:10329c00050000000100000001000000000000001b
:1032ac00680b002005000000010000000200000077
:1032bc0000000000e00900203000000000000000c9
:1032cc00b40a0020200000000000000010000020c4
:1032dc0080090000000000002d0b002003000000fe
:1032ec00000000004c0b0020030000000000000058
:1032fc00700b0020040000000100000000000044de
:10330c00d40a002020000000000000003c0a00202d
:10331c0050000000000000004f0b002001000000d6
:10332c0000000000100b00200c000000000000004a
:10333c008c0a002028000000000000001c0b00205c
:10334c000c00000000000000500b002001000000e9
:10335c0000000000740b00200c00000001000000b5
:10336c00040000000400000004000000510b0020c9
:10337c000400000000000000300b002004000000de
:10338c0000000000550b00200100000000000000b0
:10339c00340b00201000000000000000100a002078
:1033ac002c00000000000000440b00200400000072
:1033bc0000000000900900205000000000000000f8
:1033cc00480b00200400000000000000000000007a
:1033dc000000000066666666666666666666666619
:020000040000fa
:1033ec00554b1870092800f2a580dfe800f0050b9a
:1033fc001d2f3e5062718395504b4ff40042c3f821
:10340c00942070474d4b4ff40042c3f89820012292
:10341c00c3f898200222c3f898204ff480729a6166
:10342c000422c3f894207047444b4ff40042c3f875
:10343c0098200122c3f898200222c3f898204ff458
:10344c0080729a610422c3f8982070473b4b4ff46a
:10345c000042c3f898200122c3f898200222c3f836
:10346c0098204ff480725a617047344b4ff40042ed
:10347c00c3f898200122c3f898200222c3f89420a4
:10348c004ff480729a610422c3f8942070472b4b3e
:10349c004ff40042c3f898200122c3f8982002226e
:1034ac00c3f894204ff480729a610422c3f89820d8
:1034bc007047224b4ff40042c3f898200122c3f806
:1034cc0098200222c3f894204ff480725a617047fe
:1034dc001a4b4ff40042c3f898200122c3f89420f1
:1034ec000222c3f898204ff480729a610422c3f828
:1034fc0094207047114b4ff40042c3f898200122de
:10350c00c3f894200222c3f898204ff480729a6179
:10351c000422c3f898207047084b4ff40042c3f8bc
:10352c0098200122c3f894200222c3f898204ff46b
:10353c0080725a61704700bf100a00200080004161
:020000040000fa
:10354c00474b00221a7403f50063464a5a621a4626
:10355c00536813f0080ffbd1434b444a9a621a4646
:10356c00536813f0100ffbd13f4b414a1a631a46b4
:10357c00536813f0400ffbd13b4b4222c3f884201d
:10358c001a4600bfd2f8843013f0400ffad0394bf2
:10359c0000229a6377225a631a46d36b13f0040ff6
:1035ac00fbd1344b022283f830201a46d36b13f034
:1035bc00020ffbd12f4a136c03f00303032bfad138
:1035cc002d4b01225a711a46d37813f0010ffbd000
:1035dc00254b2a4a1a621a46536813f0040ffbd182
:1035ec00214b4122c3f8e4201a4600bfd2f8e43044
:1035fc0013f0400ffad01c4b4422c3f8ec201a46af
:10360c00d2f8ec3013f0400ffad0174b4122c3f82c
:10361c00f4201a46d2f8f43013f0400ffad0124bc3
:10362c004122c3f820211a46d2f8203113f0400f62
:10363c00fad00d4b4122c3f824211a46d2f824317a
:10364c0013f0400ffad00c4b6ff07f421a6140f22e
:10365c00ff725a610a4a9a614ff4c0721a6270473b
:10366c000014004006010100001c0040060130005f
:10367c000601020000100040000800400701010094
:04368c00568801005b
:020000040000fa
:1036900010b54ff4c051052000f06aff01f00ef89c
:1036a00000f078ff0028fbd001f092f832383b4b55
:1036b000586020eae0703a4b5870001298704ff44e
:1036c000c051062000f054ff00f0f8ff00f062ff48
:1036d0000028fbd001f07cf83238304b986020eaab
:1036e000e0702f4bd870001218714ff4c0510720b2
:1036f00000f03eff00f0e2ff00f04cff0028fbd09e
:1037000001f066f83238254bd86020eae070254b8e
:10371000587000129870244b9b68032b05d8dfe883
:1037200003f00213161900f0bffa204b1b78a3b95f
:103730001f4b1b6ac3f38023184a53701d4a9178ac
:1037400063f30001917010bdfff722f9ede7fff779
:1037500033fbeae7fff738fae7e70020134b18706e
:10376000154b1b68104ca360124a537060612074a3
:10377000e0612076014600f0b7fba368012b05d07d
:10378000022bd5d10020fff731fed1e70020fff753
:103790002dfe0a4b3c221a60cae700bf8c0a0020ab
:1037a000600b0020680b0020100a0020550b002041
:1037b00000800041280b0020300b0020340b00203b
:020000040000fa
:1037c0002de9f84f8b46924698469df828709df853
:1037d0002c609df830503f4bd3f800903e4c207049
:1037e000012363703d4800f04ff9a770e670257122
:1037f0000223e372002323736373a373a371e37142
:103800002372637284f82fb384f850a6b8f1000fc6
:1038100003d009f00f03012b13d02f4b002283f8a4
:1038200071292d4a0d9bc2f874394ff00053c2f82c
:1038300078391b78112b2cd0274b002283f87c2958
:103840003fe0c9f30219b9f1010fe6d184f871899b
:1038500000f0b0ff0028fbd1214b1968d1f8fc33f0
:10386000b3f15a3f09d01f4b03eb8808002200bf79
:1038700043f8042b4345fbd1d3e70b46194a01eb30
:10388000880800bf53f8041b42f8041b4345f9d1d4
:10389000c7e74ff000535b78822bcdd14ff0005338
:1038a0009b78132bc8d14ff00053db78842bc3d106
:1038b000094b012283f87c294ff00053df711e72ff
:1038c0005d72054b002283f87d2900f0a7fcbde85e
:1038d000f88f00bf0440800010000020e0090020a5
:0838e000700b002061060020be
:020000040000fa
:1038e80070b4394b394a1a60012083f84200072224
:1038f80083f8432083f8440083f8450083f84600a2
:1039080083f84700402283f8482083f849200221a1
:1039180083f84a1083f84b10412483f84c4083f80d
:103928004d2083f84e1083f84f1083f8501083f819
:10393800511083f8521083f85310062483f854402a
:10394800442483f8554083f8560083f8570083f8d9
:103958005b10112583f8315083f8325083f83350c7
:10396800052683f83660882683f83b60184ec3f82e
:10397800806083f8c04083f8c14083f8c24083f870
:10398800c31083f8c41083f8c62083f8c70083f8ef
:10399800c80083f8c90083f8ca2083f8cb2083f8cd
:1039a800cc2083f8cd2083f8ce2083f8cf2083f86d
:1039b800d62083f8d74083f8df20102283f8b3207d
:1039c80083f8b45070bc704700800041f0132000a9
:0439d80007f0c080b4
:020000040000fa
:1039dc00f8b59df818c0bcf1010f01d90020f8bd55
:1039ec004ff08443d3f8c43013f4001f3fd14ff091
:1039fc008443d3f8c440c4f3044426011d4b9f698f
:103a0c00bd19b0f5006f26bf20f0604040f080403b
:103a1c008004b8510b46082928bf08231804686095
:103a2c001cf0fd0f1ed111461a4605f1080000f0de
:103a3c000dfe114a13780133dbb213706a6842ea47
:103a4c00036343f400036b60012000fa04f44ff0ad
:103a5c008443c3f8e040c3f8d0405a6d42f400727e
:103a6c005a65bce7bb5943f00053bb51e1e700205a
:0c3a7c00b5e700bf3c0a00204f0b002003
:020000040000fa
:103a880038b504463022002100f054fe4ff084433c
:103a980001229a611a46936913f0010ffbd04ff087
:103aa80084439a6942f002029a611749cc60a2b233
:103ab80042f0004242f48032c3f8a02004f1100220
:103ac8008a6192b242f08072c3f8c02004f12002e9
:103ad800ca6192b242f48032c3f8f02004f128029d
:103ae8000a620a4d03cda062e16292b242f400324a
:103af800c3f884209a6922f001029a611a469369f0
:103b080013f0010ffbd138bd3c0a0020e847000044
:020000040000fa
:103b180008b51b4b98471b4b9847eff3108172b6bb
:103b2800194ad2f8883043f47003c2f88830bff3da
:103b38004f8fbff36f8f01b962b6144c20236360b7
:103b480000f00cfc124b23f07f030f4a9360114bdb
:103b58009847a36823f00103a3602346da6812f0ac
:103b6800010ffbd1094b5a6842f004025a60012246
:103b78009a60094b9847094b9847fef785fdfee781
:103b8800fb470000fb47000000ed00e0006000413b
:103b980000200000353e0000fb470000fb47000006
:020000040000fa
:103ba80038b54ff0844301229a611a46936913f09d
:103bb800010ffbd04ff084439a6942f002029a61e8
:103bc800144ada612b22c3f8802001221a629a690a
:103bd80022f001029a611a46936913f0010ffbd192
:103be8004ff0844300249c650122da654ff000728f
:103bf8005a65094d2c606c60ac6028222146074844
:103c080000f098fdec602c616c61ac61ec612c6299
:103c18006c6238bd000502003c0a0020640a0020de
:020000040000fa
:103c2800b0f52f7f2bdc1b4b9b6803eb83035b00fa
:103c3800194a82fb0312db17c3ebe2031a1f824205
:103c480002dc043383421cda144b9b68022b1ad122
:103c5800104b5b78cbb1114b1b7ec3b90f4a00ebfd
:103c6800800000eb8000a3f1993383fb0013c01799
:103c7800c0eba30050620223137601207047022094
:103c880070470020704703207047042070470520c4
:103c9800704700bf8c0a00201f85eb51100a0020d6
:020000040000fa
:103ca80008b5002000f026fb0021084600f018f9ae
:103cb8000020fff797fb144b1b78dbb1134b4ff435
:103cc8008002c3f89820124b93f823304bb1114a65
:103cd800136801331360802b02dd0b4b01221a702d
:103ce80008bd0a4bc3f89420074b00221a7000f055
:103cf8001bfbf5e7064b93f82330002be7d1054b68
:103d080000221a60ece700bf540b0020008000413d
:083d18008c0a0020380b00208a
:020000040000fa
:103d2000154b01221a801a46136b13f0010ffbd1b9
:103d30004ff080131b689a0c02f07002d90a01f44c
:103d4000e061c3f302430a431a430b4ba3f8482034
:103d50004ff480721a803f22da7203221a724ff4f3
:103d6000c0529a801822da80072283f82e201a4641
:0c3d7000136b002bfcd1704700200043b7
:020000040000fa
:103d7c00154b01221a801a46136b13f0010ffbd15d
:103d8c004ff080131b681a0902f07002d90001f47d
:103d9c00e061c3f382030a431a430b4ba3f8482098
:103dac004ff480721a803f22da7203221a724ff497
:103dbc00c0529a800022da80072283f82e201a46fd
:0c3dcc00136b002bfcd17047001c00435f
:020000040000fa
:103dd80040f2465398421bdc124bdb6803ebd3736b
:103de8005b101a1f824202dc0433834212da0e4b44
:103df8009b68022b10d10b4b5b787bb10a4b1b7e67
:103e080073b9094b4000986203221a760120704763
:103e18000220704700207047032070470420704735
:0c3e2800052070478c0a0020100a0020c2
:020000040000fa
:103e34000e4a38b5002313600d4a0e4c13600e4a27
:103e44000e4d13600e4a13600e4a13600e4a5362fd
:103e540013610123936000f0cffc00f0cdfcac4271
:103e640000d338bd54f8043b9847f8e7480b0020ca
:103e74009c0900206c220000980900207022000098
:0c3e84009009002094090020a0090020f3
:020000040000fa
:103e9000124b93f87d3903b97047104b002283f819
:103ea0007d29d3f8782901211170d3f878290221ce
:103eb0005170d3f8782903219170d3f8783904220e
:103ec000da70bff34f8f0649ca6802f4e062054b0f
:103ed0001343cb60bff34f8f00bffde710000020fe
:083ee00000ed00e00400fa050a
:020000040000fa
:103ee80010b4c0b1114b4ff400129a61104b01226b
:103ef80083f821200f4b0e4a987892f8214064f3fa
:103f08008200987082f82210da7861f30002da7081
:103f18005df8044b7047054a4ff400115161044a9b
:103f2800002182f821100146e4e700bf008000412b
:083f38008c0a0020280b002078
:020000040000fa
:103f4000072828bf0720c0f10700c0b2104b5860f7
:103f500010f0010f0f4b4ff4805214bfc3f898209c
:103f6000c3f8942010f0020f0a4b4ff4005214bf14
:103f7000c3f89820c3f8942010f0040f054b4ff4b9
:103f8000804214bfc3f89820c3f89420704700bf44
:083f9000100a0020008000412e
:020000040000fa
:103f980040f61423984216dc104b5b681a1f8242c5
:103fa80002dc0433834210da0d4b9b68022b0ed1de
:103fb8000a4b5b786bb10a4b1b7e63b9084b1862de
:103fc80001201876704702207047002070470320b0
:103fd8007047042070470520704700bf8c0a0020f6
:043fe800100a00209b
:020000040000fa
:103fec00114b01221a601a46936813f0010ffbd192
:103ffc000d4b4ff480621a600221596158690b4acb
:10400c0002435a61d96342f210725a6400229a64d4
:10401c00da641a655a659a6596221a641a46936888
:10402c00002bfcd1704700bf00600141000f4040e5
:020000040000fa
:10403c00f0b59df81440ecb94ff0844cdcf8a4506a
:10404c00c5f305250c4cae007719bf0004eb070e29
:10405c00e051cef80420cef80810cef80c30069bb8
:10406c00cef81030dcf8543043f00103ccf8543067
:0c407c00012000e00020f0bd640a0020dc
:020000040000fa
:10408800b0f57a7f11dcb0f5fa7f14dcb0f5c87fa3
:1040980013dcb0f5967f12dcc82812dc642812dc29
:1040a8003228d4bf0020012000e007208842b8bf92
:1040b8000846c0b270470620f8e70520f6e7042056
:0a40c800f4e70320f2e70220f0e71e
:020000040000fa
:0240d200704735
:020000040000fa
:1040d40010f0010f04d00f4a137843f00203137059
:1040e40010f0020f04d00b4a137843f0040313704a
:1040f40010f0100f04d0074a137843f0080313702c
:1041040010f0800f04d0034a137843f001031370b6
:08411400704700bf500b0020b2
:020000040000fa
:10411c000f4b01221a801a46136913f0010ffbd1c1
:10412c000b4b4ff401421a8000221a621a46136993
:10413c0013f0200ffbd1064b00225a621a4613696a
:10414c0013f0400ffbd1024b93225a81704700bff2
:04415c0000240040fb
:020000040000fa
:1041600010b5054c227832b9044b13b10448aff3b3
:1041700000800123237010bdf40a0020000000001d
:104180000000000008b5034b1bb103490348aff31f
:10419000008008bd00000000f80a002000000000b8
:020000040000fa
:1041a0000d4ad36823f4e0631b041b0c43f0bf6388
:1041b00043f40033d360bff35f8f62b6074be02256
:1041c00083f80b234ff40061196083f84e234ff4fa
:1041d00080429a60704700bf00ed00e000e100e01f
:020000040000fa
:1041e0004ff08443586c20f4605020f018004004d5
:1041f000400c9b6913f0010f0ed04ff084439a6975
:1042000042f002029a619a6922f001029a611a460a
:0a421000936913f0010ffbd1704712
:020000040000fa
:02421a00fee7bd
:020000040000fa
:10421c0000b583b000221146084800f009fa08489e
:10422c00084b01930023009300f10e03021d00f1d3
:10423c000c01fff7fdfe03b05df804fb55420000d6
:08424c00b40a00202e0b002033
:020000040000fa
:1042540008b5fff7c3ff10f0070001d0072809d104
:10426400064b1b68b3f5a07f2cbf054b054b012201
:104274001a7008bdfff7d0fffbe700bfb40a0020a7
:084284004e0b00204c0b002042
:020000040000fa
:10428c000a4b9b68032b0fd0094b1b781bb1094bb6
:10429c001b68032b08d0064b01221a70054b032216
:1042ac001a60024b00221a73704700bf100a0020dc
:0842bc00550b0020300b00201f
:020000040000fa
:1042c4000a4b9b68022b0fd0094b1b781bb1094b7f
:1042d4001b68022b08d0064b01221a70054b0222e0
:1042e4001a60024b00221a73704700bf100a0020a4
:0842f400550b0020300b0020e7
:020000040000fa
:1042fc00014658b1084b4ff400729a61074b197084
:10430c00074b9a7861f341029a707047024b4ff455
:10431c0000725a61f2e700bf008000418c0a002055
:04432c00280b00203a
:020000040000fa
:10433000094b9b68012b0ed0084b1b781bb1084b17
:104340001b68012b07d00123044a1370044a136031
:10435000014b00221a737047100a0020550b0020f1
:04436000300b0020fe
:020000040000fa
:1043640070b50a480a4d4ff6ff76016811b94368e3
:1043740003b970bd83684268334000f10c0455f8fa
:1043840023302046984704eb8000eee76c320000af
:0443940028470000b6
:020000040000fa
:1043980008b5074800f044f8064800f041f8064818
:1043a80000f03ef8054800f03bf8fdf765ff08bd52
:1043b800280b0020600b0020680b0020580b002001
:020000040000fa
:1043c80038b5094d0024ac60084b5c702046fff7f7
:1043d80009f82046fff7b0fd2046fff78bff2c7346
:1043e8002c742c7638bd00bf100a0020280b002042
:020000040000fa
:1043f800084b9b686bb1084b1b7813b1074b1b68c4
:104408003bb1054b01221a700023044a1360014a8c
:1044180013737047100a0020550b0020300b002042
:020000040000fa
:1044280010b5044642780021007800f0d3f8a2784d
:104438000121207800f0cef8e2780221207800f0ff
:0e444800c9f822790321207800f0c4f810bdd5
:020000040000fa
:1044560008b500f0a4f9fff744fafff774f8fff780
:1044660035fefff7c0fdfff786fcfff756fcfff7aa
:0c44760098fbfff750fefff790fe08bd1a
:020000040000fa
:02448200fee753
:020000040000fa
:10448400094b9b68032b0dd1074b1b7c2bb9064ba7
:1044940000225a61012018747047034b00221a74d9
:0c44a4000120704700207047100a002023
:020000040000fa
:1044b00008b528b1084b9b68022b07d0002008bd27
:1044c00000210846fff710fd0120f8e7012108460a
:0c44d000fff70afd0120f2e7100a0020af
:020000040000fa
:1044dc0008b5074a908980b2064b58604cf2ff3100
:1044ec0091811b6813b1034a9168984708bd00bfbe
:0844fc0000240040100b002019
:020000040000fa
:1045040000b585b0064b0393012202920023019368
:10451400009204211520fff751f905b05df804fb62
:04452400652f0000ff
:020000040000fa
:10452800074a93889bb223f4f85323f01f030143ef
:104538000b439380136b13f0040ffbd1704700bf3c
:04454800002000430c
:020000040000fa
:10454c00074b93f82e3003f00103002b14bf01200e
:10455c00002003d0024b012283f82e20704700bfad
:04456c0000200043e8
:020000040000fa
:10457000074a93889bb223f4f85323f01f030143a7
:104580000b439380136b13f0040ffbd1704700bff4
:04459000001c0043c8
:020000040000fa
:10459400074b93f82e3003f00103002b14bf0120c6
:1045a400002003d0024b012283f82e20704700bf65
:0445b400001c0043a4
:020000040000fa
:1045b80008b5064b4ff40002c3f89820044b0022bc
:1045c8001a725a60186000f015f808bd00800041a2
:0445d8001c0b002098
:020000040000fa
:1045dc00064b93f82f33834206d9032904d8034b97
:1045ec0003eb80000844c273704700bf100000202a
:020000040000fa
:1045fc00064b1b6b13f0800f05d120f07f40034b53
:10460c00d866012070470020704700bf0060014150
:020000040000fa
:10461c0010b50023934206d113f0030018bf0120fc
:0e462c0000eb930010bdc45ccc540133f2e7e8
:020000040000fa
:02463a00fee799
:020000040000fa
:10463c0010b428b1044b43f8320003ebc2035960a9
:0c464c005df8044b704700bfd40a00204a
:020000040000fa
:104658005ab110b40a44431e11f8014b03f8014f34
:0c4668009142f9d15df8044b7047704797
:020000040000fa
:10467400044a138843f002031380136b002bfcd10c
:08468400704700bf0020004355
:020000040000fa
:10468c00044a137d43f002031375136b13f4006f8c
:08469c00fbd170470020004330
:020000040000fa
:1046a400044a138843f002031380136b002bfcd1dc
:0846b400704700bf001c004329
:020000040000fa
:1046bc00044a137d43f002031375136b13f4006f5c
:0846cc00fbd17047001c004304
:020000040000fa
:1046d400044a138843f002031380136913f0020f92
:0846e400fbd1704700240040e7
:020000040000fa
:1046ec00034b0122da7200221a735a739a737047c1
:0446fc00100000208a
:020000040000fa
:10470000034b0222da721873597300229a737047ae
:044710001000002075
:020000040000fa
:10471400034b1b6813b1013b014a1360704700bf90
:04472400340b002032
:020000040000fa
:10472800514700001d460000f1470000f147000016
:04473800f147000045
:020000040000fa
:10473c0032b1c9b20244034603f8011b9342fbd1c8
:04474c00704700bff3
:020000040000fa
:104750000a440023914201d10020704701f8013b37
:02476000f8e778
:020000040000fa
:02476200fee770
:020000040000fa
:10476400024b0322da729873704700bf10000020d6
:020000040000fa
:10477400024b0322da7206229a737047100000205b
:020000040000fa
:1047840010b1024b9861d961704700bfd40a002070
:020000040000fa
:104794000001020304050607080c10141820304019
:020000040000fa
:1047a400024b40f204521a80704700bf004000419f
:020000040000fa
:1047b400024bd86ac0f38000704700bf004000413c
:020000040000fa
:0c47c400014bb3f8400070470020004398
:020000040000fa
:0c47d000014bb3f840007047001c004390
:020000040000fa
:0c47dc00014b186099607047100b002022
:020000040000fa
:0847e8005501550915011509e1
:020000040000fa
:0447f00000207047ee
:020000040000fa
:0247f400fee7de
:020000040000fa
:0247f600fee7dc
:020000040000fa
:0247f800fee7da
:020000040000fa
:0247fa00704706
:020000040000fa
:0247fc00704704
:020000040000fa
:0200000400807a
:044000003912003c35
:020000040000fa
:0200000400807a
:044004009100a82a55
:020000040000fa
:0200000400807a
:04400800ffffffffb8
:00000001FF
