:020000040000fa
:10200000f8ff0320f5370000634300008b44000015
:102010001b4500001d4500001f450000000000009a
:102020000000000000000000000000000b40000065
:1020300019450000000000000b4000000b400000ac
:102040000b4000000b4000000b4000000b40000064
:102050000b4000000b4000000b4000000b40000054
:102060000b4000000b4000000b400000cd41000081
:102070000b4000000b4000000b4000000b40000034
:102080000b4000000b4000000b4000000b40000024
:102090000b4000000b4000000b4000000b40000014
:1020a0000b4000000b4000000b4000000b40000004
:1020b0000b4000000b4000000b4000000b400000f4
:1020c0000b4000000b4000000b4000000b400000e4
:1020d0000b4000000b4000000b4000000b400000d4
:1020e0000b4000000b40000000000000000000005a
:1020f000000000000b4000000b4000000b400000ff
:102100000b4000000b4000000b4000000b400000a3
:102110000b4000000b4000000b4000000b40000093
:102120000b4000000b4000000b4000000b40000083
:102130000b4000000b4000000b4000000b40000073
:102140000b4000000b4000000b4000000b40000063
:102150000b4000000b4000000000000000000000e9
:10216000000000000000000000000000000000006f
:1021700000000000000000006d2c00000b4000007b
:102180000b4000000b4000000b4000000b40000023
:10219000000000000b4000000b4000000b4000005e
:1021a0000b4000000b4000000b4000000b40000003
:1021b0000b4000000b4000000b4000000b400000f3
:1021c0000b4000000b4000000b4000000b400000e3
:1021d0000b4000000b4000000b4000000b400000d3
:1021e0000b4000000b4000000b4000000b400000c3
:1021f0000b4000000b4000000b4000000b400000b3
:102200000b40000000000000000000000b40000038
:102210000b4000000b4000000b4000000b40000092
:102220000b4000000b4000000b4000000b40000082
:102230000b4000000b4000000b4000000b40000072
:102240000b4000000b4000000b4000000b40000062
:102250000b4000000b4000000b4000000b40000052
:020000040000fa
:10226000f8b500bff8bc08bc9e467047353f00007b
:10227000f8b500bff8bc08bc9e467047113f00008f
:020000040000fa
:1022800070b582b09f4b1b78a3b99f4b1b78002b76
:1022900040f08f819d4b1b78002b40f091819c4b2f
:1022a0001b78002b00f08a81994b00221a7001f0f4
:1022b000adfe83e1934b00221a70964b1b7b082bdb
:1022c00005d1944c221d04f10c05002103e001f01e
:1022d0009dfe73e1194612f8010b80ea0103dbb29f
:1022e000aa42f7d1884223d18a4b1b798a4a1278b5
:1022f0009a4220d0884a1370864b03f114020433ab
:1023000093e8030082e80300844b5b78b3b9814b08
:102310005b79013b092b50d8dfe813f049006800d6
:1023200072007b009400ab00c500dc002e000801a9
:1023300001f06cfe42e101f069fe3fe10021774bc4
:102340005970a2f114030b225a75143304f11b02c5
:1023500013f8010b41409342fad16e4ad1766f4b8c
:102360001878002300931432082100f5a07001f0c2
:1023700059f901f04bfe21e1684b93f871397bb1bb
:10238000674a0023674ea2f2516500bf52f8040b62
:10239000316841f82300013395f871198b42f5db60
:1023a000604b1b684ff05a32c3f8fc2305e05b4bcf
:1023b000d3f80220574bc3f817205b4b04f11b02e4
:1023c000002100bf13f8010b41409342fad1514a5a
:1023d000d176524b1878002300931432082100f56f
:1023e000a07001f01ff901f011fee7e04b4bd3f8ac
:1023f0000610484ac2f8171000229a71da71dce719
:10240000444a464b53f80a1fc2f816101b799376bc
:10241000d3e7404b9b79414a92f82f239a4209d93e
:1024200002333e4a02eb8303d3f80720394bc3f84b
:102430001720c2e7374b00225a7504229a750122f1
:10244000da75bae7334b9b79344a92f850269a42b0
:1024500007d9cc33314a52f823202e4bc3f817202a
:10246000abe72c4b00225a7505229a750122da75ca
:10247000a3e7284b9b79294a92f871299a420ad9f5
:1024800003f5ca73254a02eb8303d3f80120214bdd
:10249000c3f8172091e71f4b00225a7506229a7540
:1024a0000122da7589e71b4b9b791c4a92f850266a
:1024b0009a4207d9cc33174ad2f81710174a42f874
:1024c00023107ae7134b00225a7507229a750122ce
:1024d000da7572e70f4b9b79104a92f871299a428c
:1024e00008d90c4ad2f817100c4a02eb8303c3f840
:1024f000511662e7074b00225a7508229a7501228d
:10250000da755ae7230b0020220b0020210b002054
:102510001b0b0020a00a0020190b00201000002037
:1025200061060020540b0020b40a0020524bd3f85f
:1025300074692eb3514b987928b14f4bdb7a012b3c
:102540002ed04d4b98724c4d0423eb7200232b730d
:102550006b734a498b7a00934b7a0a7ac979b047f0
:10256000eb7a032b03d90322ea720522aa73434aaa
:10257000414b53f80a1fc2f816101b7993761ce7db
:102580003e4a917999720321d972002119735973c6
:1025900004219973d3f80a30c2f8163091760ce70b
:1025a000364b0322da7500221a765a7601229a7681
:1025b00003e7334b00221a7001f028fd02b070bd12
:1025c000304b00221a702d4b1b7b082b1bd12a4b42
:1025d00000225a70294b03f11402191d03c982e825
:1025e00003001b79012b11d0022b2fd0224b18781e
:1025f00000230093244a082100f5807001f012f8ae
:1026000001f004fddae701f001fdd7e71a4b93f87a
:102610007c3973b9194b00225a759a75da751a7696
:10262000164b154a91785976d17899761279da76df
:10263000dce7124b02225a750f4ad2f87829117939
:1026400099755179d97592791a76e9e70a4b93f819
:102650007c393bb9094bff221a7502225a750022b8
:102660009a75c3e7044b012283f87d2900210748ae
:1026700001f01cffbae700bf10000020a00a0020f4
:10268000220b0020210b0020b40a0020393d00005d
:020000040000fa
:1026900008b581494ff400738b61804b01221a7099
:1026a0004ff4001088619a777d4b1b788bb97d4b76
:1026b0001b78002b2fd17c4b1b78002b4dd17b4bf3
:1026c0001b68002b75d0013b784a1360002b65d046
:1026d00008bd01f011fa10b1744b19221a606f4b4a
:1026e0005b7e63b96d4b1b7e8bb16c4bda6840f639
:1026f000c3139a42ecdd032000f02efce8e7674ba1
:10270000db68002be4dc032000f026fce0e703207c
:1027100000f022fcd3e701f0eff910b1634b19226e
:102720001a605e4bdb7e63b95c4b9b7e8bb15b4b6f
:102730001a6940f2db539a42cadd062000f00cfc15
:10274000c6e7564b1b69002bc2dc062000f004fcd8
:10275000bee7062000f000fcb1e701f0cdf910b1b2
:10276000524b19221a604d4b5b7f5bb94b4b1b7f61
:1027700083b14a4b5b69b3f5fa6fa9db092000f01e
:10278000ebfba5e7454b5b69002ba1dc092000f0c2
:10279000e3fb9de7092000f0dffb90e7002000f05d
:1027a000dbfb00233e4a13703e4a13703e4a13700f
:1027b0008ee701f0a1f980b13d4b3c221a60374b06
:1027c0005b7fa3b1354b5b69002b81dd072000f0f7
:1027d000c3fb354b01221a707ae700f0bdfb344b86
:1027e0001b68002b7ff474af01f07cfd70e72b4b6e
:1027f0001b7f63b1294b5b69b3f5fa6fbff668af16
:10280000294b01221a70082000f0a6fb60e7234b39
:10281000db7e5bb1214b1b69002b7ff759af042096
:1028200000f09afb1f4b01221a7051e71b4b9b7e55
:102830006bb11a4b1a6940f2db539a423ff748af2b
:10284000052000f089fb174b01221a7040e7134b5b
:102850005b7e5bb1114bdb68002b7ff739af022049
:1028600000f07afb0e4b01221a7031e70b4b1b7ef6
:102870006bb10a4bda6840f6c3139a423ff728afb0
:10288000012000f069fb064b01221a7020e70020ae
:1028900000f062fb1ce700bf00800041e00900205f
:1028a0003e0b00203f0b0020400b00202c0b002093
:0428b000240b0020d5
:020000040000fa
:1028b40008b57d4b93f82030012b0dd07b4a4ff4a3
:1028c40000735361784b002018704ff4001151616c
:1028d400987700f03ffb08bd744a4ff4007393618e
:1028e400714b012119704ff40011516100229a7744
:1028f40001f000f950b96c4b5b6a062b00f2cf80f3
:10290400dfe803f00b13314c7293ab000020664bed
:1029140083f8200000f01efbdde7002001f036fa0a
:10292400614a536a01335362d5e75f4b5b69c82b35
:1029340011ddc3f1c80383eae370a0ebe37000eb9d
:10294400d0700221401001f099fa01f01ffa07201b
:1029540000f000fbbfe7092000f0fcfa524a536a7a
:1029640001335362b7e7504bd868b0f5166f0ddaf0
:10297400c0f5166000210028b8bf404201f07efa7d
:1029840001f004fa012000f0e5faa4e7032000f0c6
:10299400e1fa454a536a013353629ce7424b1b698f
:1029a40040f2db52934217dcc3f5bb630433002bc4
:1029b400b8bf5b4203eb83035b003d4880fb03200d
:1029c400db170021c3ebe00001f058fa01f0def957
:1029d400052000f0bffa7ee7062000f0bbfa324a79
:1029e400536a0133536276e72f4b1b69002b14ddc6
:1029f400002bb8bf5b4203eb83035b002c4880fbd6
:102a04000320db170021c3ebe00001f037fa01f0eb
:102a1400bdf9042000f09efa5de7062000f09afa62
:102a2400214a536a0133536255e71f4bd868002883
:102a34000bdd00210028b8bf404201f01ffa01f06d
:102a4400a5f9022000f086fa45e7032000f082fa97
:102a5400154a536a013353623de7134b5b69b3f57f
:102a6400fa6f14dac3f5fa6383eae370a0ebe37058
:102a740000ebd0700021401001f000fa01f086f95b
:102a8400072000f067fa082000f064fa23e7092021
:102a940000f060fa044a536a013353621be7024ba5
:102aa40000225a6217e700bfe009002000800041bd
:042ab4001f85eb513e
:020000040000fa
:102ab80038b5684b4ff400729a61674b01221a705f
:102ac80093f828302bb1934204d0022b38d0032b33
:102ad8007dd038bd614b00221a605f4bdb7f4bb164
:102ae80001f0d8fc002000f033fa5b4b002283f899
:102af8002820eee7584b1c6bdb68e41a84eae4757f
:102b0800a5ebe4750021284601f0b6f901f03cf97f
:102b1800012d06dd002cb4bf0220012000f018fab8
:102b2800d7e7032000f014fa4b4ce068c0f3072104
:102b3800c0b201f075fc002384f82830e362c8e7ce
:102b4800464b00221a60444bdb7f4bb101f0a2fcdc
:102b5800002000f0fdf9404b002283f82820b8e758
:102b68003d4b5d6b1b69ed1a85eae574a4ebe574d2
:102b780004eb840464003a4b83fb0423e017002130
:102b8800c0ebe30001f078f901f0fef8312c06dd26
:102b9800002dccbf0520042000f0daf999e70620c3
:102ba80000f0d6f92c4c236903eb83035b002c4a15
:102bb80082fb0312d817c0ebe200c0f30721c0b2b2
:102bc80001f02efc002384f82830e36281e7224bd1
:102bd800db7f4bb101f05efc002000f0b9f91e4b21
:102be800002283f8282074e71b4b9c6b5b69e41a6e
:102bf80084eae475a5ebe47505ebd570174b196805
:102c0800401001f039f901f0bff8032d08dd002c60
:102c180018db124b00221a60082000f099f958e7d7
:102c2800092000f095f90c4c606900ebd070c0f3f6
:102c38004721c0f3470001f0f3fb002384f8283054
:102c4800e36246e7054b02221a60072000f080f98c
:102c58003fe700bf00800041e0090020300b002062
:042c68001f85eb5188
:020000040000fa
:102c6c002de9f04784b04ff084431c6d14f0007fc5
:102c7c001cbf4ff000721a6514f0010f62d04ff0b8
:102c8c00844301221a655a6d22f001025a65d3f869
:102c9c00a43013f07f0f55d04ff08443d3f8a450d9
:102cac00c5f305252b014a4ad268d718d15811f023
:102cbc00804fd15805eb8500464e56f8200014bfc6
:102ccc0021f06041c1f38a410160d2587b6813f452
:102cdc00001f02d112f0005f71d105eb85033d4a54
:102cec0002eb83031b6900221a707e683a4b0fcbf0
:102cfc000df1100c0ce90f00c6f30346664416f8f0
:102d0c0010ac344e4fea850808eb050906eb89092f
:102d1c00524607f10801d9f8040001f02bfbd9f851
:102d2c00083083f800a0d9f80c300bb17a681a80ff
:102d3c004ff08443c3f8a850284b1b6813b1274aa3
:102d4c005068984714f4007f20d04ff084434ff420
:102d5c0000721a655a6d22f400725a65d3f8d820a5
:102d6c00d3f8e03013f0010f0ad012f0010f07d0a6
:102d7c004ff08442d2f8e03023f00103c2f8e03087
:102d8c00164b9b6913b1154ad069984714f4006f20
:102d9c0012d04ff084424ff400631365d2f8c43064
:102dac00c3f30423d2f8c420c2f30442934203d2e7
:102dbc000133dbb29a42fbd104b0bde8f08705ebde
:102dcc008503044a02eb83031b6901221a708ce70a
:102ddc00500a0020780a0020bc440000c00a0020e1
:020000040000fa
:102dec0038b50c461546082800f2aa80dfe800f03a
:102dfc00050b121920274e759c00534b0122da77d4
:102e0c0001f046fb38bd01f067fa0021084601f0dd
:102e1c0005fbf7e701f070fa0021084601f0fefa15
:102e2c00f0e701f049fa0021084601f0f7fae9e76a
:102e3c0001f072fa0021084601f0f0fae2e701eb2a
:102e4c00022000f017ff05281cd8dfe800f003086b
:102e5c000b0f13172946204601f0e0fad2e701f0d8
:102e6c00d3facfe7022001f00bfbcbe7032001f0f4
:102e7c0007fbc7e7032001f003fbc3e7012001f0c8
:102e8c00fffabfe7052001f0fbfabbe701eb0220dc
:102e9c0000f0f2fc05281cd8dfe800f003080b0f4b
:102eac0013172946204601f0b9faabe701f0acfa4a
:102ebc00a8e7022001f0e4faa4e7032001f0e0fa0d
:102ecc00a0e7032001f0dcfa9ce7012001f0d8fa1e
:102edc0098e7052001f0d4fa94e701eb022000f00a
:102eec0039fe05281cd8dfe800f003080b0f131778
:102efc002946204601f092fa84e701f085fa81e731
:102f0c00022001f0bdfa7de7032001f0b9fa79e760
:102f1c00032001f0b5fa75e7012001f0b1fa71e771
:102f2c00052001f0adfa6de701f0bef818b90320e9
:102f3c0001f0a6fa66e70021084601f06ffa61e796
:0c2f4c00042001f09dfa5de7e009002080
:020000040000fa
:102f5800554bd870092800f2a580dfe800f0050b72
:102f68001d2f3e5062718395504b4ff40042c3f8b9
:102f7800942070474d4b4ff40042c3f8982001222b
:102f8800c3f898200222c3f898204ff480729a61ff
:102f98000422c3f894207047444b4ff40042c3f80e
:102fa80098200122c3f898200222c3f898204ff4f1
:102fb80080729a610422c3f8982070473b4b4ff403
:102fc8000042c3f898200122c3f898200222c3f8cf
:102fd80098204ff480725a617047344b4ff4004286
:102fe800c3f898200122c3f898200222c3f894203d
:102ff8004ff480729a610422c3f8942070472b4bd7
:103008004ff40042c3f898200122c3f89820022206
:10301800c3f894204ff480729a610422c3f8982070
:103028007047224b4ff40042c3f898200122c3f89e
:1030380098200222c3f894204ff480725a61704796
:103048001a4b4ff40042c3f898200122c3f8942089
:103058000222c3f898204ff480729a610422c3f8c0
:1030680094207047114b4ff40042c3f89820012276
:10307800c3f894200222c3f898204ff480729a6112
:103088000422c3f898207047084b4ff40042c3f855
:1030980098200122c3f894200222c3f898204ff404
:1030a80080725a61704700bfe0090020008000412b
:020000040000fa
:1030b800474b00221a7403f50063464a5a621a46bf
:1030c800536813f0080ffbd1434b444a9a621a46df
:1030d800536813f0100ffbd13f4b414a1a631a464d
:1030e800536813f0400ffbd13b4b4222c3f88420b6
:1030f8001a4600bfd2f8843013f0400ffad0394b8b
:1031080000229a6377225a631a46d36b13f0040f8e
:10311800fbd1344b022283f830201a46d36b13f0cc
:10312800020ffbd12f4a136c03f00303032bfad1d0
:103138002d4b01225a711a46d37813f0010ffbd098
:10314800254b2a4a1a621a46536813f0040ffbd11a
:10315800214b4122c3f8e4201a4600bfd2f8e430dc
:1031680013f0400ffad01c4b4422c3f8ec201a4647
:10317800d2f8ec3013f0400ffad0174b4122c3f8c5
:10318800f4201a46d2f8f43013f0400ffad0124b5c
:103198004122c3f820211a46d2f8203113f0400ffb
:1031a800fad00d4b4122c3f824211a46d2f8243113
:1031b80013f0400ffad00c4b6ff07f421a6140f2c7
:1031c800ff725a610a4a9a614ff4c0721a627047d4
:1031d8000014004006010100001c004006013000f8
:1031e800060102000010004000080040070101002d
:0431f80056880100f4
:020000040000fa
:1031fc00e00a00201c00000000000000140b00205e
:10320c0005000000000000001c0b00200500000061
:10321c0000000000440b002005000000010000002d
:10322c0001000000000000004c0b00200500000015
:10323c00010000000200000000000000200a002035
:10324c003000000000000000a00a00202000000058
:10325c0000000000100000208009000000000000a9
:10326c00190b00200300000000000000210b0020bf
:10327c000300000000000000540b002004000000bc
:10328c000100000000000044c00a002020000000e3
:10329c0000000000500a0020500000000000000058
:1032ac003c0b00200100000000000000fc0a002084
:1032bc0018000000000000003d0b0020050000007d
:1032cc00000000001c0a00200400000000000000a8
:1032dc00420b00200100000000000000240b002025
:1032ec001000000000000000e00900203c0000007d
:1032fc0000000000340b002004000000000000005f
:10330c00900900205000000000000000380b002045
:10331c00040000000000000000000000000000009d
:020000040000fa
:10332c002de9f84f8b46924698469df828709df8eb
:10333c002c609df830503f4bd3f800903e4c2070e1
:10334c00012363703d4800f007faa770e670257101
:10335c000223e372002323736373a373a371e371da
:10336c002372637284f82fb384f850a6b8f1000f5f
:10337c0003d009f00f03012b13d02f4b002283f83d
:10338c0071292d4a0d9bc2f874394ff00053c2f8c5
:10339c0078391b78112b2cd0274b002283f87c29f1
:1033ac003fe0c9f30219b9f1010fe6d184f8718934
:1033bc0001f08ef80028fbd1214b1968d1f8fc33b1
:1033cc00b3f15a3f09d01f4b03eb8808002200bf12
:1033dc0043f8042b4345fbd1d3e70b46194a01ebc9
:1033ec00880800bf53f8041b42f8041b4345f9d16d
:1033fc00c7e74ff000535b78822bcdd14ff00053d1
:10340c009b78132bc8d14ff00053db78842bc3d19e
:10341c00094b012283f87c294ff00053df711e7297
:10342c005d72054b002283f87d2900f0e9fdbde8b3
:10343c00f88f00bf0440800010000020200a0020fc
:08344c00540b00206106002072
:020000040000fa
:1034540070b4394b394a1a60012083f842000722bc
:1034640083f8432083f8440083f8450083f846003a
:1034740083f84700402283f8482083f8492002213a
:1034840083f84a1083f84b10412483f84c4083f8a6
:103494004d2083f84e1083f84f1083f8501083f8b2
:1034a400511083f8521083f85310062483f85440c3
:1034b400442483f8554083f8560083f8570083f872
:1034c4005b10112583f8315083f8325083f8335060
:1034d400052683f83660882683f83b60184ec3f8c7
:1034e400806083f8c04083f8c14083f8c24083f809
:1034f400c31083f8c41083f8c62083f8c70083f888
:10350400c80083f8c90083f8ca2083f8cb2083f865
:10351400cc2083f8cd2083f8ce2083f8cf2083f805
:10352400d62083f8d74083f8df20102283f8b32015
:1035340083f8b45070bc704700800041f013200041
:0435440007f0c0804c
:020000040000fa
:1035480008b54ff4c051052000f062fe00f02effd0
:1035580000f070fe0028fbd000f0c4ff32382b4b7f
:10356800d8604ff4c051062000f052fe00f01eff54
:1035780000f060fe0028fbd000f0b4ff3238234b87
:1035880018614ff4c051072000f042fe00f00eff12
:1035980000f050fe0028fbd000f0a4ff1b4b32388f
:1035a80058619b68032b05d8dfe803f0021b1e2136
:1035b80000f026fa164b1b7883b10022144b1a70c0
:1035c800144b1968114b99605a6283f82020da620b
:1035d80083f8282001290dd0022912d000f0d2f951
:1035e80008bdfff751f8e5e7fff762fae2e7fff7f2
:1035f8005df9dfe71046fff7abfc074b3c221a608a
:10360800ece70020fff7a4fce8e700bfe009002092
:0c361800420b00201c0a0020240b0020a4
:020000040000fa
:10362400f8b59df818c0bcf1010f01d90020f8bd10
:103634004ff08443d3f8c43013f4001f3fd14ff04c
:103644008443d3f8c440c4f3044426011d4b9f694a
:10365400bd19b0f5006f26bf20f0604040f08040f7
:103664008004b8510b46082928bf08231804686051
:103674001cf0fd0f1ed111461a4605f1080000f09a
:103684007dfe114a13780133dbb213706a6842ea93
:10369400036343f400036b60012000fa04f44ff069
:1036a4008443c3f8e040c3f8d0405a6d42f400723a
:1036b4005a65bce7bb5943f00053bb51e1e7002016
:0c36c400b5e700bf500a00203c0b0020be
:020000040000fa
:1036d00008b5002000f050fd00211e4800f00cff4e
:1036e00000f074fe00f086fd00f058fe00f050fc83
:1036f000962000f0b5fd184c184d194e00f002ff51
:10370000237813f0010f0bd1237813f0020f1ad195
:10371000237813f0040ff1d023f004032370ede7b6
:1037200023f00103237000f089fe284600f00dfd10
:103730006878a97800f0010000f0a4f94ff0004388
:10374000c6f89c30e0e723f002032370fff7fcfe8d
:10375000dee700bf7d4000003d0b0020140b002081
:0437600000800041a4
:020000040000fa
:1037640038b504463022002100f07afe4ff084433d
:1037740001229a611a46936913f0010ffbd04ff0ae
:1037840084439a6942f002029a611749cc60a2b25a
:1037940042f0004242f48032c3f8a02004f1100247
:1037a4008a6192b242f08072c3f8c02004f1200210
:1037b400ca6192b242f48032c3f8f02004f12802c4
:1037c4000a620a4d03cda062e16292b242f4003271
:1037d400c3f884209a6922f001029a611a46936917
:1037e40013f0010ffbd138bd500a00200c45000036
:020000040000fa
:1037f40008b51b4b98471b4b9847eff3108172b6e3
:10380400194ad2f8883043f47003c2f88830bff301
:103814004f8fbff36f8f01b962b6144c20236360de
:1038240000f060fc124b23f07f030f4a9360114bae
:103834009847a36823f00103a3602346da6812f0d3
:10384400010ffbd1094b5a6842f004025a6001226d
:103854009a60094b9847094b9847fff737fffee7f3
:10386400214500002145000000ed00e0006000411a
:1038740000200000dd3c000021450000214500003f
:020000040000fa
:10388400b0f52f7f2fdc1d4b1b6903eb83035b001b
:103894001b4a82fb0312db17c3ebe2031a1f8242ab
:1038a40002dc0433834220da144b9b68022b1ed1c2
:1038b400144b1b6ac3f38023104a5370cbb192f8a4
:1038c4002830c3b900eb800000eb8000a3f19933ea
:1038d40083fb0013c017c0eba3005063022382f8dc
:1038e40028300120704702207047002070470320d1
:1038f4007047042070470520704700bfe00900208e
:083904001f85eb51008000411a
:020000040000fa
:10390c0038b54ff0844301229a611a46936913f03b
:10391c00010ffbd04ff084439a6942f002029a6186
:10392c00144ada612b22c3f8802001221a629a69a8
:10393c0022f001029a611a46936913f0010ffbd130
:10394c004ff0844300249c650122da654ff000722d
:10395c005a65094d2c606c60ac60282221460748e2
:10396c0000f07afdec602c616c61ac61ec612c6256
:10397c006c6238bd00050200500a0020780a002055
:020000040000fa
:10398c0010b51948194ca36843708378227862f3f8
:10399c000003a27f62f341038370154a136a9b0aea
:1039ac00817863f382018170136adb0acab263f314
:1039bc00c302827000f0acfbe36823eae3730d4aa8
:1039cc0053701b129370236923eae373d3701b1299
:1039dc001371636923eae373074843701b12837006
:1039ec0000f096fb10bd00bf1c0b0020e00900206e
:0c39fc0000800041440b00204c0b002018
:020000040000fa
:103a080008b51a4a4ff400735361194b0020187017
:103a18004ff4001151619877fff79afa154b1b780c
:103a28003bb1124b4ff48002c3f8982000f060f8c5
:103a380060b100f05df8a0b10f4a1368013313605c
:103a4800802b02dd0b4b01221a7008bd074b4ff487
:103a58008002c3f89420074b00221a7000f05efc25
:103a6800f3e7054b00221a60efe700bf0080004132
:0c3a7800e0090020410b0020280b00207a
:020000040000fa
:103a840008b5184b1b7a83421fd0164b1872596025
:103a940000b3154b4ff40002c3f8942003f56043c0
:103aa4001b6b13f4803f0dd10e4b1b6803fb01f11c
:103ab4000e4b83fb0123c917c1eb631121f07f4136
:103ac4000b4b196700f08cfc08bd064b5b688b42fe
:103ad400dbd1f9e7044b4ff40002c3f8982000f05f
:103ae4008bfcf1e7080b0020008000411f85eb519f
:043af400006001412c
:020000040000fa
:103af800174a116a174b81f40021c1f3c0411976a6
:103b0800116a81f48021c1f380415976116a81f4e8
:103b18000031c1f340419976116a81f48031c1f3d3
:103b28000041d976116a81f40041c1f3c031197797
:103b3800126a82f48042c2f380325a779b692bb9a9
:103b4800044b988b003018bf012070470120704744
:083b580000800041e00900209b
:020000040000fa
:103b600040f24653984220dc154b5b6903ebd3735c
:103b70005b101a1f824202dc0433834217da104bb7
:103b80009b68022b15d10f4b1b6ac3f380230c4a91
:103b9000537083b192f828307bb91346400090638c
:103ba000032283f82820012070470220704700205c
:103bb000704703207047042070470520704700bffe
:083bc000e00900200080004133
:020000040000fa
:103bc800154b01221a801a46136b13f0010ffbd113
:103bd8004ff080131b689a0c02f07002d90a01f4a6
:103be800e061c3f302430a431a430b4ba3f848208e
:103bf8004ff480721a803f22da7203221a724ff44d
:103c0800c0529a800222da80072283f82e201a46b0
:0c3c1800136b002bfcd170470020004310
:020000040000fa
:103c2400154b01221a801a46136b13f0010ffbd1b6
:103c34004ff080131b681a0902f07002d90001f4d6
:103c4400e061c3f382030a431a430b4ba3f84820f1
:103c54004ff480721a803f22da7203221a724ff4f0
:103c6400c0529a800022da80072283f82e201a4656
:0c3c7400136b002bfcd17047001c0043b8
:020000040000fa
:103c800040f6142398421adc124bdb681a1f82425a
:103c900002dc0433834214da0e4b9b68022b12d1f0
:103ca0000d4b1b6ac3f380230a4a53706bb192f821
:103cb000283063b91063012082f828007047022081
:103cc000704700207047032070470420704705208c
:0c3cd000704700bfe009002000800041a8
:020000040000fa
:103cdc000e4a38b5002313600d4a0e4c13600e4a81
:103cec000e4d13600e4a13600e4a13600e4a536257
:103cfc0013610123936000f00efc00f00cfcac424d
:103d0c0000d338bd54f8043b9847f8e7380b002033
:103d1c009c0900206c2200009809002070220000f1
:0c3d2c009009002094090020a00900204c
:020000040000fa
:103d3800124b93f87d3903b97047104b002283f872
:103d48007d29d3f8782901211170d3f87829022127
:103d58005170d3f8782903219170d3f87839042267
:103d6800da70bff34f8f0649ca6802f4e062054b68
:103d78001343cb60bff34f8f00bffde71000002057
:083d880000ed00e00400fa0563
:020000040000fa
:103d9000072828bf0720c0f10700c0b2104b1871d8
:103da00010f0010f0f4b4ff4805214bfc3f898204e
:103db000c3f8942010f0020f0a4b4ff4005214bfc6
:103dc000c3f89820c3f8942010f0040f054b4ff46b
:103dd000804214bfc3f89820c3f89420704700bff6
:083de000e00900200080004111
:020000040000fa
:103de800f0b59df81440ecb94ff0844cdcf8a450c1
:103df800c5f305250c4cae007719bf0004eb070e80
:103e0800e051cef80420cef80810cef80c30069b0e
:103e1800cef81030dcf8543043f00103ccf85430bd
:0c3e2800012000e00020f0bd780a00201e
:020000040000fa
:103e3400104b01221a601a46936813f0010ffbd14c
:103e44000c4b4ff4e0621a600221596158690a4a26
:103e540002435a61d96342f21071596400229a6490
:103e6400da641a655a659a6519641a469368002bd0
:0c3e7400fcd1704700600141000f40408d
:020000040000fa
:103e8000b0f57a7f11dcb0f5fa7f14dcb0f5c87fad
:103e900013dcb0f5967f12dcc82812dc642812dc33
:103ea0003228d4bf0020012000e007208842b8bf9c
:103eb0000846c0b270470620f8e70520f6e7042060
:0a3ec000f4e70320f2e70220f0e728
:020000040000fa
:023eca0070473f
:020000040000fa
:103ecc000f4b01221a801a46136913f0010ffbd114
:103edc000b4b4ff401421a8000221a621a461369e6
:103eec0013f0200ffbd1064b00225a621a461369bd
:103efc0013f0400ffbd1024b83225a81704700bf55
:043f0c00002400404d
:020000040000fa
:103f100010b5054c227832b9044b13b10448aff305
:103f200000800123237010bde00a00200000000083
:103f30000000000008b5034b1bb103490348aff371
:103f4000008008bd00000000e40a0020000000001e
:020000040000fa
:103f50000d4ad36823f4e0631b041b0c43f0bf63da
:103f600043f40033d360bff35f8f62b6074be022a8
:103f700083f80b234ff40061196083f84e234ff44c
:103f800080429a60704700bf00ed00e000e100e071
:020000040000fa
:103f900038b50d4d0024ac602046fef7ddff20460d
:103fa000fff7f6fe094b4ff400725a612c704ff484
:103fb00000125a61ac77ec7785f8204085f82840ec
:103fc000fff7e4fc38bd00bfe0090020008000419d
:020000040000fa
:103fd0004ff08443586c20f4605020f018004004e7
:103fe000400c9b6913f0010f0ed04ff084439a6987
:103ff00042f002029a619a6922f001029a611a461d
:0a400000936913f0010ffbd1704724
:020000040000fa
:02400a00fee7cf
:020000040000fa
:10400c0000b583b000221146084800f0a5f9084815
:10401c00084b01930023009300f10e03021d00f1e5
:10402c000c01fff7dbfe03b05df804fb454000001c
:08403c00a00a00201a0b00206d
:020000040000fa
:1040440008b5fff7c3ff10f0070001d0072809d116
:10405400064b1b68b3f5a07f2cbf054b054b012213
:104064001a7008bdfff7d0fffbe700bfa00a0020cd
:08407400230b0020210b0020aa
:020000040000fa
:10407c0010f0010f04d00b4a137843f002031370b5
:10408c0010f0020f04d0074a137843f004031370a6
:10409c0010f0800f04d0034a137843f0010313701f
:0840ac00704700bf3d0b00202e
:020000040000fa
:1040b4000b4b9b68032b10d1094b93f8203033b979
:1040c400074b00225a62012083f820007047044bfa
:1040d400002283f82020012070470020704700bf91
:0440e400e0090020cf
:020000040000fa
:1040e80070b50a480a4d4ff6ff76016811b9436862
:1040f80003b970bd83684268334000f10c0455f879
:1041080023302046984704eb8000eee7fc3100009e
:04411800504400000f
:020000040000fa
:10411c0010b5044642780021007800f0adf8a27882
:10412c000121207800f0a8f8e2780221207800f034
:0e413c00a3f822790321207800f09ef810bd30
:020000040000fa
:10414a0010b504460021007800f027f860700121bc
:10415a00207800f022f8a0700221207800f01df8e3
:0e416a00e0700321207800f018f8207110bddd
:020000040000fa
:1041780008b500f0a7f9fff769f9fef799fffff70f
:10418800a0fefff753fefff749fdfff7bbfbfff764
:0c41980017fdfff797fefff7d7fe08bdec
:020000040000fa
:1041a400084b93f8503683420ad9032901d90020d9
:1041b4007047044b03eb8000084490f830037047c9
:0841c4000020704710000020ec
:020000040000fa
:1041cc0008b5074a908980b2064b58604cf2ff3113
:1041dc0091811b6813b1034a9168984708bd00bfd1
:0841ec0000240040fc0a002041
:020000040000fa
:1041f40000b585b0064b039301220292002301937c
:10420400009203211520fff78ff805b05df804fb39
:04421400ed2d00008c
:020000040000fa
:10421800074a93889bb223f4f85323f01f03014302
:104228000b439380136b13f0040ffbd1704700bf4f
:04423800001c004323
:020000040000fa
:10423c00074b93f82e3003f00103002b14bf012021
:10424c00002003d0024b012283f82e20704700bfc0
:04425c00001c0043ff
:020000040000fa
:1042600008b5064b4ff40002c3f89820044b002217
:104270001a725a60186000f015f808bd00800041fd
:04428000080b002007
:020000040000fa
:10428400064b93f82f33834206d9032904d8034bf2
:1042940003eb80000844c273704700bf1000002085
:020000040000fa
:1042a400064b1b6b13f0800f05d120f07f40034bae
:1042b400d866012070470020704700bf00600141ac
:020000040000fa
:1042c400044b01221a70044b03221a60034b002290
:1042d400da777047420b00201c0a0020e009002016
:020000040000fa
:1042e400044b01221a700023034a1360034ad37754
:1042f400704700bf420b00201c0a0020e009002088
:020000040000fa
:10430400044b01221a70044b02221a60034b002250
:10431400da777047420b00201c0a0020e0090020d5
:020000040000fa
:104324000123044a1370044a1360044b0022da7711
:10433400704700bf420b00201c0a0020e009002047
:020000040000fa
:1043440010b50023934206d113f0030018bf0120d7
:0e43540000eb930010bdc45ccc540133f2e7c3
:020000040000fa
:02436200fee774
:020000040000fa
:1043640010b428b1044b43f8320003ebc203596084
:0c4374005df8044b704700bfc00a002039
:020000040000fa
:104380005ab110b40a44431e11f8014b03f8014f0f
:0c4390009142f9d15df8044b7047704772
:020000040000fa
:10439c00044a138843f002031380136b002bfcd1e7
:0843ac00704700bf001c004334
:020000040000fa
:1043b400044a137d43f002031375136b13f4006f67
:0843c400fbd17047001c00430f
:020000040000fa
:1043cc00044a138843f002031380136913f0020f9d
:0843dc00fbd1704700240040f2
:020000040000fa
:1043e400044a136843f002031360936813f0020f46
:0843f400fbd17047006001419c
:020000040000fa
:1043fc00044a136823f002031360936813f0020f4e
:08440c00fbd170470060014183
:020000040000fa
:10441400034b0122da7200221a735a739a7370479b
:044424001000002064
:020000040000fa
:10442800034b0222da721873597300229a73704789
:044438001000002050
:020000040000fa
:10443c00034b1b6813b1013b014a1360704700bf6b
:04444c00240b00201d
:020000040000fa
:104450007944000045430000154500001545000063
:0444600015450000fe
:020000040000fa
:1044640032b1c9b20244034603f8011b9342fbd1a3
:04447400704700bfce
:020000040000fa
:104478000a440023914201d10020704701f8013b12
:02448800f8e753
:020000040000fa
:02448a00fee74b
:020000040000fa
:10448c00024b0322da729873704700bf10000020b1
:020000040000fa
:10449c00024b0322da7206229a7370471000002036
:020000040000fa
:1044ac0010b1024b9861d961704700bfc00a00205f
:020000040000fa
:1044bc000001020304050607080c101418203040f4
:020000040000fa
:1044cc00024b40f204521a80704700bf004000417a
:020000040000fa
:1044dc00024bd86ac0f38000704700bf0040004117
:020000040000fa
:0c44ec00014bb3f840007047001c004377
:020000040000fa
:0c44f800014b186099607047fc0a00201e
:020000040000fa
:0845040008b5fdf7bbfe08bd80
:020000040000fa
:08450c005501550915011509bf
:020000040000fa
:0445140000207047cc
:020000040000fa
:02451800fee7bc
:020000040000fa
:02451a00fee7ba
:020000040000fa
:02451c00fee7b8
:020000040000fa
:02451e00fee7b6
:020000040000fa
:024520007047e2
:020000040000fa
:024522007047e0
:020000040000fa
:0200000400807a
:044000003912003c35
:020000040000fa
:0200000400807a
:044004009100a82a55
:020000040000fa
:0200000400807a
:04400800ffffffffb8
:00000001FF
