:10000000F0FF0320C1050000630A0000650A00003C
:10001000690A00006B0A00006D0A00000000000081
:10002000000000000000000000000000610A000065
:10003000670A000000000000610A0000610A000079
:10004000610A0000610A0000610A0000610A000004
:10005000610A0000610A0000610A0000610A0000F4
:10006000610A0000610A0000610A00009D090000A9
:10007000610A0000610A0000610A0000610A0000D4
:10008000610A0000610A0000610A0000610A0000C4
:10009000610A0000610A0000610A0000610A0000B4
:1000A000610A0000610A0000610A0000610A0000A4
:1000B000610A0000610A0000610A0000610A000094
:1000C000610A0000610A0000610A0000610A000084
:1000D000610A0000610A0000610A0000610A000074
:1000E000610A0000610A000000000000000000003A
:1000F00000000000610A0000610A0000610A0000BF
:10010000610A0000610A0000610A0000610A000043
:10011000610A0000610A0000610A0000610A000033
:10012000610A0000610A0000610A0000610A000023
:10013000610A0000610A0000610A0000610A000013
:10014000610A0000610A0000610A0000610A000003
:10015000610A0000610A00000000000000000000C9
:10016000000000000000000000000000000000008F
:10017000000000000000000081020000610A000091
:10018000610A0000610A0000610A0000610A0000C3
:1001900000000000610A0000610A0000610A00001E
:1001A000610A0000610A0000610A0000610A0000A3
:1001B000610A0000610A0000610A0000610A000093
:1001C000610A0000610A0000610A0000610A000083
:1001D000610A0000610A0000610A0000610A000073
:1001E000610A0000610A0000610A0000610A000063
:1001F000610A0000610A0000610A0000610A000053
:10020000610A00000000000000000000610A000018
:10021000610A0000610A0000610A0000610A000032
:10022000610A0000610A0000610A0000610A000022
:10023000610A0000610A0000610A0000610A000012
:10024000610A0000610A0000610A0000610A000002
:10025000610A0000610A0000610A0000610A0000F2
:10026000F8B500BFF8BC08BC9E4670470D090000F9
:10027000F8B500BFF8BC08BC9E467047E90800000E
:100280002DE9F04784B04FF084431C6D14F0007FDB
:100290001CBF4FF000721A6514F0010F63D04FF0CD
:1002A000844301221A655A6D22F001025A65D3F87F
:1002B000A43013F07F0F56D04FF08443D3F8A450EE
:1002C000C5F305252B01854AD268D718D15811F0FE
:1002D000804FD15805EB8500814E56F8200014BFA1
:1002E00021F06041C1F38A410160D2587B6813F468
:1002F000001F03D112F0005F40F0E68005EB85039C
:10030000774A02EB83031B6900221A707E68754BE3
:100310000FCB0DF1100C0CE90F00C6F30346664439
:1003200016F810AC6E4E4FEA850808EB050906EB8F
:100330008909524607F10801D9F8040000F054FB7E
:10034000D9F8083083F800A0D9F80C300BB17A68DE
:100350001A804FF08443C3F8A850634B1B6813B155
:10036000614A5068984714F0100F67D04FF08443EB
:1003700010221A655A6D22F010025A65D3F8B43073
:1003800013F07F0F5AD04FF08443D3F8B450C5F325
:1003900005252B01514A1269D718D15811F0804F09
:1003A000D05805F1010101EB81014D4E56F8216055
:1003B00014BF20F06040C0F38A403060D2587B68A0
:1003C00013F4001F02D112F0005F74D105EB850316
:1003D000434A02EB83035B6A00221A707E68414B3A
:1003E0000FCB0DF1100C0CE90F00C6F30346664469
:1003F00016F8108C3A4E6B1C03EB830306EB830359
:10040000424607F10801586800F0EEFAAB005A19AD
:1004100006EB8202D26982F800802B4406EB830649
:10042000336A0BB17A681A804FF08443C3F8B8502E
:100430002D4B9B6813B12C4AD068984714F4007F69
:1004400020D04FF084434FF400721A655A6D22F4A5
:1004500000725A65D3F8D820D3F8E03013F0010FBA
:100460000AD012F0010F07D04FF08442D2F8E030EA
:1004700023F00103C2F8E0301B4B9B6913B11A4A09
:10048000D069984714F4006F12D04FF084424FF4B3
:1004900000631365D2F8C430C3F30423D2F8C42038
:1004A000C2F30442934203D20133DBB29A42FBD13E
:1004B00004B0BDE8F08705EB8503094A02EB83032E
:1004C0005B6A01221A7089E705EB8503044A02EB97
:1004D00083031B6901221A7018E700BF1000002077
:1004E00038000020300A0000600000202C4B002261
:1004F0001A7403F500632B4ADA621A46536813F044
:10050000200FFBD1284B01225A711A46D37813F0E1
:10051000010FFBD0254B264A1A621A46536813F086
:10052000040FFBD1214B234A5A621A46536813F039
:10053000080FFBD11D4B204A9A621A46536813F0EC
:10054000100FFBD1194B1B4A1A631A46536813F05C
:10055000400FFBD1154B4322C3F8A4201A46D2F812
:10056000A43013F0400FFAD0104B4422C3F8EC2013
:100570001A46D2F8EC3013F0400FFAD00B4B44225D
:10058000C3F8F0201A46D2F8F03013F0400FFAD03A
:10059000054B0A4A1A6144F2FF725A61704700BF64
:1005A000001400400401200000080040001C00402E
:1005B000060101000601020006013000FFFFFB00FA
:1005C00008B51B4B98471B4B9847EFF3108172B649
:1005D000194AD2F8883043F47003C2F88830BFF368
:1005E0004F8FBFF36F8F01B962B6144C2023636045
:1005F00000F072F8124B23F07F030F4A9360114B07
:100600009847A36823F00103A3602346DA6812F039
:10061000010FFBD1094B5A6842F004025A600122D3
:100620009A60094B9847094B984700F0EBF9FEE7B1
:100630006F0A00006F0A000000ED00E0006000415A
:10064000000000005D0800006F0A00006F0A000053
:1006500038B54FF0844301229A611A46936913F02A
:10066000010FFBD04FF084439A6942F002029A6175
:10067000164ADA612B22C3F8802001221A629A6995
:1006800022F4804222F0010242F480429A611A462A
:10069000936913F0010FFBD14FF0844300249C6554
:1006A0000122DA654FF000725A65094D2C606C60CA
:1006B000AC6028222146074800F0CAF9EC602C61A2
:1006C0006C61AC61EC612C626C6238BD00050200AB
:1006D00010000020380000201E4B1F4A9342F0B447
:1006E00038BF002103D203F8011B9342FBD11B4A00
:1006F000D2E9000150EA01034FF0000610D09468DF
:10070000034602F10C076CB921B1014403F8016BF7
:100710009942FBD13A46D2E9000150EA0103EED1F9
:10072000F0BC704759B101F10C030C38801A1A441F
:100730003B461C1813F8015B25709342F9D111F068
:10074000030318BF012303EB910107EB81073A462E
:10075000E1E700BF10000020100000200C0800009E
:100760004FF4005318684FF000531B78012B12D040
:10077000013018BF01204FF0005311221A7082225D
:100780005A7013229A708422DA7000221A710122A0
:100790005A719A7170474FF000535B78022BE7D182
:1007A0004FF000539B78032BE2D14FF00053DB78DE
:1007B000042BDDD10020DEE7134B05221A60022254
:1007C00083F84020012183F84210402283F843201F
:1007D00083F84B2083F84E2083F8532083F856107B
:1007E00083F8571083F83110882083F83B004FF0CE
:1007F0000040C3F8800083F8C42083F8D72083F832
:10080000DF1083F8BF207047008000418000002087
:100810001C0000000000000060000020200000001C
:100820000000000010000020280000000000000070
:100830003800002028000000000000009C0000207C
:100840000C00000000000000A800002004000000D0
:1008500000000000000000000000000070B50D4D19
:100860000D4C641BA4100026A64209D10B4D0C4C64
:10087000FFF7F6FC641BA4100026A64205D170BD4C
:1008800055F8043B98470136EEE755F8043B984786
:100890000136F2E76C0200006C0200006C020000FE
:1008A000700200000F4B01221A801A46136913F0E0
:1008B000010FFBD10B4B4FF401421A8000221A6248
:1008C0001A46136913F0200FFBD1064B00225A621F
:1008D0001A46136913F0400FFBD1024B83225A8151
:1008E000704700BF0024004010B5054C237833B991
:1008F000044B13B10448AFF300800123237010BDF3
:1009000080000020000000000000000008B5034B3C
:100910001BB103490348AFF3008008BD000000008D
:1009200084000020000000000D4AD36823F4E06337
:100930001B041B0C43F0BF6343F40033D360BFF3CD
:100940005F8F62B6074BE02283F80B234FF4006100
:10095000196083F84E234FF480429A60704700BFBD
:1009600000ED00E000E100E00B4B01221A601A46A6
:10097000136913F0010FFBD1074B4FF4C2621A60E9
:1009800001221A7302229A8333229A721A46136939
:10099000002BFCD1704700BF0038004008B5074A63
:1009A000908980B2064B58604CF2FF3191811B68F0
:1009B00013B1034A9168984708BD00BF0024004066
:1009C0009C00002008B500F03BF8FFF7F5FEFFF7AC
:1009D0008DFD00F02CF8FFF73BFEFFF763FFFFF7FC
:1009E000C3FFFFF7A1FF08BD0A44914200F1FF33A6
:1009F00000D1704710B511F8014B03F8014F914237
:100A0000F9D110BD08B50020FFF7DCFFFFF7A8FE05
:100A100000B9FEE700F001F8FBE74FF400531B6854
:100A200083F3088842F204031B6818477047704735
:100A30000001020304050607080C101418203040BA
:100A4000024B4FF482721A80704700BF0040004191
:100A500002440346934200D1704703F8011BF9E7B3
:100A6000FEE7FEE7FEE7FEE7FEE7FEE7FEE770478C
:10200000F8FF0320152E0000DF3500004F360000DA
:102010006B3600006D3600006F36000000000000D7
:102020000000000000000000000000005335000028
:1020300069360000000000005335000053350000F1
:102040005335000053350000533500005335000070
:102050005335000053350000533500005335000060
:102060005335000053350000533500000D35000096
:102070005335000053350000533500005335000040
:102080005335000053350000533500005335000030
:102090005335000053350000533500005335000020
:1020A0005335000053350000533500005335000010
:1020B0005335000053350000533500005335000000
:1020C00053350000533500005335000053350000F0
:1020D00053350000533500005335000053350000E0
:1020E00053350000533500000000000000000000E0
:1020F0000000000053350000533500005335000048
:1021000053350000533500005335000053350000AF
:10211000533500005335000053350000533500009F
:10212000533500005335000053350000533500008F
:10213000533500005335000053350000533500007F
:10214000533500005335000053350000533500006F
:10215000533500005335000000000000000000006F
:10216000000000000000000000000000000000006F
:102170000000000000000000912600005335000020
:10218000533500005335000053350000533500002F
:1021900000000000533500005335000053350000A7
:1021A000533500005335000053350000533500000F
:1021B00053350000533500005335000053350000FF
:1021C00053350000533500005335000053350000EF
:1021D00053350000533500005335000053350000DF
:1021E000533500005335000053350000DD33000047
:1021F00009340000B93400008D340000613400005F
:1022000035340000000000000000000053350000DD
:10221000533500005335000053350000533500009E
:10222000533500005335000053350000533500008E
:10223000533500005335000053350000533500007E
:10224000533500005335000053350000533500006E
:10225000533500005335000053350000533500005E
:10226000F8B500BFF8BC08BC9E4670474531000079
:10227000F8B500BFF8BC08BC9E467047213100008D
:1022800070B582B09F4B1B78A3B99F4B1B78002B76
:1022900040F08F819D4B1B78002B40F091819C4B2F
:1022A0001B78002B00F08A81994B00221A7001F0F4
:1022B0000BF883E1934B00221A70964B1B7B082B83
:1022C00005D1944C221D04F10C05002103E000F01F
:1022D000FBFF73E1194612F8010B80EA0103DBB240
:1022E000AA42F7D1884223D18A4B1B798A4A1278B5
:1022F0009A4220D0884A1370864B03F114020433AB
:1023000093E8030082E80300844B5B78B3B9814B08
:102310005B79013B092B50D8DFE813F049006800D6
:1023200072007B009400AB00C500DC002E000801A9
:1023300000F0CAFF42E100F0C7FF3FE10021774B08
:102340005970A2F114030B225A75143304F11B02C5
:1023500013F8010B41409342FAD16E4AD1766F4B8C
:102360001878002300931432082100F5A07000F0C3
:10237000B3FC00F0A9FF21E1684B93F871397BB100
:10238000674A0023674EA2F2516500BF52F8040B62
:10239000316841F82300013395F871198B42F5DB60
:1023A000604B1B684FF05A32C3F8FC2305E05B4BCF
:1023B000D3F80220574BC3F817205B4B04F11B02E4
:1023C000002100BF13F8010B41409342FAD1514A5A
:1023D000D176524B1878002300931432082100F56F
:1023E000A07000F079FC00F06FFFE7E04B4BD3F8F2
:1023F0000610484AC2F8171000229A71DA71DCE719
:10240000444A464B53F80A1FC2F816101B799376BC
:10241000D3E7404B9B79414A92F82F239A4209D93E
:1024200002333E4A02EB8303D3F80720394BC3F84B
:102430001720C2E7374B00225A7504229A750122F1
:10244000DA75BAE7334B9B79344A92F850269A42B0
:1024500007D9CC33314A52F823202E4BC3F817202A
:10246000ABE72C4B00225A7505229A750122DA75CA
:10247000A3E7284B9B79294A92F871299A420AD9F5
:1024800003F5CA73254A02EB8303D3F80120214BDD
:10249000C3F8172091E71F4B00225A7506229A7540
:1024A0000122DA7589E71B4B9B791C4A92F850266A
:1024B0009A4207D9CC33174AD2F81710174A42F874
:1024C00023107AE7134B00225A7507229A750122CE
:1024D000DA7572E70F4B9B79104A92F871299A428C
:1024E00008D90C4AD2F817100C4A02EB8303C3F840
:1024F000511662E7074B00225A7508229A7501228D
:10250000DA755AE7060B0020050B0020040B0020AB
:10251000030B0020600A0020010B002010000020A7
:10252000610600200C0B0020740A0020524BD3F8E7
:1025300074692EB3514B987928B14F4BDB7A012B3C
:102540002ED04D4B98724C4D0423EB7200232B730D
:102550006B734A498B7A00934B7A0A7AC979B047F0
:10256000EB7A032B03D90322EA720522AA73434AAA
:10257000414B53F80A1FC2F816101B7993761CE7DB
:102580003E4A917999720321D972002119735973C6
:1025900004219973D3F80A30C2F8163091760CE70B
:1025A000364B0322DA7500221A765A7601229A7681
:1025B00003E7334B00221A7000F086FE02B070BDB4
:1025C000304B00221A702D4B1B7B082B1BD12A4B42
:1025D00000225A70294B03F11402191D03C982E825
:1025E00003001B79012B11D0022B2FD0224B18781E
:1025F00000230093244A082100F5807000F06CFB52
:1026000000F062FEDAE700F05FFED7E71A4B93F8BE
:102610007C3973B9194B00225A759A75DA751A7696
:10262000164B154A91785976D17899761279DA76DF
:10263000DCE7124B02225A750F4AD2F87829117939
:1026400099755179D97592791A76E9E70A4B93F819
:102650007C393BB9094BFF221A7502225A750022B8
:102660009A75C3E7044B012283F87D2900210748AE
:1026700000F0C6FFBAE700BF10000020600A00208B
:10268000050B0020040B0020740A0020F52F000029
:102690002DE9F04784B04FF084431C6D14F0007FA7
:1026A0001CBF4FF000721A6514F0010F62D04FF09A
:1026B000844301221A655A6D22F001025A65D3F84B
:1026C000A43013F07F0F55D04FF08443D3F8A450BB
:1026D000C5F305252B014A4AD268D718D15811F005
:1026E000804FD15805EB8500464E56F8200014BFA8
:1026F00021F06041C1F38A410160D2587B6813F434
:10270000001F02D112F0005F71D105EB85033D4A35
:1027100002EB83031B6900221A707E683A4B0FCBD1
:102720000DF1100C0CE90F00C6F30346664416F8D1
:1027300010AC344E4FEA850808EB050906EB890911
:10274000524607F10801D9F8040000F011FFD9F84A
:10275000083083F800A0D9F80C300BB17A681A80E1
:102760004FF08443C3F8A850284B1B6813B1274A85
:102770005068984714F4007F20D04FF084434FF402
:1027800000721A655A6D22F400725A65D3F8D82087
:10279000D3F8E03013F0010F0AD012F0010F07D088
:1027A0004FF08442D2F8E03023F00103C2F8E03069
:1027B000164B9B6913B1154AD069984714F4006F02
:1027C00012D04FF084424FF400631365D2F8C43046
:1027D000C3F30423D2F8C420C2F30442934203D2C9
:1027E0000133DBB29A42FBD104B0BDE8F08705EBC0
:1027F0008503044A02EB83031B6901221A708CE7EC
:10280000100A0020380A002010360000800A00203C
:10281000474B00221A7403F50063464A5A621A466F
:10282000536813F0080FFBD1434B444A9A621A468F
:10283000536813F0100FFBD13F4B414A1A631A46FD
:10284000536813F0400FFBD13B4B4222C3F8842066
:102850001A4600BFD2F8843013F0400FFAD0394B3B
:1028600000229A6377225A631A46D36B13F0040F3F
:10287000FBD1344B022283F830201A46D36B13F07D
:10288000020FFBD12F4A136C03F00303032BFAD181
:102890002D4B01225A711A46D37813F0010FFBD049
:1028A000254B2A4A1A621A46536813F0040FFBD1CB
:1028B000214B4122C3F8A4201A4600BFD2F8A4300D
:1028C00013F0400FFAD01C4B4122C3F8E8201A46FF
:1028D000D2F8E83013F0400FFAD0174B4422C3F877
:1028E000EC201A46D2F8EC3013F0400FFAD0124B1D
:1028F0004122C3F8F4201A46D2F8F43013F0400F06
:10290000FAD00D4B4122C3F8F8201A46D2F8F8301D
:1029100013F0400FFAD00C4B6FF07F421A614CF26B
:10292000FF725A610A4A9A6142F26002DA617047A4
:102930000014004006010100001C004006013000A8
:1029400006010200001000400008004007010100DD
:1029500056E001002DE9F84F8B46924698469DF8C7
:1029600028709DF82C609DF830503F4BD3F80090B4
:102970003E4C2070012363703D4800F003FAA770BD
:10298000E67025710223E372002323736373A3733C
:10299000A371E3712372637284F82FB384F850A695
:1029A000B8F1000F03D009F00F03012B13D02F4B08
:1029B000002283F871292D4A0D9BC2F874394FF01B
:1029C0000053C2F878391B78112B2CD0274B0022EA
:1029D00083F87C293FE0C9F30219B9F1010FE6D170
:1029E00084F8718900F024FE0028FBD1214B19687E
:1029F000D1F8FC33B3F15A3F09D01F4B03EB8808E1
:102A0000002200BF43F8042B4345FBD1D3E70B461C
:102A1000194A01EB880800BF53F8041B42F8041B55
:102A20004345F9D1C7E74FF000535B78822BCDD1F6
:102A30004FF000539B78132BC8D14FF00053DB7835
:102A4000842BC3D1094B012283F87C294FF000531A
:102A5000DF711E725D72054B002283F87D2900F044
:102A600033FCBDE8F88F00BF044080001000002058
:102A7000E00900200C0B00206106002070B4374BE9
:102A8000374A1A60012083F84200072283F8432066
:102A900083F8440083F8450083F8460083F8470034
:102AA000402283F8482083F84920022183F84A1005
:102AB00083F84B1083F84C2083F84D2083F84E1098
:102AC00083F84F1083F8501083F8511083F8521098
:102AD00083F85310062483F85440442483F8554067
:102AE00083F8560083F8570083F85B10112583F8AC
:102AF000315083F8325083F83350882683F83B6096
:102B0000184EC3F8806083F8C04083F8C14083F852
:102B1000C24083F8C31083F8C41083F8C62083F83A
:102B2000C70083F8C80083F8C90083F8CA2083F877
:102B3000CB2083F8CC2083F8CD2083F8CE2083F8F7
:102B4000CF2083F8D62083F8D74083F8DF201022E7
:102B500083F8B32083F8B45070BC70470080004104
:102B6000F013200007F0C080A00A00201C00000025
:102B700000000000000B0020010000000000000029
:102B8000E00900203000000000000000600A002082
:102B9000200000000000000010000020800900005C
:102BA00000000000010B00200600000000000000F3
:102BB0000C0B002004000000010000000000004495
:102BC000800A00202000000000000000100A002001
:102BD0005000000000000000070B00200100000072
:102BE00000000000BC0A00203C00000000000000C3
:102BF000080B00200100000000000000F80A00207F
:102C000004000000000000009009002050000000B7
:102C100000000000FC0A002004000000000000008A
:102C2000000000000000000008B5002000F084FB58
:102C30000021264800F00CFD00F0A8FC00F052FC3A
:102C4000234B4FF48052C3F894204FF40051C3F843
:102C500098104FF48041C3F898104FF400715961F7
:102C60004FF4001159614FF40041C3F8981001214D
:102C7000C3F894100221C3F898104FF48071996141
:102C80000421C3F898104FF40001C3F898105A615A
:102C9000104C1E464FF0004500F0A2FC237813F0C4
:102CA000010F04D023F001032370C6F89C50237851
:102CB00013F0020F1CBF23F002032370237813F0DC
:102CC000040FE9D023F004032370E5E7713300001B
:102CD00000800041080B0020F8B59DF818C0BCF139
:102CE000010F01D90020F8BD4FF08443D3F8C43060
:102CF00013F4001F3FD14FF08443D3F8C440C4F312
:102D0000044426011D4B9F69BD19B0F5006F26BF15
:102D100020F0604040F080408004B8510B46082904
:102D200028BF0823180468601CF0FD0F1ED111464F
:102D30001A4605F1080000F01BFC114A1378013314
:102D4000DBB213706A6842EA036343F400036B600A
:102D5000012000FA04F44FF08443C3F8E040C3F8C4
:102D6000D0405A6D42F400725A65BCE7BB5943F03B
:102D70000053BB51E1E70020B5E700BF100A002077
:102D8000070B002038B504463022002100F014FC67
:102D90004FF0844301229A611A46936913F0010FA0
:102DA000FBD04FF084439A6942F002029A611749BE
:102DB000CC60A2B242F0004242F48032C3F8A020BC
:102DC00004F110028A6192B242F08072C3F8C0200E
:102DD00004F12002CA6192B242F48032C3F8F020BA
:102DE00004F128020A620A4D03CDA062E16292B2A8
:102DF00042F40032C3F884209A6922F001029A61F9
:102E00001A46936913F0010FFBD138BD100A002058
:102E10005C36000008B51B4B98471B4B9847EFF3F7
:102E2000108172B6194AD2F8883043F47003C2F8A0
:102E30008830BFF34F8FBFF36F8F01B962B6144C68
:102E40002023636000F0B0FA124B23F07F030F4A97
:102E50009360114B9847A36823F00103A3602346B6
:102E6000DA6812F0010FFBD1094B5A6842F00402F4
:102E70005A6001229A60094B9847094B9847FFF71F
:102E8000D3FEFEE7713600007136000000ED00E071
:102E90000060004100200000992F00007136000002
:102EA0007136000038B54FF0844301229A611A460A
:102EB000936913F0010FFBD04FF084439A6942F0FD
:102EC00002029A61144ADA612B22C3F8802001229F
:102ED0001A629A6922F001029A611A46936913F004
:102EE000010FFBD14FF0844300249C650122DA6579
:102EF0004FF000725A65094D2C606C60AC6028225E
:102F00002146074800F058FBEC602C616C61AC6115
:102F1000EC612C626C6238BD00050200100A0020D2
:102F2000380A00201A4AD36823F4E0631B041B0C00
:102F300043F0BF6343F40033D360BFF35F8F62B6E7
:102F4000144BE02283F80B234FF40060186083F8E1
:102F50004E234FF48041996083F86B23D86083F847
:102F60006C234FF48050D86083F86D234FF40050E9
:102F7000D86083F86E23D96083F86F234FF4004143
:102F8000D96083F870234FF48032DA60704700BF55
:102F900000ED00E000E100E00E4A38B500231360C8
:102FA0000D4A0E4C13600E4A0E4D13600E4A13600C
:102FB0000E4A13600E4A536213610123936000F0BE
:102FC00058FB00F056FBAC4200D338BD54F8043B2C
:102FD0009847F8E7FC0A00209C0900206C220000BA
:102FE0009809002070220000900900209409002018
:102FF000A0090020124B93F87D3903B97047104B9C
:10300000002283F87D29D3F8782901211170D3F8A3
:10301000782902215170D3F8782903219170D3F8CF
:1030200078390422DA70BFF34F8F0649CA6802F478
:10303000E062054B1343CB60BFF34F8F00BFFDE74A
:103040001000002000ED00E00400FA05F0B59DF846
:103050001440ECB94FF0844CDCF8A450C5F30525BE
:103060000C4CAE007719BF0004EB070EE051CEF810
:103070000420CEF80810CEF80C30069BCEF81030A5
:10308000DCF8543043F00103CCF85430012000E068
:103090000020F0BD380A00200F4B01221A801A468A
:1030A000136913F0010FFBD10B4B4FF401421A804F
:1030B00000221A621A46136913F0200FFBD1064B47
:1030C00000225A621A46136913F0400FFBD1024BDB
:1030D00083225A81704700BF002400400E4B01221A
:1030E0001A601A46136913F0010FFBD10A4B102224
:1030F0001A6003221A7304225A7130229A833322EF
:103100009A72064A0021116001225A721A46136906
:10311000002BFCD1704700BF00380040C80A0020D7
:1031200010B5054C227832B9044B13B10448AFF303
:1031300000800123237010BDA00A002000000000C1
:103140000000000008B5034B1BB103490348AFF36F
:10315000008008BD00000000A40A0020000000005C
:103160000C4B01221A601A46136913F0010FFBD1B0
:10317000084B10221A6001221A73302199833321DF
:1031800099720549002008605A721A461369002B8B
:10319000FCD17047003C0040D00A00200C4B0122BB
:1031A0001A601A46136913F0010FFBD1084B102265
:1031B0001A6001221A7330219983332199720549CB
:1031C000002008605A721A461369002BFCD1704720
:1031D00000180042D80A00200C4B01221A601A463F
:1031E000136913F0010FFBD1084B10221A60012262
:1031F0001A733021998333219972054900200860A0
:103200005A721A461369002BFCD170470014004211
:10321000E00A00200C4B01221A601A46136913F0D1
:10322000010FFBD1084B10221A6001221A733021C2
:103230009983332199720549002008605A721A4611
:103240001369002BFCD1704700C00141E80A00203F
:103250000C4B01221A601A46136913F0010FFBD1BF
:10326000084B10221A6001221A73302199833321EE
:1032700099720549002008605A721A461369002B9A
:10328000FCD1704700A00141F00A00204FF08443B8
:10329000586C20F4605020F018004004400C9B69EA
:1032A00013F0010F0ED04FF084439A6942F00202EE
:1032B0009A619A6922F001029A611A46936913F0A1
:1032C000010FFBD17047704700B583B00022114653
:1032D000084800F03FF90848084B01930023009389
:1032E00000F10E03021D00F10C01FFF7AFFE03B069
:1032F0005DF804FB01330000600A0020020B00208F
:1033000008B5FFF7C3FF10F0070001D0072809D167
:10331000064B1B68B3F5A07F2CBF054B054B012264
:103320001A7008BDFFF7D0FFFBE700BF600A00205E
:10333000060B0020040B002008B500F071F9FFF720
:103340009DFBFFF765FAFFF7BEFFFFF7ABFDFFF749
:1033500007FFFFF7A1FEFFF7C1FEFFF75BFFFFF7D7
:1033600077FFFFF71BFFFFF737FFFFF7DBFD08BD18
:1033700010F0010F04D00B4A137843F002031370CE
:1033800010F0020F04D0074A137843F004031370BF
:1033900010F0800F04D0034A137843F00103137038
:1033A000704700BF080B002070B50A480A4D4FF661
:1033B000FF76016811B9436803B970BD836842683C
:1033C000334000F10C0455F823302046984704EBB5
:1033D0008000EEE7682B0000A435000008B5084B1C
:1033E0005B7A63B1064A937A3321917203F0FF004E
:1033F0002BB1044B1B6813B1024A5168984708BDB2
:1034000000380040C80A002008B5084B5B7A63B159
:10341000064A937A3321917203F0FF002BB1044BDB
:103420001B6813B1024A5168984708BD003C004030
:10343000D00A002008B5084B5B7A63B1064A937A3C
:103440003321917203F0FF002BB1044B1B6813B1C1
:10345000024A5168984708BD00180042D80A002067
:1034600008B5084B5B7A63B1064A937A33219172AF
:1034700003F0FF002BB1044B1B6813B1024A5168E3
:10348000984708BD00140042E00A002008B5084B28
:103490005B7A63B1064A937A3321917203F0FF009D
:1034A0002BB1044B1B6813B1024A5168984708BD01
:1034B00000C00141E80A002008B5084B5B7A63B1FF
:1034C000064A937A3321917203F0FF002BB1044B2B
:1034D0001B6813B1024A5168984708BD00A001411A
:1034E000F00A002000B585B0074B0393012102913B
:1034F0000023019300910B460A461520FFF72AFA94
:1035000005B05DF804FB00BF4136000008B5074A6E
:10351000908980B2064B58604CF2FF3191811B6854
:1035200013B1034A9168984708BD00BF00240040CA
:10353000BC0A002010B50023934206D113F003000B
:1035400018BF012000EB930010BDC45CCC540133C4
:10355000F2E7FEE710B428B1044B43F8320003EB66
:10356000C20359605DF8044B704700BF800A002019
:103570005AB110B40A44431E11F8014B03F8014F2D
:103580009142F9D15DF8044B70477047044A1388A3
:1035900043F002031380136913F0020FFBD170474D
:1035A00000240040CD3500003535000065360000B0
:1035B000653600006536000032B1C9B202440346E8
:1035C00003F8011B9342FBD1704700BF0A4400235C
:1035D000914201D10020704701F8013BF8E7FEE776
:1035E00008B5FEF74DFE014B1B7808BD000B00200F
:1035F000024B0322DA729873704700BF100000205C
:1036000010B1024B9861D961704700BF800A002059
:103610000001020304050607080C101418203040AE
:10362000024B40F204521A80704700BF0040004134
:10363000024BD86AC0F38000704700BF00400041D1
:1036400000B9704708B50420FFF7D2FF08BDFEE7B8
:10365000014B186099607047BC0A0020550155095C
:103660001501150900207047FEE7FEE7FEE7FEE7BB
:0436700070477047E8
:0200000400807A
:0C4000003912003C9100A82AFFFFFFFFCE
:00000001FF
