:10000000F0FF0320C1050000630A0000650A00003C
:10001000690A00006B0A00006D0A00000000000081
:10002000000000000000000000000000610A000065
:10003000670A000000000000610A0000610A000079
:10004000610A0000610A0000610A0000610A000004
:10005000610A0000610A0000610A0000610A0000F4
:10006000610A0000610A0000610A00009D090000A9
:10007000610A0000610A0000610A0000610A0000D4
:10008000610A0000610A0000610A0000610A0000C4
:10009000610A0000610A0000610A0000610A0000B4
:1000A000610A0000610A0000610A0000610A0000A4
:1000B000610A0000610A0000610A0000610A000094
:1000C000610A0000610A0000610A0000610A000084
:1000D000610A0000610A0000610A0000610A000074
:1000E000610A0000610A000000000000000000003A
:1000F00000000000610A0000610A0000610A0000BF
:10010000610A0000610A0000610A0000610A000043
:10011000610A0000610A0000610A0000610A000033
:10012000610A0000610A0000610A0000610A000023
:10013000610A0000610A0000610A0000610A000013
:10014000610A0000610A0000610A0000610A000003
:10015000610A0000610A00000000000000000000C9
:10016000000000000000000000000000000000008F
:10017000000000000000000081020000610A000091
:10018000610A0000610A0000610A0000610A0000C3
:1001900000000000610A0000610A0000610A00001E
:1001A000610A0000610A0000610A0000610A0000A3
:1001B000610A0000610A0000610A0000610A000093
:1001C000610A0000610A0000610A0000610A000083
:1001D000610A0000610A0000610A0000610A000073
:1001E000610A0000610A0000610A0000610A000063
:1001F000610A0000610A0000610A0000610A000053
:10020000610A00000000000000000000610A000018
:10021000610A0000610A0000610A0000610A000032
:10022000610A0000610A0000610A0000610A000022
:10023000610A0000610A0000610A0000610A000012
:10024000610A0000610A0000610A0000610A000002
:10025000610A0000610A0000610A0000610A0000F2
:10026000F8B500BFF8BC08BC9E4670470D090000F9
:10027000F8B500BFF8BC08BC9E467047E90800000E
:100280002DE9F04784B04FF084431C6D14F0007FDB
:100290001CBF4FF000721A6514F0010F63D04FF0CD
:1002A000844301221A655A6D22F001025A65D3F87F
:1002B000A43013F07F0F56D04FF08443D3F8A450EE
:1002C000C5F305252B01854AD268D718D15811F0FE
:1002D000804FD15805EB8500814E56F8200014BFA1
:1002E00021F06041C1F38A410160D2587B6813F468
:1002F000001F03D112F0005F40F0E68005EB85039C
:10030000774A02EB83031B6900221A707E68754BE3
:100310000FCB0DF1100C0CE90F00C6F30346664439
:1003200016F810AC6E4E4FEA850808EB050906EB8F
:100330008909524607F10801D9F8040000F054FB7E
:10034000D9F8083083F800A0D9F80C300BB17A68DE
:100350001A804FF08443C3F8A850634B1B6813B155
:10036000614A5068984714F0100F67D04FF08443EB
:1003700010221A655A6D22F010025A65D3F8B43073
:1003800013F07F0F5AD04FF08443D3F8B450C5F325
:1003900005252B01514A1269D718D15811F0804F09
:1003A000D05805F1010101EB81014D4E56F8216055
:1003B00014BF20F06040C0F38A403060D2587B68A0
:1003C00013F4001F02D112F0005F74D105EB850316
:1003D000434A02EB83035B6A00221A707E68414B3A
:1003E0000FCB0DF1100C0CE90F00C6F30346664469
:1003F00016F8108C3A4E6B1C03EB830306EB830359
:10040000424607F10801586800F0EEFAAB005A19AD
:1004100006EB8202D26982F800802B4406EB830649
:10042000336A0BB17A681A804FF08443C3F8B8502E
:100430002D4B9B6813B12C4AD068984714F4007F69
:1004400020D04FF084434FF400721A655A6D22F4A5
:1004500000725A65D3F8D820D3F8E03013F0010FBA
:100460000AD012F0010F07D04FF08442D2F8E030EA
:1004700023F00103C2F8E0301B4B9B6913B11A4A09
:10048000D069984714F4006F12D04FF084424FF4B3
:1004900000631365D2F8C430C3F30423D2F8C42038
:1004A000C2F30442934203D20133DBB29A42FBD13E
:1004B00004B0BDE8F08705EB8503094A02EB83032E
:1004C0005B6A01221A7089E705EB8503044A02EB97
:1004D00083031B6901221A7018E700BF1000002077
:1004E00038000020300A0000600000202C4B002261
:1004F0001A7403F500632B4ADA621A46536813F044
:10050000200FFBD1284B01225A711A46D37813F0E1
:10051000010FFBD0254B264A1A621A46536813F086
:10052000040FFBD1214B234A5A621A46536813F039
:10053000080FFBD11D4B204A9A621A46536813F0EC
:10054000100FFBD1194B1B4A1A631A46536813F05C
:10055000400FFBD1154B4322C3F8A4201A46D2F812
:10056000A43013F0400FFAD0104B4422C3F8EC2013
:100570001A46D2F8EC3013F0400FFAD00B4B44225D
:10058000C3F8F0201A46D2F8F03013F0400FFAD03A
:10059000054B0A4A1A6144F2FF725A61704700BF64
:1005A000001400400401200000080040001C00402E
:1005B000060101000601020006013000FFFFFB00FA
:1005C00008B51B4B98471B4B9847EFF3108172B649
:1005D000194AD2F8883043F47003C2F88830BFF368
:1005E0004F8FBFF36F8F01B962B6144C2023636045
:1005F00000F072F8124B23F07F030F4A9360114B07
:100600009847A36823F00103A3602346DA6812F039
:10061000010FFBD1094B5A6842F004025A600122D3
:100620009A60094B9847094B984700F0EBF9FEE7B1
:100630006F0A00006F0A000000ED00E0006000415A
:10064000000000005D0800006F0A00006F0A000053
:1006500038B54FF0844301229A611A46936913F02A
:10066000010FFBD04FF084439A6942F002029A6175
:10067000164ADA612B22C3F8802001221A629A6995
:1006800022F4804222F0010242F480429A611A462A
:10069000936913F0010FFBD14FF0844300249C6554
:1006A0000122DA654FF000725A65094D2C606C60CA
:1006B000AC6028222146074800F0CAF9EC602C61A2
:1006C0006C61AC61EC612C626C6238BD00050200AB
:1006D00010000020380000201E4B1F4A9342F0B447
:1006E00038BF002103D203F8011B9342FBD11B4A00
:1006F000D2E9000150EA01034FF0000610D09468DF
:10070000034602F10C076CB921B1014403F8016BF7
:100710009942FBD13A46D2E9000150EA0103EED1F9
:10072000F0BC704759B101F10C030C38801A1A441F
:100730003B461C1813F8015B25709342F9D111F068
:10074000030318BF012303EB910107EB81073A462E
:10075000E1E700BF10000020100000200C0800009E
:100760004FF4005318684FF000531B78012B12D040
:10077000013018BF01204FF0005311221A7082225D
:100780005A7013229A708422DA7000221A710122A0
:100790005A719A7170474FF000535B78022BE7D182
:1007A0004FF000539B78032BE2D14FF00053DB78DE
:1007B000042BDDD10020DEE7134B05221A60022254
:1007C00083F84020012183F84210402283F843201F
:1007D00083F84B2083F84E2083F8532083F856107B
:1007E00083F8571083F83110882083F83B004FF0CE
:1007F0000040C3F8800083F8C42083F8D72083F832
:10080000DF1083F8BF207047008000418000002087
:100810001C0000000000000060000020200000001C
:100820000000000010000020280000000000000070
:100830003800002028000000000000009C0000207C
:100840000C00000000000000A800002004000000D0
:1008500000000000000000000000000070B50D4D19
:100860000D4C641BA4100026A64209D10B4D0C4C64
:10087000FFF7F6FC641BA4100026A64205D170BD4C
:1008800055F8043B98470136EEE755F8043B984786
:100890000136F2E76C0200006C0200006C020000FE
:1008A000700200000F4B01221A801A46136913F0E0
:1008B000010FFBD10B4B4FF401421A8000221A6248
:1008C0001A46136913F0200FFBD1064B00225A621F
:1008D0001A46136913F0400FFBD1024B83225A8151
:1008E000704700BF0024004010B5054C237833B991
:1008F000044B13B10448AFF300800123237010BDF3
:1009000080000020000000000000000008B5034B3C
:100910001BB103490348AFF3008008BD000000008D
:1009200084000020000000000D4AD36823F4E06337
:100930001B041B0C43F0BF6343F40033D360BFF3CD
:100940005F8F62B6074BE02283F80B234FF4006100
:10095000196083F84E234FF480429A60704700BFBD
:1009600000ED00E000E100E00B4B01221A601A46A6
:10097000136913F0010FFBD1074B4FF4C2621A60E9
:1009800001221A7302229A8333229A721A46136939
:10099000002BFCD1704700BF0038004008B5074A63
:1009A000908980B2064B58604CF2FF3191811B68F0
:1009B00013B1034A9168984708BD00BF0024004066
:1009C0009C00002008B500F03BF8FFF7F5FEFFF7AC
:1009D0008DFD00F02CF8FFF73BFEFFF763FFFFF7FC
:1009E000C3FFFFF7A1FF08BD0A44914200F1FF33A6
:1009F00000D1704710B511F8014B03F8014F914237
:100A0000F9D110BD08B50020FFF7DCFFFFF7A8FE05
:100A100000B9FEE700F001F8FBE74FF400531B6854
:100A200083F3088842F204031B6818477047704735
:100A30000001020304050607080C101418203040BA
:100A4000024B4FF482721A80704700BF0040004191
:100A500002440346934200D1704703F8011BF9E7B3
:100A6000FEE7FEE7FEE7FEE7FEE7FEE7FEE770478C
:10200000F8FF03207D3A0000D7440000DB460000C3
:10201000914800009348000095480000000000002F
:102020000000000000000000000000006742000007
:10203000EF47000000000000674200006742000018
:1020400067420000674200006742000067420000EC
:1020500067420000674200006742000067420000DC
:1020600067420000674200006742000031450000FF
:1020700067420000674200006742000067420000BC
:1020800067420000674200006742000067420000AC
:10209000674200006742000067420000674200009C
:1020A000674200006742000067420000674200008C
:1020B000674200006742000067420000674200007C
:1020C000674200006742000067420000674200006C
:1020D000674200006742000067420000674200005C
:1020E000674200006742000000000000000000009E
:1020F00000000000674200006742000067420000E5
:10210000674200006742000067420000674200002B
:10211000674200006742000067420000674200001B
:10212000674200006742000067420000674200000B
:1021300067420000674200006742000067420000FB
:1021400067420000674200006742000067420000EB
:10215000674200006742000000000000000000002D
:10216000000000000000000000000000000000006F
:102170000000000000000000AD30000067420000D9
:1021800067420000674200006742000067420000AB
:102190000000000067420000674200006742000044
:1021A000674200006742000067420000674200008B
:1021B000674200006742000067420000674200007B
:1021C000674200006742000067420000674200006B
:1021D000674200006742000067420000674200005B
:1021E000674200006742000067420000674200004B
:1021F000674200006742000067420000674200003B
:10220000674200000000000000000000674200007C
:10221000674200006742000067420000674200001A
:10222000674200006742000067420000674200000A
:1022300067420000674200006742000067420000FA
:1022400067420000674200006742000067420000EA
:1022500067420000674200006742000067420000DA
:10226000F8B500BFF8BC08BC9E4670479541000019
:10227000F8B500BFF8BC08BC9E467047714100002D
:1022800070B582B09F4B1B78A3B99F4B1B78002B76
:1022900040F08F819D4B1B78002B40F091819C4B2F
:1022A0001B78002B00F08A81994B00221A7001F0F4
:1022B000DBFF83E1934B00221A70964B1B7B082BAC
:1022C00005D1944C221D04F10C05002103E001F01E
:1022D000CBFF73E1194612F8010B80EA0103DBB270
:1022E000AA42F7D1884223D18A4B1B798A4A1278B5
:1022F0009A4220D0884A1370864B03F114020433AB
:1023000093E8030082E80300844B5B78B3B9814B08
:102310005B79013B092B50D8DFE813F049006800D6
:1023200072007B009400AB00C500DC002E000801A9
:1023300001F09AFF42E101F097FF3FE10021774B66
:102340005970A2F114030B225A75143304F11B02C5
:1023500013F8010B41409342FAD16E4AD1766F4B8C
:102360001878002300931432082100F5A07001F0C2
:10237000E7FA01F079FF21E1684B93F871397BB1FD
:10238000674A0023674EA2F2516500BF52F8040B62
:10239000316841F82300013395F871198B42F5DB60
:1023A000604B1B684FF05A32C3F8FC2305E05B4BCF
:1023B000D3F80220574BC3F817205B4B04F11B02E4
:1023C000002100BF13F8010B41409342FAD1514A5A
:1023D000D176524B1878002300931432082100F56F
:1023E000A07001F0ADFA01F03FFFE7E04B4BD3F8EE
:1023F0000610484AC2F8171000229A71DA71DCE719
:10240000444A464B53F80A1FC2F816101B799376BC
:10241000D3E7404B9B79414A92F82F239A4209D93E
:1024200002333E4A02EB8303D3F80720394BC3F84B
:102430001720C2E7374B00225A7504229A750122F1
:10244000DA75BAE7334B9B79344A92F850269A42B0
:1024500007D9CC33314A52F823202E4BC3F817202A
:10246000ABE72C4B00225A7505229A750122DA75CA
:10247000A3E7284B9B79294A92F871299A420AD9F5
:1024800003F5CA73254A02EB8303D3F80120214BDD
:10249000C3F8172091E71F4B00225A7506229A7540
:1024A0000122DA7589E71B4B9B791C4A92F850266A
:1024B0009A4207D9CC33174AD2F81710174A42F874
:1024C00023107AE7134B00225A7507229A750122CE
:1024D000DA7572E70F4B9B79104A92F871299A428C
:1024E00008D90C4AD2F817100C4A02EB8303C3F840
:1024F000511662E7074B00225A7508229A7501228D
:10250000DA755AE77A0B0020790B0020780B00204F
:10251000630B0020E00A0020610B00201000002067
:1025200061060020980B0020F40A0020524BD3F8DB
:1025300074692EB3514B987928B14F4BDB7A012B3C
:102540002ED04D4B98724C4D0423EB7200232B730D
:102550006B734A498B7A00934B7A0A7AC979B047F0
:10256000EB7A032B03D90322EA720522AA73434AAA
:10257000414B53F80A1FC2F816101B7993761CE7DB
:102580003E4A917999720321D972002119735973C6
:1025900004219973D3F80A30C2F8163091760CE70B
:1025A000364B0322DA7500221A765A7601229A7681
:1025B00003E7334B00221A7001F056FE02B070BDE3
:1025C000304B00221A702D4B1B7B082B1BD12A4B42
:1025D00000225A70294B03F11402191D03C982E825
:1025E00003001B79012B11D0022B2FD0224B18781E
:1025F00000230093244A082100F5807001F0A0F91F
:1026000001F032FEDAE701F02FFED7E71A4B93F81C
:102610007C3973B9194B00225A759A75DA751A7696
:10262000164B154A91785976D17899761279DA76DF
:10263000DCE7124B02225A750F4AD2F87829117939
:1026400099755179D97592791A76E9E70A4B93F819
:102650007C393BB9094BFF221A7502225A750022B8
:102660009A75C3E7044B012283F87D2900210748AE
:1026700002F0CEF8BAE700BF10000020E00A002008
:10268000790B0020780B0020F40A00200D3E00009A
:1026900080B5002001F009FF0021754802F0ECF838
:1026A00002F068F801F06CFF02F04CF802F032F82A
:1026B00001F064FE6F4B00221A611A705A606E4B73
:1026C0004FF48002C3F89420962001F0B3FF6B4DC5
:1026D0006B4C6C4FDFF8BC8155E123F001032B708C
:1026E0004FF4C051092001F05DFF02F01FF800BF58
:1026F00001F06AFF0028FBD002F0B2F800EB4010B6
:10270000C000B0F57F4F0EDA5F4B83FB002303441C
:10271000C017C0EBE310E061F870574B4FF0004278
:10272000C3F89C2037E1FF20F5E723F002032B706C
:1027300000F098F934E123F004032B70534BDB785D
:1027400003F0F003402B20D04FF4C051002001F0E3
:102750004DFF02F003F800BF01F05AFF0028FBD044
:1027600002F084F820614A4BD87000121871337857
:102770008BB17368B268934213DA3F4A4FF4800119
:10278000C2F89810013373600FE100232361404ABF
:10279000D3701371EBE7384B4FF48002C3F89420E9
:1027A00003E1F1680A44934205DA334A4FF48001A9
:1027B000C2F89410E6E73369013B3361002272608E
:1027C000002B40F0F2803270EFE001222F4BDB78DB
:1027D000C3F3810393422FD0D8F80030013BC8F8EF
:1027E00000306BB34FF4C051002001F0DBFE01F06C
:1027F0009DFF00BF01F0E8FE0028FBD002F030F89A
:10280000A061B8701C4B1B6AC3F3C023DEB2A67074
:102810001E4A917866F3C301917065283CDD7E28DD
:1028200040F3E580C72840F3E480002B14BF032168
:10283000042132E00222C9E70423C8F80030D1E7BE
:102840001249CB7862F38303CB700422C8F80020CE
:1028500003F00C032BB903221146104601F07CFE55
:10286000C0E705221421012001F076FEBAE700BF7F
:10287000554000003C0B0020008000417C0B0020F4
:102880001C0A0020800B0020818080805C0B0020CF
:10289000900B00209C0B002000216D4BDB78B1EBEE
:1028A000131F00F0A8806B4A1368013B1360002BD4
:1028B00000F0A580684BD3F8A030C3F3C00383F0C9
:1028C000010194F83420914200F0A280634802682C
:1028D000013A0260002A00F0A4805F4A136A83F480
:1028E0000023C3F3C04394F8301063F3000184F86D
:1028F0003010136A83F48023C3F38043C9B263F3B7
:10290000410184F83010136A83F40033C3F3404369
:10291000C9B263F3820184F83010136A83F4803300
:10292000C3F30043C9B263F3C30184F83010136AE0
:1029300083F40043C3F3C033C9B263F3041184F8D2
:102940003010116A81F48041C1F3803194F8303045
:1029500061F3451384F83030DBB23B71003318BFAC
:10296000012384F83330136AC3F3405384F83130C1
:10297000374A917863F38201917001F039FC01F0DC
:1029800071FA01F08BFB364E01F060FD2B7813F0ED
:10299000010F7FF4A2AE2B7813F0020F7FF4C5AEC7
:1029A0002B7813F0040F7FF4C6AE2B7813F0080FCA
:1029B000EAD023F008032B704FF4C051012001F03E
:1029C000F1FD01F0B3FE00BF01F0FEFD0028FBD0D9
:1029D00001F046FF6061787053287FF7F6AE8A28D1
:1029E0007FF728AFBF28B4BF03220022EEE6012103
:1029F00053E7022151E7174B04221A605AE7144BA0
:102A0000DA7861F30712DA70124B04221A6051E788
:102A1000124B042119600E4BD97862F34101D97031
:102A20005BE784F834100A4AD07861F34100D07033
:102A30000A4A042111602BB905221421012001F05A
:102A40008BFD4AE705221146022001F085FD44E78F
:102A50005C0B0020A40B002000800041A00B002094
:102A60003C0B002070B5A74B1B7EDBB9A54B9B68C8
:102A7000012B00F01A81032B00F01A81002B00F0CB
:102A80001181A14B1B78002B40F015819F4B1B6AD5
:102A9000C3F380239E4A53709E4A917863F30001EA
:102AA000917070BD974A92F83420D2B1954B93F84B
:102AB000253023B1964B93F83330002BF1D1914B55
:102AC0009B6B002BEDD0013B8E4A9363002BE8D12A
:102AD000002000F06BFC8B4B002283F834201A7628
:102AE000DFE7012B2AD0022B2BD001F0D7FA854A41
:102AF000156A874BDC6AD36A0133D3628648016862
:102B00000131016092F82620F2B97E4A92F8252020
:102B10001AB17F4A92F8332042B3322B4ADD0F2993
:102B20004DDD7E4A1268A11A48BF111B02292FDD14
:102B3000794A00211160794A146040E001F058FBA5
:102B4000D5E701F08FF9D2E76E4B012283F83420EC
:102B500093F824303BB905221146104601F0FCFCE5
:102B600001F07AFD9DE701F04BFEF4E7654B012291
:102B700083F8342093F824303BB905221146022013
:102B800001F0EAFC01F068FD8BE701F039FEF4E7A3
:102B90005C4B012283F8342093F824303BB90522A2
:102BA0001146032001F0D8FC01F056FD79E701F051
:102BB00027FEF4E7584A00211160584A1460514A30
:102BC000126B934211DD4F4B012283F8342093F8AE
:102BD00024303BB905221146042001F0BDFC01F070
:102BE0003BFD5EE701F00CFEF4E72E1B17D4454BCE
:102BF000996A304601F008FA01F08CF9012E25DDC2
:102C0000404B1B7E012B46D0022B3E4B4FF0000267
:102C10009A620CBF0520082000F0C8FB41E7641B46
:102C2000384B996A204601F0EFF901F073F9012C55
:102C30000CDD344B1B7E012B1FD0022B24D0314BDB
:102C400002229A62072000F0B1FB2AE701F004FD9E
:102C50002C4B012283F8342093F824302BB90A221C
:102C60001146012001F078FC1BE7294BD86AC0F31C
:102C70000721C0B201F094FDF1E7224B00229A62D5
:102C8000022000F093FB0CE71E4B00229A62042006
:102C900000F08CFB05E71B4B00229A62012000F03C
:102CA00085FBFEE601F01EFAEBE600F0DFFDE8E64C
:102CB00000F052F8E5E60020134B1870184B1B6823
:102CC000104CA360134A537060612074E061207659
:102CD000014601F0F3F8A368012B23D0022B2FD07B
:102CE000002B7FF4D3AE002000F060FB002001F049
:102CF0002BFB0021084601F0E1F8024B0022DA60CC
:102D0000C4E600BFE00900207D0B002000800041E8
:102D10001C0A00205C0B0020680B00206C0B0020BC
:102D2000640B0020002000F041FB012001F00CFBAF
:102D30000021012001F0C2F842F27112E260A5E622
:102D4000002000F033FB012001F0FEFA00210120F9
:102D500001F0B4F89AE600BF08B56E4B1B7C012B5E
:102D60000AD0002001F0F0FA0021084601F0A6F890
:102D7000002000F01BFB08BD012001F0E5FA002156
:102D8000084601F09BF8644B93F8333053B9614B1C
:102D90005B69062B00F2B980DFE803F00A122B43CF
:102DA0006684990000205B4B187400F0FFFAE2E79C
:102DB000002001F0AFF8574A536901335361DAE755
:102DC000554BDB68C82B0CDDC83B03EBD3730221EA
:102DD000581001F019F901F09DF8072000F0E6FA0B
:102DE000C9E7092000F0E2FA4A4A53690133536106
:102DF000C1E7494B5868B0F5166F0ADA0021C0F5F3
:102E0000166001F001F901F085F8012000F0CEFA1A
:102E1000B1E7032000F0CAFA3E4A53690133536117
:102E2000A9E73D4B9B6840F2DB52934214DCC3F5AB
:102E3000BB63043303EB83035B00384880FB032050
:102E4000DB170021C3EBE00001F0DEF801F062F8CF
:102E5000052000F0ABFA8EE7062000F0A7FA2D4A15
:102E600053690133536186E72B4B9B68002B11DDBF
:102E700003EB83035B00294880FB0320DB17002161
:102E8000C3EBE00001F0C0F801F044F8042000F0CA
:102E90008DFA70E7062000F089FA1E4A5369013363
:102EA000536168E71C4B5868002808DD002101F0D9
:102EB000ABF801F02FF8022000F078FA5BE703206E
:102EC00000F074FA134A53690133536153E7124B0C
:102ED000DB68B3F5FA6F10DAC3F5FA6303EBD3736B
:102EE0000021581001F090F801F014F8072000F0CC
:102EF0005DFA082000F05AFA3DE7092000F056FA82
:102F0000044A53690133536135E7024B00225A6189
:102F100031E700BFE00900201C0A00201F85EB51AB
:102F200038B50C461546092800F2BC80DFE800F0F1
:102F3000050A11181F264F78A1AE01F089FC01F097
:102F40005FFC38BD01F034FA0021084601F028FC8E
:102F5000F7E701F0DDF90021084601F021FCF0E778
:102F600001F0BAF90021084601F01AFCE9E701F086
:102F700039FA0021084601F013FCE2E700220121A2
:102F800004EB052000F044FE05281CD8DFE800F023
:102F900003080B0F13172946204601F001FCD0E768
:102FA00001F0F4FBCDE7022001F022FCC9E7032089
:102FB00001F01EFCC5E7032001F01AFCC1E7012067
:102FC00001F016FCBDE7052001F012FCB9E7002274
:102FD000012104EB052000F055FE05281CD8DFE890
:102FE00000F003080B0F13172946204601F0D8FB09
:102FF000A7E701F0CBFBA4E7022001F0F9FBA0E773
:10300000032001F0F5FB9CE7032001F0F1FB98E7BA
:10301000012001F0EDFB94E7052001F0E9FB90E7CA
:103020000022012104EB052000F070FD05281CD8CA
:10303000DFE800F003080B0F13172946204601F0C4
:10304000AFFB7EE701F0A2FB7BE7022001F0D0FBA3
:1030500077E7032001F0CCFB73E7032001F0C8FB06
:103060006FE7012001F0C4FB6BE7052001F0C0FB16
:1030700067E7084601F046FA18B9032001F0B8FBEB
:103080005FE70021084601F08BFB5AE701F024FAC4
:1030900018B9032001F0ACFB53E70021084601F00A
:1030A0007FFB4EE7042001F0A3FB4AE72DE9F04740
:1030B00084B04FF084431C6D14F0007F1CBF4FF0B0
:1030C00000721A6514F0010F62D04FF084430122A0
:1030D0001A655A6D22F001025A65D3F8A43013F034
:1030E0007F0F55D04FF08443D3F8A450C5F3052586
:1030F0002B014A4AD268D718D15811F0804FD158C5
:1031000005EB8500464E56F8200014BF21F06041C3
:10311000C1F38A410160D2587B6813F4001F02D1C9
:1031200012F0005F71D105EB85033D4A02EB83038A
:103130001B6900221A707E683A4B0FCB0DF1100C00
:103140000CE90F00C6F30346664416F810AC344E83
:103150004FEA850808EB050906EB8909524607F195
:103160000801D9F8040001F0C7FAD9F8083083F84B
:1031700000A0D9F80C300BB17A681A804FF0844364
:10318000C3F8A850284B1B6813B1274A50689847CA
:1031900014F4007F20D04FF084434FF400721A657E
:1031A0005A6D22F400725A65D3F8D820D3F8E03073
:1031B00013F0010F0AD012F0010F07D04FF0844234
:1031C000D2F8E03023F00103C2F8E030164B9B69DF
:1031D00013B1154AD069984714F4006F12D04FF01C
:1031E00084424FF400631365D2F8C430C3F3042360
:1031F000D2F8C420C2F30442934203D20133DBB2BB
:103200009A42FBD104B0BDE8F08705EB8503044A80
:1032100002EB83031B6901221A708CE7900A0020DD
:10322000B80A002020480000000B0020200B0020DE
:103230001C000000000000005C0B002005000000E6
:1032400000000000800B00200500000001000000CD
:103250000300000000000000880B002005000000B3
:10326000010000000100000000000000900B0020A1
:103270000500000001000000020000000000000046
:10328000600A00203000000000000000E00A00207A
:103290002000000000000000100000208009000055
:1032A00000000000610B002003000000000000008F
:1032B000780B00200300000000000000980B0020A5
:1032C000040000000100000000000044000B00208A
:1032D0002000000000000000900A002050000000C4
:1032E000000000007B0B0020010000000000000037
:1032F000540A00200C000000000000003C0B0020DD
:1033000014000000000000001C0A0020380000002B
:1033100000000000500B00200C0000000000000026
:103320007C0B002001000000000000009C0B00202E
:103330000C00000001000000040000000400000078
:1033400004000000640B00200400000000000000E6
:103350007D0B00200100000000000000680B002031
:103360000400000000000000E00900203C00000014
:10337000000000006C0B00200800000000000000AE
:10338000900900205000000000000000740B002095
:103390000400000000000000000000000000000029
:1033A000666666666666666666666666554B18702D
:1033B000092800F2A580DFE800F0050B1D2F3E5024
:1033C00062718395504B4FF40042C3F894207047CC
:1033D0004D4B4FF40042C3F898200122C3F89820C7
:1033E0000222C3F898204FF480729A610422C3F835
:1033F00094207047444B4FF40042C3F898200122B8
:10340000C3F898200222C3F898204FF480729A6182
:103410000422C3F8982070473B4B4FF40042C3F896
:1034200098200122C3F898200222C3F898204FF474
:1034300080725A617047344B4FF40042C3F89820B1
:103440000122C3F898200222C3F894204FF480721E
:103450009A610422C3F8942070472B4B4FF400422A
:10346000C3F898200122C3F898200222C3F89420C0
:103470004FF480729A610422C3F898207047224B5F
:103480004FF40042C3F898200122C3F8982002228A
:10349000C3F894204FF480725A6170471A4B4FF46E
:1034A0000042C3F898200122C3F894200222C3F8F6
:1034B00098204FF480729A610422C3F894207047D8
:1034C000114B4FF40042C3F898200122C3F8942016
:1034D0000222C3F898204FF480729A610422C3F844
:1034E00098207047084B4FF40042C3F898200122FF
:1034F000C3F894200222C3F898204FF480725A61D6
:10350000704700BFE009002000800041474B0022C7
:103510001A7403F50063464A5A621A46536813F058
:10352000080FFBD1434B444A9A621A46536813F082
:10353000100FFBD13F4B414A1A631A46536813F0F0
:10354000400FFBD13B4B4222C3F884201A4600BFF8
:10355000D2F8843013F0400FFAD0394B00229A632E
:1035600077225A631A46D36B13F0040FFBD1344B06
:10357000022283F830201A46D36B13F0020FFBD1DE
:103580002F4A136C03F00303032BFAD12D4B0122B6
:103590005A711A46D37813F0010FFBD0254B2A4AF3
:1035A0001A621A46536813F0040FFBD1214B4122D3
:1035B000C3F8E4201A4600BFD2F8E43013F0400FFD
:1035C000FAD01C4B4422C3F8EC201A46D2F8EC3057
:1035D00013F0400FFAD0174B4122C3F8F4201A46DB
:1035E000D2F8F43013F0400FFAD0124B4122C3F856
:1035F00020211A46D2F8203113F0400FFAD00D4B9B
:103600004122C3F824211A46D2F8243113F0400F86
:10361000FAD00C4B6FF07F421A6140F2FF725A6190
:103620000A4A9A614FF4C0721A627047001400404F
:1036300006010100001C00400601300006010200E6
:1036400000100040000800400701010056880100FA
:103650002DE9F84F8B46924698469DF828709DF8C4
:103660002C609DF830503F4BD3F800903E4C2070BA
:10367000012363703D4800F0B9F9A770E670257129
:103680000223E372002323736373A373A371E371B3
:103690002372637284F82FB384F850A6B8F1000F38
:1036A00003D009F00F03012B13D02F4B002283F816
:1036B00071292D4A0D9BC2F874394FF00053C2F89E
:1036C00078391B78112B2CD0274B002283F87C29CA
:1036D0003FE0C9F30219B9F1010FE6D184F871890D
:1036E00001F0AEF80028FBD1214B1968D1F8FC336A
:1036F000B3F15A3F09D01F4B03EB8808002200BFEB
:1037000043F8042B4345FBD1D3E70B46194A01EBA1
:10371000880800BF53F8041B42F8041B4345F9D145
:10372000C7E74FF000535B78822BCDD14FF00053A9
:103730009B78132BC8D14FF00053DB78842BC3D177
:10374000094B012283F87C294FF00053DF711E7270
:103750005D72054B002283F87D2900F085FDBDE8F0
:10376000F88F00BF0440800010000020600A002095
:10377000980B00206106002070B4394B394A1A605A
:10378000012083F84200072283F8432083F8440095
:1037900083F8450083F8460083F84700402283F809
:1037A000482083F84920022183F84A1083F84B10FF
:1037B000412483F84C4083F84D2083F84E1083F861
:1037C0004F1083F8501083F8511083F8521083F88B
:1037D0005310062483F85440442483F8554083F85A
:1037E000560083F8570083F85B10112583F8315099
:1037F00083F8325083F83350052683F836608826E4
:1038000083F83B60184EC3F8806083F8C04083F8AB
:10381000C14083F8C24083F8C31083F8C41083F812
:10382000C62083F8C70083F8C80083F8C90083F86E
:10383000CA2083F8CB2083F8CC2083F8CD2083F8EE
:10384000CE2083F8CF2083F8D62083F8D74083F8A2
:10385000DF20102283F8B32083F8B45070BC704787
:1038600000800041F013200007F0C08008B5324B03
:1038700093F8303013F0200F19D113F0100F20D12E
:1038800013F0080F28D113F0040F2FD113F0020FFB
:1038900037D113F0010F3ED0284B42F27112DA609B
:1038A0000122002140F6C41000F0B2F908E0234BD9
:1038B00042F27112DA6001220021084600F026F976
:1038C00008BD1E4B42F27112DA60012200214FF452
:1038D0007A7000F01BF9F3E7184B42F27112DA60CC
:1038E00001220021084600F0CDF9E9E7134B42F22E
:1038F0007112DA60012200214FF4167000F0C2F953
:10390000DEE70E4B42F27112DA6001220021084616
:1039100000F07EF9D4E70020FFF748FD074AD3689E
:10392000013BD360002BCBD105221421012000F0F4
:1039300013FE00F03DFDC3E71C0A0020E009002053
:10394000F8B59DF818C0BCF1010F01D90020F8BDF1
:103950004FF08443D3F8C43013F4001F3FD14FF02D
:103960008443D3F8C440C4F3044426011D4B9F692B
:10397000BD19B0F5006F26BF20F0604040F08040D8
:103980008004B8510B46082928BF08231804686032
:103990001CF0FD0F1ED111461A4605F1080000F07B
:1039A000ABFE114A13780133DBB213706A6842EA46
:1039B000036343F400036B60012000FA04F44FF04A
:1039C0008443C3F8E040C3F8D0405A6D42F400721B
:1039D0005A65BCE7BB5943F00053BB51E1E70020F7
:1039E000B5E700BF900A00207B0B002038B50446E5
:1039F0003022002100F0E8FE4FF0844301229A615A
:103A00001A46936913F0010FFBD04FF084439A6973
:103A100042F002029A611749CC60A2B242F0004221
:103A200042F48032C3F8A02004F110028A6192B2FD
:103A300042F08072C3F8C02004F12002CA6192B241
:103A400042F48032C3F8F02004F128020A620A4DE1
:103A500003CDA062E16292B242F40032C3F8842046
:103A60009A6922F001029A611A46936913F0010FD4
:103A7000FBD138BD900A00208448000008B51B4BDC
:103A800098471B4B9847EFF3108172B6194AD2F84A
:103A9000883043F47003C2F88830BFF34F8FBFF310
:103AA0006F8F01B962B6144C2023636000F0B4FC40
:103AB000124B23F07F030F4A9360114B9847A36882
:103AC00023F00103A3602346DA6812F0010FFBD153
:103AD000094B5A6842F004025A6001229A60094B6D
:103AE0009847094B9847FEF7D3FDFEE7974800003B
:103AF0009748000000ED00E0006000410020000059
:103B0000B13D000097480000974800002DE9F041C2
:103B1000884619B11C4B9B68022B2DD11B4B5B783F
:103B200063B3194B1C7E5CBB40F24653984229DCC0
:103B30001746064600F0B2FA144B9B6A9D1B48BF1D
:103B4000F51A042D15DD104B03221A760022DA61D6
:103B50001E6283F8248083F8257083F82620DA62B9
:103B60009A6283F8342050229A6319356D001D63E0
:103B700001242046BDE8F0810324FAE70424F8E795
:103B80000524F6E70224F4E7E00900201C0A0020DF
:103B900038B54FF0844301229A611A46936913F0B5
:103BA000010FFBD04FF084439A6942F002029A6100
:103BB000144ADA612B22C3F8802001221A629A6922
:103BC00022F001029A611A46936913F0010FFBD1AA
:103BD0004FF0844300249C650122DA654FF00072A7
:103BE0005A65094D2C606C60AC602822214607485C
:103BF00000F0EAFDEC602C616C61AC61EC612C6260
:103C00006C6238BD00050200900A0020B80A00204E
:103C10002DE9F0410F4619B1184B9B68022B27D1B3
:103C2000174B5B7833B3154B1C7E2CBB9046054677
:103C300000F0DEFA124B1B6A581B48BFE81A042832
:103C400013DD0E4B01241C760026DE611D6283F815
:103C5000247083F8258083F82660DE629E6283F8F4
:103C6000346050229A63323018632046BDE8F081F8
:103C70000324FAE70424F8E70524F6E7E009002026
:103C80001C0A0020F8B50E4619B1194B9B68022B8F
:103C900027D1184B5B7833B3154B1C7E2CBB1746D2
:103CA000054600F0DFF8134B5B6A581B48BFE81A63
:103CB000042814DD0E4B02221A760024DC611D62FA
:103CC00083F8246083F8257083F82640DC629C62C8
:103CD00083F8344050229A6332301863012420461E
:103CE000F8BD0324FBE70424F9E70524F7E700BF48
:103CF000E00900201C0A0020154B01221A801A46F8
:103D0000136B13F0010FFBD14FF080131B689A0C5B
:103D100002F07002D90A01F4E061C3F302430A43DE
:103D20001A430B4BA3F848204FF480721A803F22AD
:103D3000DA7203221A724FF4C0529A801822DA8083
:103D4000072283F82E201A46136B002BFCD17047F4
:103D500000200043154B01221A801A46136B13F002
:103D6000010FFBD14FF080131B681A0902F070029B
:103D7000D90001F4E061C3F382030A431A430B4BF9
:103D8000A3F848204FF480721A803F22DA7203228F
:103D90001A724FF4C0529A800022DA80072283F808
:103DA0002E201A46136B002BFCD17047001C0043D9
:103DB0000E4A38B5002313600D4A0E4C13600E4AAC
:103DC0000E4D13600E4A13600E4A13600E4A536282
:103DD00013610123936000F05FFD00F05DFDAC42D4
:103DE00000D338BD54F8043B9847F8E7740B002023
:103DF0009C0900206C22000098090020702200001D
:103E00009009002094090020A0090020124B93F88B
:103E10007D3903B97047104B002283F87D29D3F810
:103E2000782901211170D3F8782902215170D3F833
:103E3000782903219170D3F878390422DA70BFF31E
:103E40004F8F0649CA6802F4E062054B1343CB600A
:103E5000BFF34F8F00BFFDE71000002000ED00E032
:103E60000400FA0508B54FF4C051062000F0BEFB6F
:103E700000F074FC00F0CCFB0028FBD000F0F6FC56
:103E800032380B4A906000EB80004000094981FB0A
:103E90000031C317C3EBE1035362D36210F1190F72
:103EA000D8BF0023044AD3701B12137108BD00BF92
:103EB0001C0A00201F85EB51880B002010B4C0B1F4
:103EC000114B4FF400129A61104B012283F83120FC
:103ED0000F4B0E4A987892F8314064F38200987044
:103EE00082F83210DA7861F30002DA705DF8044B80
:103EF0007047054A4FF400115161044A002182F8CD
:103F000031100146E4E700BF008000411C0A002098
:103F10005C0B0020072828BF0720C0F10700C0B2B3
:103F2000104B586010F0010F0F4B4FF4805214BF2C
:103F3000C3F89820C3F8942010F0020F0A4B4FF4F6
:103F4000005214BFC3F89820C3F8942010F0040F57
:103F5000054B4FF4804214BFC3F89820C3F8942057
:103F6000704700BFE009002000800041114B012292
:103F70001A601A46936813F0010FFBD10D4B4FF4F2
:103F800080621A600221596158690B4A02435A61E2
:103F9000D96342F210725A6400229A64DA641A6594
:103FA0005A659A6596221A641A469368002BFCD1CA
:103FB000704700BF00600141000F4040F0B59DF820
:103FC0001440ECB94FF0844CDCF8A450C5F305253F
:103FD0000C4CAE007719BF0004EB070EE051CEF891
:103FE0000420CEF80810CEF80C30069BCEF8103026
:103FF000DCF8543043F00103CCF85430012000E0E9
:104000000020F0BDB80A0020B0F57A7F11DCB0F5D1
:10401000FA7F14DCB0F5C87F13DCB0F5967F12DCB4
:10402000C82812DC642812DC3228D4BF002001200A
:1040300000E007208842B8BF0846C0B2704706209B
:10404000F8E70520F6E70420F4E70320F2E7022072
:10405000F0E7704710F0010F04D00F4A137843F0D7
:104060000203137010F0020F04D00B4A137843F0D0
:104070000403137010F0100F04D0074A137843F0B4
:104080000803137010F0800F04D0034A137843F034
:1040900001031370704700BF7C0B002008B54FF47C
:1040A000C051072000F0A2FA00F058FB00F0B0FA6F
:1040B0000028FBD000F0DAFB3238084AD06000EB71
:1040C000D0735B109362D36210F1020FD8BF00234C
:1040D000034A53701B12937008BD00BF1C0A0020D6
:1040E000900B002008B50F4BDB68802B07DD0E4BD3
:1040F00093F8333003B108BD00F074F9FBE70A4AC6
:1041000092F8332052B10133064AD360802BF2DD9E
:1041100005221146022000F01FFAECE7014B0022B5
:10412000DA60E8E7E00900201C0A00200F4B0122BA
:104130001A801A46136913F0010FFBD10B4B4FF491
:1041400001421A8000221A621A46136913F0200FE6
:10415000FBD1064B00225A621A46136913F0400F36
:10416000FBD1024B93225A81704700BF00240040CC
:1041700010B5054C227832B9044B13B10448AFF3A3
:1041800000800123237010BD200B002000000000E0
:104190000000000008B5034B1BB103490348AFF30F
:1041A000008008BD00000000240B0020000000007B
:1041B0000D4AD36823F4E0631B041B0C43F0BF6378
:1041C00043F40033D360BFF35F8F62B6074BE02246
:1041D00083F80B234FF40061196083F84E234FF4EA
:1041E00080429A60704700BF00ED00E000E100E00F
:1041F00008B54FF4C051052000F0F8F900F0AEFA10
:1042000000F006FA0028FBD000F030FB3238054BF6
:1042100058601862D86220EAE070034B58700012B0
:10422000987008BD1C0A0020880B00204FF08443C2
:10423000586C20F4605020F018004004400C9B693A
:1042400013F0010F0ED04FF084439A6942F002023E
:104250009A619A6922F001029A611A46936913F0F1
:10426000010FFBD17047FEE700B583B00022114675
:10427000084800F033FA0848084B019300230093E4
:1042800000F10E03021D00F10C01FFF797FE03B0D1
:104290005DF804FBA1420000E00A0020620B002050
:1042A00008B5FFF7C3FF10F0070001D0072809D1B8
:1042B000064B1B68B3F5A07F2CBF054B054B0122B5
:1042C0001A7008BDFFF7D0FFFBE700BFE00A00202F
:1042D0007A0B0020780B00200A4B1B7E83B9094B18
:1042E0009B68032B0CD0084B1B781BB1074B1B683A
:1042F000032B05D0044B01221A70044B03221A60D1
:10430000704700BFE00900207D0B0020640B0020F7
:104310000A4B1B7E83B9094B9B68022B0CD0084BC0
:104320001B781BB1074B1B68022B05D0044B0122E5
:104330001A70044B02221A60704700BFE009002087
:104340007D0B0020640B0020014658B1084B4FF450
:1043500000729A61074B1970074B9A7861F341021A
:104360009A707047024B4FF400725A61F2E700BF37
:10437000008000411C0A00205C0B002038B50A4D6B
:104380000024AC60094B5C702046FFF70FF8204614
:10439000FFF7C0FD2046FFF7D7FF2C742C76EC61A9
:1043A00085F8264038BD00BFE00900205C0B0020E6
:1043B000094B1B7E73B9084B9B685BB1074B1B789D
:1043C00013B1074B1B682BB1044B01221A70044B2D
:1043D00000221A60704700BFE00900207D0B00201A
:1043E000640B0020094B1B7E7BB9084B9B68012B9B
:1043F0000BD0074B1B781BB1064B1B68012B04D05D
:104400000123034A1370034A13607047E009002038
:104410007D0B0020640B002070B50A480A4D4FF652
:10442000FF76016811B9436803B970BD83684268BB
:10443000334000F10C0455F823302046984704EB34
:104440008000EEE72C320000B447000008B50748B2
:1044500000F014F8064800F011F8064800F00EF8D5
:10446000054800F00BF8FDF70BFF08BD5C0B0020C2
:10447000880B0020900B0020800B002010B5044614
:1044800042780021007800F0F9F8A2780121207824
:1044900000F0F4F8E2780221207800F0EFF82279B9
:1044A0000321207800F0EAF810BD08B500F0C0F94B
:1044B000FFF762F9FFF72AF8FFF7CBFDFFF756FD8C
:1044C000FFF748FCFFF718FCFFF762FBFFF72EFE33
:1044D000FFF76EFE08BDFEE7094B9B68032B0DD16D
:1044E000074B1B7C2BB9064B00225A610120187424
:1044F0007047034B00221A74012070470020704758
:10450000E009002008B528B1084B9B68022B07D0B2
:10451000002008BD00210846FFF7D0FC0120F8E785
:1045200001210846FFF7CAFC0120F2E7E00900205C
:1045300008B5074A908980B2064B58604CF2FF31AB
:1045400091811B6813B1034A9168984708BD00BF69
:1045500000240040540A0020084B1B786BB9002847
:104560000BDD10B4054B00245C609960DA601861C3
:1045700001221A705DF8044B704770473C0B002015
:1045800000B585B0064B03930122029200230193EC
:10459000009204211520FFF75BF805B05DF804FBDD
:1045A000212F0000074A93889BB223F4F85323F08D
:1045B0001F0301430B439380136B13F0040FFBD1D4
:1045C000704700BF00200043074B93F82E3003F0E4
:1045D0000103002B14BF0120002003D0024B012255
:1045E00083F82E20704700BF00200043074A9388BD
:1045F0009BB223F4F85323F01F0301430B43938032
:10460000136B13F0040FFBD1704700BF001C004375
:10461000074B93F82E3003F00103002B14BF012049
:10462000002003D0024B012283F82E20704700BFE8
:10463000001C004308B5064B4FF40002C3F8982055
:10464000044B00221A725A60186000F027F808BD67
:1046500000800041500B002008B5074B1B7E012B4A
:1046600006D0022B0CBF06200920FEF79FFE08BDD6
:104670000320FEF79BFEFAE7E0090020064B93F8C3
:104680002F33834206D9032904D8034B03EB800060
:104690000844C273704700BF10000020064B1B6B1C
:1046A00013F0800F05D120F07F40034BD866012026
:1046B00070470020704700BF0060014110B5002323
:1046C000934206D113F0030018BF012000EB9300C2
:1046D00010BDC45CCC540133F2E7FEE710B428B13E
:1046E000044B43F8320003EBC20359605DF8044BFE
:1046F000704700BF000B00205AB110B40A44431E9B
:1047000011F8014B03F8014F9142F9D15DF8044BC8
:1047100070477047044A138843F002031380136BF9
:10472000002BFCD1704700BF00200043044A137DDA
:1047300043F002031375136B13F4006FFBD1704742
:1047400000200043044A138843F002031380136BD4
:10475000002BFCD1704700BF001C0043044A137DAE
:1047600043F002031375136B13F4006FFBD1704712
:10477000001C0043044A138843F0020313801369AA
:1047800013F0020FFBD1704700240040034B0122BD
:10479000DA7200221A735A739A737047100000205D
:1047A000034B0222DA721873597300229A7370470E
:1047B00010000020DD470000BD4600008D480000CD
:1047C0008D4800008D48000032B1C9B20244034652
:1047D00003F8011B9342FBD1704700BF0A4400233A
:1047E000914201D10020704701F8013BF8E7FEE754
:1047F000024B0322DA729873704700BF100000204A
:10480000024B0322DA7206229A73704710000020CE
:1048100010B1024B9861D961704700BF000B0020B6
:104820000001020304050607080C1014182030408C
:10483000024B40F204521A80704700BF0040004112
:10484000024BD86AC0F38000704700BF00400041AF
:10485000024B012283F82620704700BFE0090020A8
:10486000014BB3F84000704700200043014BB3F800
:1048700040007047001C0043014B1860996070476E
:10488000540A0020550155091501150900207047EB
:0A489000FEE7FEE7FEE77047704701
:0200000400807A
:0C4000003912003C9100A82AFFFFFFFFCE
:00000001FF
