:10000000F0FF0320C1050000630A0000650A00003C
:10001000690A00006B0A00006D0A00000000000081
:10002000000000000000000000000000610A000065
:10003000670A000000000000610A0000610A000079
:10004000610A0000610A0000610A0000610A000004
:10005000610A0000610A0000610A0000610A0000F4
:10006000610A0000610A0000610A00009D090000A9
:10007000610A0000610A0000610A0000610A0000D4
:10008000610A0000610A0000610A0000610A0000C4
:10009000610A0000610A0000610A0000610A0000B4
:1000A000610A0000610A0000610A0000610A0000A4
:1000B000610A0000610A0000610A0000610A000094
:1000C000610A0000610A0000610A0000610A000084
:1000D000610A0000610A0000610A0000610A000074
:1000E000610A0000610A000000000000000000003A
:1000F00000000000610A0000610A0000610A0000BF
:10010000610A0000610A0000610A0000610A000043
:10011000610A0000610A0000610A0000610A000033
:10012000610A0000610A0000610A0000610A000023
:10013000610A0000610A0000610A0000610A000013
:10014000610A0000610A0000610A0000610A000003
:10015000610A0000610A00000000000000000000C9
:10016000000000000000000000000000000000008F
:10017000000000000000000081020000610A000091
:10018000610A0000610A0000610A0000610A0000C3
:1001900000000000610A0000610A0000610A00001E
:1001A000610A0000610A0000610A0000610A0000A3
:1001B000610A0000610A0000610A0000610A000093
:1001C000610A0000610A0000610A0000610A000083
:1001D000610A0000610A0000610A0000610A000073
:1001E000610A0000610A0000610A0000610A000063
:1001F000610A0000610A0000610A0000610A000053
:10020000610A00000000000000000000610A000018
:10021000610A0000610A0000610A0000610A000032
:10022000610A0000610A0000610A0000610A000022
:10023000610A0000610A0000610A0000610A000012
:10024000610A0000610A0000610A0000610A000002
:10025000610A0000610A0000610A0000610A0000F2
:10026000F8B500BFF8BC08BC9E4670470D090000F9
:10027000F8B500BFF8BC08BC9E467047E90800000E
:100280002DE9F04784B04FF084431C6D14F0007FDB
:100290001CBF4FF000721A6514F0010F63D04FF0CD
:1002A000844301221A655A6D22F001025A65D3F87F
:1002B000A43013F07F0F56D04FF08443D3F8A450EE
:1002C000C5F305252B01854AD268D718D15811F0FE
:1002D000804FD15805EB8500814E56F8200014BFA1
:1002E00021F06041C1F38A410160D2587B6813F468
:1002F000001F03D112F0005F40F0E68005EB85039C
:10030000774A02EB83031B6900221A707E68754BE3
:100310000FCB0DF1100C0CE90F00C6F30346664439
:1003200016F810AC6E4E4FEA850808EB050906EB8F
:100330008909524607F10801D9F8040000F054FB7E
:10034000D9F8083083F800A0D9F80C300BB17A68DE
:100350001A804FF08443C3F8A850634B1B6813B155
:10036000614A5068984714F0100F67D04FF08443EB
:1003700010221A655A6D22F010025A65D3F8B43073
:1003800013F07F0F5AD04FF08443D3F8B450C5F325
:1003900005252B01514A1269D718D15811F0804F09
:1003A000D05805F1010101EB81014D4E56F8216055
:1003B00014BF20F06040C0F38A403060D2587B68A0
:1003C00013F4001F02D112F0005F74D105EB850316
:1003D000434A02EB83035B6A00221A707E68414B3A
:1003E0000FCB0DF1100C0CE90F00C6F30346664469
:1003F00016F8108C3A4E6B1C03EB830306EB830359
:10040000424607F10801586800F0EEFAAB005A19AD
:1004100006EB8202D26982F800802B4406EB830649
:10042000336A0BB17A681A804FF08443C3F8B8502E
:100430002D4B9B6813B12C4AD068984714F4007F69
:1004400020D04FF084434FF400721A655A6D22F4A5
:1004500000725A65D3F8D820D3F8E03013F0010FBA
:100460000AD012F0010F07D04FF08442D2F8E030EA
:1004700023F00103C2F8E0301B4B9B6913B11A4A09
:10048000D069984714F4006F12D04FF084424FF4B3
:1004900000631365D2F8C430C3F30423D2F8C42038
:1004A000C2F30442934203D20133DBB29A42FBD13E
:1004B00004B0BDE8F08705EB8503094A02EB83032E
:1004C0005B6A01221A7089E705EB8503044A02EB97
:1004D00083031B6901221A7018E700BF1000002077
:1004E00038000020300A0000600000202C4B002261
:1004F0001A7403F500632B4ADA621A46536813F044
:10050000200FFBD1284B01225A711A46D37813F0E1
:10051000010FFBD0254B264A1A621A46536813F086
:10052000040FFBD1214B234A5A621A46536813F039
:10053000080FFBD11D4B204A9A621A46536813F0EC
:10054000100FFBD1194B1B4A1A631A46536813F05C
:10055000400FFBD1154B4322C3F8A4201A46D2F812
:10056000A43013F0400FFAD0104B4422C3F8EC2013
:100570001A46D2F8EC3013F0400FFAD00B4B44225D
:10058000C3F8F0201A46D2F8F03013F0400FFAD03A
:10059000054B0A4A1A6144F2FF725A61704700BF64
:1005A000001400400401200000080040001C00402E
:1005B000060101000601020006013000FFFFFB00FA
:1005C00008B51B4B98471B4B9847EFF3108172B649
:1005D000194AD2F8883043F47003C2F88830BFF368
:1005E0004F8FBFF36F8F01B962B6144C2023636045
:1005F00000F072F8124B23F07F030F4A9360114B07
:100600009847A36823F00103A3602346DA6812F039
:10061000010FFBD1094B5A6842F004025A600122D3
:100620009A60094B9847094B984700F0EBF9FEE7B1
:100630006F0A00006F0A000000ED00E0006000415A
:10064000000000005D0800006F0A00006F0A000053
:1006500038B54FF0844301229A611A46936913F02A
:10066000010FFBD04FF084439A6942F002029A6175
:10067000164ADA612B22C3F8802001221A629A6995
:1006800022F4804222F0010242F480429A611A462A
:10069000936913F0010FFBD14FF0844300249C6554
:1006A0000122DA654FF000725A65094D2C606C60CA
:1006B000AC6028222146074800F0CAF9EC602C61A2
:1006C0006C61AC61EC612C626C6238BD00050200AB
:1006D00010000020380000201E4B1F4A9342F0B447
:1006E00038BF002103D203F8011B9342FBD11B4A00
:1006F000D2E9000150EA01034FF0000610D09468DF
:10070000034602F10C076CB921B1014403F8016BF7
:100710009942FBD13A46D2E9000150EA0103EED1F9
:10072000F0BC704759B101F10C030C38801A1A441F
:100730003B461C1813F8015B25709342F9D111F068
:10074000030318BF012303EB910107EB81073A462E
:10075000E1E700BF10000020100000200C0800009E
:100760004FF4005318684FF000531B78012B12D040
:10077000013018BF01204FF0005311221A7082225D
:100780005A7013229A708422DA7000221A710122A0
:100790005A719A7170474FF000535B78022BE7D182
:1007A0004FF000539B78032BE2D14FF00053DB78DE
:1007B000042BDDD10020DEE7134B05221A60022254
:1007C00083F84020012183F84210402283F843201F
:1007D00083F84B2083F84E2083F8532083F856107B
:1007E00083F8571083F83110882083F83B004FF0CE
:1007F0000040C3F8800083F8C42083F8D72083F832
:10080000DF1083F8BF207047008000418000002087
:100810001C0000000000000060000020200000001C
:100820000000000010000020280000000000000070
:100830003800002028000000000000009C0000207C
:100840000C00000000000000A800002004000000D0
:1008500000000000000000000000000070B50D4D19
:100860000D4C641BA4100026A64209D10B4D0C4C64
:10087000FFF7F6FC641BA4100026A64205D170BD4C
:1008800055F8043B98470136EEE755F8043B984786
:100890000136F2E76C0200006C0200006C020000FE
:1008A000700200000F4B01221A801A46136913F0E0
:1008B000010FFBD10B4B4FF401421A8000221A6248
:1008C0001A46136913F0200FFBD1064B00225A621F
:1008D0001A46136913F0400FFBD1024B83225A8151
:1008E000704700BF0024004010B5054C237833B991
:1008F000044B13B10448AFF300800123237010BDF3
:1009000080000020000000000000000008B5034B3C
:100910001BB103490348AFF3008008BD000000008D
:1009200084000020000000000D4AD36823F4E06337
:100930001B041B0C43F0BF6343F40033D360BFF3CD
:100940005F8F62B6074BE02283F80B234FF4006100
:10095000196083F84E234FF480429A60704700BFBD
:1009600000ED00E000E100E00B4B01221A601A46A6
:10097000136913F0010FFBD1074B4FF4C2621A60E9
:1009800001221A7302229A8333229A721A46136939
:10099000002BFCD1704700BF0038004008B5074A63
:1009A000908980B2064B58604CF2FF3191811B68F0
:1009B00013B1034A9168984708BD00BF0024004066
:1009C0009C00002008B500F03BF8FFF7F5FEFFF7AC
:1009D0008DFD00F02CF8FFF73BFEFFF763FFFFF7FC
:1009E000C3FFFFF7A1FF08BD0A44914200F1FF33A6
:1009F00000D1704710B511F8014B03F8014F914237
:100A0000F9D110BD08B50020FFF7DCFFFFF7A8FE05
:100A100000B9FEE700F001F8FBE74FF400531B6854
:100A200083F3088842F204031B6818477047704735
:100A30000001020304050607080C101418203040BA
:100A4000024B4FF482721A80704700BF0040004191
:100A500002440346934200D1704703F8011BF9E7B3
:100A6000FEE7FEE7FEE7FEE7FEE7FEE7FEE770478C
:10200000F8FF032079330000233F00006340000005
:10201000E3400000E5400000E74000000000000051
:10202000000000000000000000000000433D000030
:10203000E140000000000000433D0000433D00007F
:10204000433D0000433D0000433D0000433D000090
:10205000433D0000433D0000433D0000433D000080
:10206000433D0000433D0000433D0000753E00003D
:10207000433D0000433D0000433D0000433D000060
:10208000433D0000433D0000433D0000433D000050
:10209000433D0000433D0000433D0000433D000040
:1020A000433D0000433D0000433D0000433D000030
:1020B000433D0000433D0000433D0000433D000020
:1020C000433D0000433D0000433D0000433D000010
:1020D000433D0000433D0000433D0000433D000000
:1020E000433D0000433D00000000000000000000F0
:1020F00000000000433D0000433D0000433D000060
:10210000433D0000433D0000433D0000433D0000CF
:10211000433D0000433D0000433D0000433D0000BF
:10212000433D0000433D0000433D0000433D0000AF
:10213000433D0000433D0000433D0000433D00009F
:10214000433D0000433D0000433D0000433D00008F
:10215000433D0000433D000000000000000000007F
:10216000000000000000000000000000000000006F
:102170000000000000000000B9280000433D0000FE
:10218000433D0000433D0000433D0000433D00004F
:1021900000000000433D0000433D0000433D0000BF
:1021A000433D0000433D0000433D0000433D00002F
:1021B000433D0000433D0000433D0000433D00001F
:1021C000433D0000433D0000433D0000433D00000F
:1021D000433D0000433D0000433D0000433D0000FF
:1021E000433D0000433D0000433D0000453D0000ED
:1021F000713D0000213E0000F53D0000C93D00009A
:102200009D3D00000000000000000000433D000074
:10221000433D0000433D0000433D0000433D0000BE
:10222000433D0000433D0000433D0000433D0000AE
:10223000433D0000433D0000433D0000433D00009E
:10224000433D0000433D0000433D0000433D00008E
:10225000433D0000433D0000433D0000433D00007E
:10226000F8B500BFF8BC08BC9E4670470D3A0000A8
:10227000F8B500BFF8BC08BC9E467047E9390000BD
:1022800070B582B09F4B1B78A3B99F4B1B78002B76
:1022900040F08F819D4B1B78002B40F091819C4B2F
:1022A0001B78002B00F08A81994B00221A7001F0F4
:1022B0008FFC83E1934B00221A70964B1B7B082BFB
:1022C00005D1944C221D04F10C05002103E001F01E
:1022D0007FFC73E1194612F8010B80EA0103DBB2BF
:1022E000AA42F7D1884223D18A4B1B798A4A1278B5
:1022F0009A4220D0884A1370864B03F114020433AB
:1023000093E8030082E80300844B5B78B3B9814B08
:102310005B79013B092B50D8DFE813F049006800D6
:1023200072007B009400AB00C500DC002E000801A9
:1023300001F04EFC42E101F04BFC3FE10021774B04
:102340005970A2F114030B225A75143304F11B02C5
:1023500013F8010B41409342FAD16E4AD1766F4B8C
:102360001878002300931432082100F5A07000F0C3
:1023700065FF01F02DFC21E1684B93F871397BB1C9
:10238000674A0023674EA2F2516500BF52F8040B62
:10239000316841F82300013395F871198B42F5DB60
:1023A000604B1B684FF05A32C3F8FC2305E05B4BCF
:1023B000D3F80220574BC3F817205B4B04F11B02E4
:1023C000002100BF13F8010B41409342FAD1514A5A
:1023D000D176524B1878002300931432082100F56F
:1023E000A07000F02BFF01F0F3FBE7E04B4BD3F8BC
:1023F0000610484AC2F8171000229A71DA71DCE719
:10240000444A464B53F80A1FC2F816101B799376BC
:10241000D3E7404B9B79414A92F82F239A4209D93E
:1024200002333E4A02EB8303D3F80720394BC3F84B
:102430001720C2E7374B00225A7504229A750122F1
:10244000DA75BAE7334B9B79344A92F850269A42B0
:1024500007D9CC33314A52F823202E4BC3F817202A
:10246000ABE72C4B00225A7505229A750122DA75CA
:10247000A3E7284B9B79294A92F871299A420AD9F5
:1024800003F5CA73254A02EB8303D3F80120214BDD
:10249000C3F8172091E71F4B00225A7506229A7540
:1024A0000122DA7589E71B4B9B791C4A92F850266A
:1024B0009A4207D9CC33174AD2F81710174A42F874
:1024C00023107AE7134B00225A7507229A750122CE
:1024D000DA7572E70F4B9B79104A92F871299A428C
:1024E00008D90C4AD2F817100C4A02EB8303C3F840
:1024F000511662E7074B00225A7508229A7501228D
:10250000DA755AE7420B0020410B0020400B0020F7
:10251000270B0020880A0020250B00201000002037
:1025200061060020540B00209C0A0020524BD3F877
:1025300074692EB3514B987928B14F4BDB7A012B3C
:102540002ED04D4B98724C4D0423EB7200232B730D
:102550006B734A498B7A00934B7A0A7AC979B047F0
:10256000EB7A032B03D90322EA720522AA73434AAA
:10257000414B53F80A1FC2F816101B7993761CE7DB
:102580003E4A917999720321D972002119735973C6
:1025900004219973D3F80A30C2F8163091760CE70B
:1025A000364B0322DA7500221A765A7601229A7681
:1025B00003E7334B00221A7001F00AFB02B070BD32
:1025C000304B00221A702D4B1B7B082B1BD12A4B42
:1025D00000225A70294B03F11402191D03C982E825
:1025E00003001B79012B11D0022B2FD0224B18781E
:1025F00000230093244A082100F5807000F01EFE9D
:1026000001F0E6FADAE701F0E3FAD7E71A4B93F8BC
:102610007C3973B9194B00225A759A75DA751A7696
:10262000164B154A91785976D17899761279DA76DF
:10263000DCE7124B02225A750F4AD2F87829117939
:1026400099755179D97592791A76E9E70A4B93F819
:102650007C393BB9094BFF221A7502225A750022B8
:102660009A75C3E7044B012283F87D2900210748AE
:1026700001F000FDBAE700BF10000020880A00202A
:10268000410B0020400B00209C0A00206538000010
:1026900008B582494FF400738B61814B01221A7097
:1026A0004FF4001088619A777E4B1B788BB97E4B74
:1026B0001B78002B2FD17D4B1B78002B4DD17C4BF1
:1026C0001B68002B76D0013B794A1360002B66D043
:1026D00008BD01F009F810B1754B19221A60704B52
:1026E0005B7E63B96E4B1B7E8BB16D4BDA6840F637
:1026F000C3139A42ECDD032000F058FAE8E7684B78
:10270000DB68002BE4DC032000F050FAE0E7032054
:1027100000F04CFAD3E700F0E7FF10B1644B192248
:102720001A605F4BDB7E63B95D4B9B7E8BB15C4B6C
:102730001A6940F2DB539A42CADD062000F036FAED
:10274000C6E7574B1B69002BC2DC062000F02EFAAF
:10275000BEE7062000F02AFAB1E700F0C5FF10B18D
:10276000534B19221A604E4B5B7F63B94C4B1B7F56
:102770008BB14B4B5A6940F627239A42A8DD0920BA
:1027800000F014FAA4E7464B5B69002BA0DC09209B
:1027900000F00CFA9CE7092000F008FA8FE700200F
:1027A00000F004FA00233F4A13703F4A13703F4A77
:1027B00013708DE700F098FF98B13E4B3C221A60F1
:1027C000374B5B7FBBB1364B5A6940F627239A42A1
:1027D0003FF77EAF354B01221A70082000F0E6F972
:1027E00076E700F0E3F9334B1B68002B7FF470AF02
:1027F00001F0E4FB6CE72A4B1B7F5BB1284B5B6964
:10280000002B7FF765AF072000F0D0F9274B01229E
:102810001A705DE7224BDB7E5BB1214B1B69002BFD
:102820007FF756AF042000F0C1F91F4B01221A7048
:102830004EE71B4B9B7E6BB1194B1A6940F2DB5381
:102840009A423FF745AF052000F0B0F9164B012240
:102850001A703DE7124B5B7E5BB1114BDB68002BBE
:102860007FF736AF022000F0A1F90E4B01221A705B
:102870002EE70B4B1B7E6BB1094BDA6840F6C31396
:102880009A423FF725AF012000F090F9054B012255
:102890001A701DE7002000F089F919E70080004157
:1028A000600A0020450B0020460B0020470B00204B
:1028B000340B00202C0B00202DE9F04784B04FF0A2
:1028C00084431C6D14F0007F1CBF4FF000721A652A
:1028D00014F0010F62D04FF0844301221A655A6D43
:1028E00022F001025A65D3F8A43013F07F0F55D0BF
:1028F0004FF08443D3F8A450C5F305252B014A4A71
:10290000D268D718D15811F0804FD15805EB850007
:10291000464E56F8200014BF21F06041C1F38A41B1
:102920000160D2587B6813F4001F02D112F0005FDF
:1029300071D105EB85033D4A02EB83031B6900223D
:102940001A707E683A4B0FCB0DF1100C0CE90F009A
:10295000C6F30346664416F810AC344E4FEA8508B9
:1029600008EB050906EB8909524607F10801D9F879
:10297000040001F0E5FAD9F8083083F800A0D9F88E
:102980000C300BB17A681A804FF08443C3F8A8501A
:10299000284B1B6813B1274A5068984714F4007FEE
:1029A00020D04FF084434FF400721A655A6D22F420
:1029B00000725A65D3F8D820D3F8E03013F0010F35
:1029C0000AD012F0010F07D04FF08442D2F8E03065
:1029D00023F00103C2F8E030164B9B6913B1154A8E
:1029E000D069984714F4006F12D04FF084424FF42E
:1029F00000631365D2F8C430C3F30423D2F8C420B3
:102A0000C2F30442934203D20133DBB29A42FBD1B8
:102A100004B0BDE8F08705EB8503044A02EB8303AD
:102A20001B6901221A708CE7100A0020380A002066
:102A300084400000A80A0020534B00221A7403F5BA
:102A40000063524A5A621A46536813F0080FFBD1CA
:102A50004F4B504A9A621A46536813F0100FFBD13D
:102A60004B4B4D4A1A631A46536813F0400FFBD183
:102A7000474B4222C3F884201A4600BFD2F8843064
:102A800013F0400FFAD0454B00229A6377225A6325
:102A90001A46D36B13F0040FFBD1404B022283F88C
:102AA00030201A46D36B13F0020FFBD13B4A136C54
:102AB00003F00303032BFAD1394B01225A711A4652
:102AC000D37813F0010FFBD0314B364A1A621A4605
:102AD000536813F0040FFBD12D4B4122C3F8A420FF
:102AE0001A4600BFD2F8A43013F0400FFAD0284B9A
:102AF0004122C3F8E8201A46D2F8E83013F0400F1C
:102B0000FAD0234B4422C3F8EC201A46D2F8EC301A
:102B100013F0400FFAD01E4B4122C3F8F4201A469E
:102B2000D2F8F43013F0400FFAD0194B4122C3F819
:102B3000F8201A46D2F8F83013F0400FFAD0144BB0
:102B40004122C3F820211A46D2F8203113F0400F59
:102B5000FAD00F4B4122C3F824211A46D2F824316F
:102B600013F0400FFAD00E4B6FF07F421A614CF217
:102B7000FF725A610C4A9A6142F26002DA614FF4C4
:102B8000C0721A62704700BF0014004006010100C5
:102B9000001C004006013000060102000010004049
:102BA000000800400701010056E00100554BD870B5
:102BB000092800F2A580DFE800F0050B1D2F3E502C
:102BC00062718395504B4FF40042C3F894207047D4
:102BD0004D4B4FF40042C3F898200122C3F89820CF
:102BE0000222C3F898204FF480729A610422C3F83D
:102BF00094207047444B4FF40042C3F898200122C0
:102C0000C3F898200222C3F898204FF480729A618A
:102C10000422C3F8982070473B4B4FF40042C3F89E
:102C200098200122C3F898200222C3F898204FF47C
:102C300080725A617047344B4FF40042C3F89820B9
:102C40000122C3F898200222C3F894204FF4807226
:102C50009A610422C3F8942070472B4B4FF4004232
:102C6000C3F898200122C3F898200222C3F89420C8
:102C70004FF480729A610422C3F898207047224B67
:102C80004FF40042C3F898200122C3F89820022292
:102C9000C3F894204FF480725A6170471A4B4FF476
:102CA0000042C3F898200122C3F894200222C3F8FE
:102CB00098204FF480729A610422C3F894207047E0
:102CC000114B4FF40042C3F898200122C3F894201E
:102CD0000222C3F898204FF480729A610422C3F84C
:102CE00098207047084B4FF40042C3F89820012207
:102CF000C3F894200222C3F898204FF480725A61DE
:102D0000704700BF600A00200080004108B5514BA9
:102D100093F82030012B0DD04F4A4FF400735361CC
:102D20004C4B002018704FF4001151619877FFF759
:102D30003DFF08BD484A4FF400739361454B0121A4
:102D400019704FF40011516100229A7700F0CCFC09
:102D500048B9404B5B6A062B78D8DFE803F00B13C9
:102D600023344656660000203A4B83F82000FFF7D4
:102D70001DFFDEE7002000F0A1FD364A536A013353
:102D80005362D6E7334B5B69C82B03DD0720FFF79F
:102D90000DFFCEE70920FFF709FF2E4A536A0133E2
:102DA0005362C6E72B4BDB68B3F5166F03DA0120DD
:102DB000FFF7FCFEBDE70320FFF7F8FE254A536A44
:102DC00001335362B5E7234B1A6940F2DB539A4251
:102DD00003DC0520FFF7EAFEABE70620FFF7E6FE7F
:102DE0001C4A536A01335362A3E71A4B1B69002B39
:102DF00003DD0420FFF7DAFE9BE70620FFF7D6FE8F
:102E0000144A536A0133536293E7124BDB68002B79
:102E100003DD0220FFF7CAFE8BE70320FFF7C6FEA3
:102E20000C4A536A0133536283E70A4B5B69B3F57B
:102E3000FA6F03DA0820FFF7B9FE7AE70920FFF7F7
:102E4000B5FE044A536A0133536272E7014B002214
:102E50005A626EE7600A0020008000412DE9F84FB9
:102E60008B46924698469DF828709DF82C609DF8F8
:102E700030503F4BD3F800903E4C207001236370DC
:102E80003D4800F031FAA770E67025710223E37225
:102E9000002323736373A373A371E37123726372BB
:102EA00084F82FB384F850A6B8F1000F03D009F0CE
:102EB0000F03012B13D02F4B002283F871292D4AC9
:102EC0000D9BC2F874394FF00053C2F878391B7863
:102ED000112B2CD0274B002283F87C293FE0C9F32B
:102EE0000219B9F1010FE6D184F8718901F0DAF81D
:102EF0000028FBD1214B1968D1F8FC33B3F15A3FBC
:102F000009D01F4B03EB8808002200BF43F8042BB5
:102F10004345FBD1D3E70B46194A01EB880800BFB4
:102F200053F8041B42F8041B4345F9D1C7E74FF09F
:102F300000535B78822BCDD14FF000539B78132B3D
:102F4000C8D14FF00053DB78842BC3D1094B012249
:102F500083F87C294FF00053DF711E725D72054BC0
:102F6000002283F87D2900F033FEBDE8F88F00BF12
:102F70000440800010000020E0090020540B0020D5
:102F800061060020C80A00201C00000000000000AC
:102F9000200B002005000000000000004C0B00206A
:102FA000050000000100000001000000000000001A
:102FB000E00900203000000000000000880A002026
:102FC0002000000000000000100000208009000028
:102FD00000000000250B002003000000000000009E
:102FE000400B00200300000000000000540B0020F4
:102FF000040000000100000000000044A80A0020B6
:103000002000000000000000100A00205000000016
:1030100000000000430B0020010000000000000041
:10302000E40A00203C00000000000000440B0020E7
:103030000500000000000000280B00200400000034
:1030400000000000490B002001000000000000000B
:103050002C0B00200C00000000000000600A002083
:103060002800000000000000380B002004000000D1
:103070000000000090090020500000000000000047
:103080003C0B0020040000000000000000000000D5
:103090000000000070B4374B374A1A60012083F8F3
:1030A0004200072283F8432083F8440083F8450058
:1030B00083F8460083F84700402283F8482083F8CD
:1030C0004920022183F84A1083F84B1083F84C20E2
:1030D00083F84D2083F84E1083F84F1083F850107A
:1030E00083F8511083F8521083F85310062483F8A4
:1030F0005440442483F8554083F8560083F8570021
:1031000083F85B10112583F8315083F8325083F82F
:103110003350882683F83B60184EC3F8806083F8EC
:10312000C04083F8C14083F8C24083F8C31083F8DD
:10313000C41083F8C62083F8C70083F8C80083F85A
:10314000C90083F8CA2083F8CB2083F8CC2083F809
:10315000CD2083F8CE2083F8CF2083F8D62083F8C3
:10316000D74083F8DF20102283F8B32083F8B450CF
:1031700070BC704700800041F013200007F0C08051
:1031800008B54FF4C051052000F088FE00F0FEFEA7
:1031900000F096FE0028FBD000F092FF3238234B5F
:1031A000D8604FF4C051062000F078FE00F0EEFE2B
:1031B00000F086FE0028FBD000F082FF32381B4B67
:1031C00018614FF4C051072000F068FE00F0DEFEE9
:1031D00000F076FE0028FBD000F072FF134B32386F
:1031E00058619B68012B17D0032B18D08BB1104B63
:1031F0001B785BB100220E4B1A700E4B19680B4BFB
:1032000099605A6283F8202001290BD000F036FA29
:1032100008BD00F0BBF9EAE7FFF73AFAE7E7FFF786
:1032200075FDE4E7044B3C221A60EFE7600A0020DA
:10323000490B0020280B00202C0B0020F8B59DF82E
:1032400018C0BCF1010F01D90020F8BD4FF0844334
:10325000D3F8C43013F4001F3FD14FF08443D3F8A8
:10326000C440C4F3044426011D4B9F69BD19B0F549
:10327000006F26BF20F0604040F080408004B851CD
:103280000B46082928BF0823180468601CF0FD0FAE
:103290001ED111461A4605F1080000F051FE114AF0
:1032A00013780133DBB213706A6842EA036343F4B4
:1032B00000036B60012000FA04F44FF08443C3F86C
:1032C000E040C3F8D0405A6D42F400725A65BCE742
:1032D000BB5943F00053BB51E1E70020B5E700BF05
:1032E000100A0020430B002038B50446302200218C
:1032F00000F0A4FE4FF0844301229A611A469369BC
:1033000013F0010FFBD04FF084439A6942F00202A0
:103310009A611749CC60A2B242F0004242F4803276
:10332000C3F8A02004F110028A6192B242F08072C8
:10333000C3F8C02004F12002CA6192B242F4803284
:10334000C3F8F02004F128020A620A4D03CDA062FE
:10335000E16292B242F40032C3F884209A6922F00A
:1033600001029A611A46936913F0010FFBD138BD2F
:10337000100A0020D440000008B51B4B98471B4B97
:103380009847EFF3108172B6194AD2F8883043F4A7
:103390007003C2F88830BFF34F8FBFF36F8F01B94E
:1033A00062B6144C2023636000F09AFC124B23F0A9
:1033B0007F030F4A9360114B9847A36823F00103E2
:1033C000A3602346DA6812F0010FFBD1094B5A685B
:1033D00042F004025A6001229A60094B9847094B57
:1033E000984700F011F8FEE7E9400000E9400000CE
:1033F00000ED00E0006000410020000009380000FE
:10340000E9400000E940000008B5002000F00CFB96
:1034100000211B4800F04EFE00F0A0FD00F016FD5C
:1034200000F0A8FD174B4FF40002C3F898204FF4AA
:1034300080525A6100F020FC134C124E4FF00045B0
:1034400000F044FE237813F0010F0BD1237813F022
:10345000020F0FD1237813F0040FF1D023F00403EF
:103460002370EDE723F00103237000F0C9FDC6F8D7
:103470009C50EBE723F002032370FFF781FEE9E79E
:10348000413C000000800041440B002008B50628A4
:1034900038D8DFE800F0040B121920272B0000F0C9
:1034A0008DFD0021084600F0A1FD08BD00F086FD5D
:1034B0000021084600F09AFDF7E700F08BFD00219F
:1034C000084600F093FDF0E700F06CFD002108468F
:1034D00000F08CFDE9E700F09DFD0021084600F0BA
:1034E00085FDE2E7042000F0BDFDDEE700F0DEFB35
:1034F00018B9032000F0B6FDD7E70021084600F018
:1035000075FDD2E7042000F0ADFDCEE738B54FF0F1
:10351000844301229A611A46936913F0010FFBD08C
:103520004FF084439A6942F002029A61144ADA61C8
:103530002B22C3F8802001221A629A6922F001022C
:103540009A611A46936913F0010FFBD14FF084433F
:1035500000249C650122DA654FF000725A65094D1E
:103560002C606C60AC6028222146074800F066FDA4
:10357000EC602C616C61AC61EC612C626C6238BDFA
:1035800000050200100A0020380A002008B51A4A77
:103590004FF400735361194B002018704FF4001161
:1035A00051619877FFF702FB154B1B783BB1124B2B
:1035B0004FF48002C3F8982000F096F860B100F054
:1035C00093F8A0B10F4A136801331360802B02DD1A
:1035D0000B4B01221A7008BD074B4FF48002C3F851
:1035E0009420074B00221A7000F014FDF3E7054BFE
:1035F00000221A60EFE700BF00800041600A00204F
:10360000480B0020300B00201A4AD36823F4E063F3
:103610001B041B0C43F0BF6343F40033D360BFF3C0
:103620005F8F62B6144BE02283F80B234FF40060E7
:10363000186083F84E234FF48041996083F86B2320
:10364000D86083F86C234FF48050D86083F86D23E2
:103650004FF40050D86083F86E23D96083F86F234D
:103660004FF40041D96083F870234FF48032DA6060
:10367000704700BF00ED00E000E100E010B5164823
:10368000164CA36843708378227862F30003A27F0C
:1036900062F341038370124A136A9B0A817863F3D1
:1036A00082018170136ADB0ACAB263F3C3028270BB
:1036B00000F030FBE36823EAE3730A4843701B120F
:1036C0008370236923EAE373C370636923EAE373B6
:1036D000037100F01FFB10BD200B0020600A0020CA
:1036E000008000414C0B0020174A116A174B81F4EF
:1036F0000021C1F3C0411976116A81F48021C1F320
:1037000080415976116A81F40031C1F340419976C4
:10371000116A81F48031C1F30041D976116A81F4D4
:103720000041C1F3C0311977126A82F48042C2F3BA
:1037300080325A779B692BB9044B988B003018BFA5
:10374000012070470120704700800041600A00207E
:10375000154B01221A801A46136B13F0010FFBD18F
:103760004FF080131B689A0C02F07002D90A01F422
:10377000E061C3F302430A431A430B4BA3F848200A
:103780004FF480721A803F22DA7203221A724FF4C9
:10379000C0529A800222DA80072283F82E201A462D
:1037A000136B002BFCD1704700200043154B012206
:1037B0001A801A46136B13F0010FFBD14FF08013E0
:1037C0001B681A0902F07002D90001F4E061C3F32A
:1037D00082030A431A430B4BA3F848204FF480722C
:1037E0001A803F22DA7203221A724FF4C0529A8072
:1037F0000022DA80072283F82E201A46136B002B52
:10380000FCD17047001C00430E4A38B500231360FA
:103810000D4A0E4C13600E4A0E4D13600E4A136093
:103820000E4A13600E4A536213610123936000F045
:103830005CFC00F05AFCAC4200D338BD54F8043BA9
:103840009847F8E73C0B00209C0900206C22000000
:10385000980900207022000090090020940900209F
:10386000A0090020124B93F87D3903B97047104B23
:10387000002283F87D29D3F8782901211170D3F82B
:10388000782902215170D3F8782903219170D3F857
:1038900078390422DA70BFF34F8F0649CA6802F400
:1038A000E062054B1343CB60BFF34F8F00BFFDE7D2
:1038B0001000002000ED00E00400FA05072828BFF2
:1038C0000720C0F10700C0B2104B187110F0010FB3
:1038D0000F4B4FF4805214BFC3F89820C3F89420C4
:1038E00010F0020F0A4B4FF4005214BFC3F8982097
:1038F000C3F8942010F0040F054B4FF4804214BF1E
:10390000C3F89820C3F89420704700BF600A0020D5
:1039100000800041F0B59DF81440ECB94FF0844CA4
:10392000DCF8A450C5F305250C4CAE007719BF0098
:1039300004EB070EE051CEF80420CEF80810CEF8C4
:103940000C30069BCEF81030DCF8543043F0010305
:10395000CCF85430012000E00020F0BD380A0020EF
:103960000F4B01221A801A46136913F0010FFBD185
:103970000B4B4FF401421A8000221A621A46136957
:1039800013F0200FFBD1064B00225A621A4613692E
:1039900013F0400FFBD1024B83225A81704700BFC6
:1039A000002400400E4B01221A601A46136913F0DE
:1039B000010FFBD10A4B10221A6003221A73042252
:1039C0005A7130229A8333229A72064A002111607A
:1039D00001225A721A461369002BFCD1704700BFAE
:1039E00000380040F00A002010B5054C227832B9AA
:1039F000044B13B10448AFF300800123237010BDC2
:103A0000C80A0020000000000000000008B5034BB9
:103A10001BB103490348AFF3008008BD000000005C
:103A2000CC0A00200000000008B500F033FBFFF7CF
:103A300031FBFFF701F800F0CAF8FFF767FD00F06F
:103A400013F8FFF78DFFFFF7ADFF00F067F800F008
:103A500083F800F027F800F043F8FFF7A7FEFFF720
:103A600077FEFFF7D1FD08BD0C4B01221A601A4604
:103A7000136913F0010FFBD1084B10221A600122C9
:103A80001A73302199833321997205490020086007
:103A90005A721A461369002BFCD17047003C004053
:103AA000F80A00200C4B01221A601A46136913F021
:103AB000010FFBD1084B10221A6001221A7330212A
:103AC0009983332199720549002008605A721A4679
:103AD0001369002BFCD1704700180042000B002036
:103AE0000C4B01221A601A46136913F0010FFBD127
:103AF000084B10221A6001221A7330219983332156
:103B000099720549002008605A721A461369002B01
:103B1000FCD1704700140042080B00200C4B01221E
:103B20001A601A46136913F0010FFBD1084B1022DB
:103B30001A6001221A733021998333219972054941
:103B4000002008605A721A461369002BFCD1704796
:103B500000C00141100B00200C4B01221A601A46D4
:103B6000136913F0010FFBD1084B10221A600122D8
:103B70001A73302199833321997205490020086016
:103B80005A721A461369002BFCD1704700A00141FC
:103B9000180B00204FF08443586C20F4605020F044
:103BA00018004004400C9B6913F0010F0ED04FF039
:103BB00084439A6942F002029A619A6922F00102F2
:103BC0009A611A46936913F0010FFBD17047704751
:103BD00000B583B000221146084800F0A3F9084858
:103BE000084B01930023009300F10E03021D00F126
:103BF0000C01FFF78FFE03B05DF804FB093C0000E9
:103C0000880A0020260B002008B5FFF7C3FF10F03C
:103C1000070001D0072809D1064B1B68B3F5A07F28
:103C20002CBF054B054B01221A7008BDFFF7D0FFD2
:103C3000FBE700BF880A0020420B0020400B002059
:103C400010F0010F04D00B4A137843F002031370F5
:103C500010F0020F04D0074A137843F004031370E6
:103C600010F0800F04D0034A137843F0010313705F
:103C7000704700BF440B002038B50A4D0024AC60EB
:103C80002046FEF793FF2046FFF718FE064B4FF441
:103C900000725A612C704FF400125A61AC77FFF732
:103CA000EDFC38BD600A0020008000410B4B9B6892
:103CB000032B10D1094B93F8203033B9074B002266
:103CC0005A62012083F820007047044B002283F8D9
:103CD0002020012070470020704700BF600A0020AC
:103CE00070B50A480A4D4FF6FF76016811B943686E
:103CF00003B970BD83684268334000F10C0455F885
:103D000023302046984704EB8000EEE7842F000024
:103D10002840000010B5044642780021007800F0E9
:103D2000E1F8A2780121207800F0DCF8E2780221A5
:103D3000207800F0D7F822790321207800F0D2F81B
:103D400010BDFEE708B5084B5B7A63B1064A937A6B
:103D50003321917203F0FF002BB1044B1B6813B1A8
:103D6000024A5168984708BD00380040F00A002018
:103D700008B5084B5B7A63B1064A937A3321917296
:103D800003F0FF002BB1044B1B6813B1024A5168CA
:103D9000984708BD003C0040F80A002008B5084BD1
:103DA0005B7A63B1064A937A3321917203F0FF0084
:103DB0002BB1044B1B6813B1024A5168984708BDE8
:103DC00000180042000B002008B5084B5B7A63B175
:103DD000064A937A3321917203F0FF002BB1044B12
:103DE0001B6813B1024A5168984708BD001400428D
:103DF000080B002008B5084B5B7A63B1064A937A3A
:103E00003321917203F0FF002BB1044B1B6813B1F7
:103E1000024A5168984708BD00C00141100B0020BC
:103E200008B5084B5B7A63B1064A937A33219172E5
:103E300003F0FF002BB1044B1B6813B1024A516819
:103E4000984708BD00A00141180B002000B585B0BF
:103E5000074B039301230293002201920093134620
:103E600002211520FEF7FAFF05B05DF804FB00BF44
:103E70008D34000008B5074A908980B2064B58601F
:103E80004CF2FF3191811B6813B1034A9168984746
:103E900008BD00BF00240040E40A0020074A9388C0
:103EA0009BB223F4F85323F01F0301430B43938089
:103EB000136B13F0040FFBD1704700BF001C0043CD
:103EC000074B93F82E3003F00103002B14BF0120A1
:103ED000002003D0024B012283F82E20704700BF40
:103EE000001C0043064B93F82F33834206D9032965
:103EF00004D8034B03EB80000844C273704700BF33
:103F00001000002010B50023934206D113F00300E7
:103F100018BF012000EB930010BDC45CCC540133EA
:103F2000F2E7FEE710B428B1044B43F8320003EB8C
:103F3000C20359605DF8044B704700BFA80A002017
:103F40005AB110B40A44431E11F8014B03F8014F53
:103F50009142F9D15DF8044B70477047044A1388C9
:103F600043F002031380136913F0020FFBD1704773
:103F700000240040044A138843F002031380136BAB
:103F8000002BFCD1704700BF001C0043044A137D86
:103F900043F002031375136B13F4006FFBD17047EA
:103FA000001C0043034B01221A70034B03221A60CA
:103FB000704700BF490B0020280B0020034B012253
:103FC0001A70034B00221A60704700BF490B002093
:103FD000280B0020034B01221A70034B02221A60A7
:103FE000704700BF490B0020280B0020034B022222
:103FF000DA721873597300229A7370471000002008
:10400000034B1B6813B1013B014A1360704700BFAB
:104010002C0B00200123024A1370024A13607047E0
:10402000490B0020280B002051400000053F0000F4
:10403000DD400000DD400000DD40000032B1C9B2CB
:104040000244034603F8011B9342FBD1704700BFB3
:104050000A440023914201D10020704701F8013B3E
:10406000F8E7FEE7024B0322DA729873704700BF4D
:104070001000002010B1024B9861D961704700BF59
:10408000A80A00200001020304050607080C10140A
:1040900018203040024B40F204521A80704700BF93
:1040A00000400041024BD86AC0F38000704700BF57
:1040B00000400041014B186099607047E40A0020FD
:1040C000014BB3F840007047001C004308B5FEF7F1
:1040D000D7F808BD5501550915011509002070478D
:0C40E000FEE7FEE7FEE7FEE770477047D2
:0200000400807A
:0C4000003912003C9100A82AFFFFFFFFCE
:00000001FF
