:020000040000fa
:10200000f0ff0320d13a00003345000037470000bd
:10201000ed480000ef480000f1480000000000001b
:10202000000000000000000000000000c3420000ab
:102030004b48000000000000c3420000c342000003
:10204000c3420000c3420000c3420000c34200007c
:10205000c3420000c3420000c3420000c34200006c
:10206000c3420000c3420000c34200008d4500008f
:10207000c3420000c3420000c3420000c34200004c
:10208000c3420000c3420000c3420000c34200003c
:10209000c3420000c3420000c3420000c34200002c
:1020a000c3420000c3420000c3420000c34200001c
:1020b000c3420000c3420000c3420000c34200000c
:1020c000c3420000c3420000c3420000c3420000fc
:1020d000c3420000c3420000c3420000c3420000ec
:1020e000c3420000c34200000000000000000000e6
:1020f00000000000c3420000c3420000c3420000d1
:10210000c3420000c3420000c3420000c3420000bb
:10211000c3420000c3420000c3420000c3420000ab
:10212000c3420000c3420000c3420000c34200009b
:10213000c3420000c3420000c3420000c34200008b
:10214000c3420000c3420000c3420000c34200007b
:10215000c3420000c3420000000000000000000075
:10216000000000000000000000000000000000006f
:10217000000000000000000001310000c342000028
:10218000c3420000c3420000c3420000c34200003b
:1021900000000000c3420000c3420000c342000030
:1021a000c3420000c3420000c3420000c34200001b
:1021b000c3420000c3420000c3420000c34200000b
:1021c000c3420000c3420000c3420000c3420000fb
:1021d000c3420000c3420000c3420000c3420000eb
:1021e000c3420000c3420000c3420000c3420000db
:1021f000c3420000c3420000c3420000c3420000cb
:10220000c34200000000000000000000c3420000c4
:10221000c3420000c3420000c3420000c3420000aa
:10222000c3420000c3420000c3420000c34200009a
:10223000c3420000c3420000c3420000c34200008a
:10224000c3420000c3420000c3420000c34200007a
:10225000c3420000c3420000c3420000c34200006a
:020000040000fa
:10226000f8b500bff8bc08bc9e467047f1410000bd
:10227000f8b500bff8bc08bc9e467047cd410000d1
:020000040000fa
:1022800070b582b09f4b1b78a3b99f4b1b78002b76
:1022900040f08f819d4b1b78002b40f091819c4b2f
:1022a0001b78002b00f08a81994b00221a7002f0f3
:1022b00009f883e1934b00221a70964b1b7b082b85
:1022c00005d1944c221d04f10c05002103e001f01e
:1022d000f9ff73e1194612f8010b80ea0103dbb242
:1022e000aa42f7d1884223d18a4b1b798a4a1278b5
:1022f0009a4220d0884a1370864b03f114020433ab
:1023000093e8030082e80300844b5b78b3b9814b08
:102310005b79013b092b50d8dfe813f049006800d6
:1023200072007b009400ab00c500dc002e000801a9
:1023300001f0c8ff42e101f0c5ff3fe10021774b0a
:102340005970a2f114030b225a75143304f11b02c5
:1023500013f8010b41409342fad16e4ad1766f4b8c
:102360001878002300931432082100f5a07001f0c2
:1023700011fb01f0a7ff21e1684b93f871397bb1a4
:10238000674a0023674ea2f2516500bf52f8040b62
:10239000316841f82300013395f871198b42f5db60
:1023a000604b1b684ff05a32c3f8fc2305e05b4bcf
:1023b000d3f80220574bc3f817205b4b04f11b02e4
:1023c000002100bf13f8010b41409342fad1514a5a
:1023d000d176524b1878002300931432082100f56f
:1023e000a07001f0d7fa01f06dffe7e04b4bd3f896
:1023f0000610484ac2f8171000229a71da71dce719
:10240000444a464b53f80a1fc2f816101b799376bc
:10241000d3e7404b9b79414a92f82f239a4209d93e
:1024200002333e4a02eb8303d3f80720394bc3f84b
:102430001720c2e7374b00225a7504229a750122f1
:10244000da75bae7334b9b79344a92f850269a42b0
:1024500007d9cc33314a52f823202e4bc3f817202a
:10246000abe72c4b00225a7505229a750122da75ca
:10247000a3e7284b9b79294a92f871299a420ad9f5
:1024800003f5ca73254a02eb8303d3f80120214bdd
:10249000c3f8172091e71f4b00225a7506229a7540
:1024a0000122da7589e71b4b9b791c4a92f850266a
:1024b0009a4207d9cc33174ad2f81710174a42f874
:1024c00023107ae7134b00225a7507229a750122ce
:1024d000da7572e70f4b9b79104a92f871299a428c
:1024e00008d90c4ad2f817100c4a02eb8303c3f840
:1024f000511662e7074b00225a7508229a7501228d
:10250000da755ae77e0b00207d0b00207c0b002043
:102510005f0a0020e00a00205d0a00201000002071
:10252000610600209c0b0020f40a0020524bd3f8d7
:1025300074692eb3514b987928b14f4bdb7a012b3c
:102540002ed04d4b98724c4d0423eb7200232b730d
:102550006b734a498b7a00934b7a0a7ac979b047f0
:10256000eb7a032b03d90322ea720522aa73434aaa
:10257000414b53f80a1fc2f816101b7993761ce7db
:102580003e4a917999720321d972002119735973c6
:1025900004219973d3f80a30c2f8163091760ce70b
:1025a000364b0322da7500221a765a7601229a7681
:1025b00003e7334b00221a7001f084fe02b070bdb5
:1025c000304b00221a702d4b1b7b082b1bd12a4b42
:1025d00000225a70294b03f11402191d03c982e825
:1025e00003001b79012b11d0022b2fd0224b18781e
:1025f00000230093244a082100f5807001f0caf9f5
:1026000001f060fedae701f05dfed7e71a4b93f8c0
:102610007c3973b9194b00225a759a75da751a7696
:10262000164b154a91785976d17899761279da76df
:10263000dce7124b02225a750f4ad2f87829117939
:1026400099755179d97592791a76e9e70a4b93f819
:102650007c393bb9094bff221a7502225a750022b8
:102660009a75c3e7044b012283f87d2900210748ae
:1026700002f0fcf8bae700bf10000020e00a0020da
:102680007d0b00207c0b0020f40a0020693e000036
:020000040000fa
:1026900080b5002001f037ff0021754802f01af9db
:1026a00002f096f801f09aff02f07af802f060f872
:1026b00001f092fe6f4b00221a611a705a606e4b45
:1026c0004ff48002c3f89420962001f0e1ff6b4d97
:1026d0006b4c6c4fdff8bc8155e123f001032b708c
:1026e0004ff4c051092001f08bff02f04df800bffc
:1026f00001f098ff0028fbd002f0e0f800eb40105a
:10270000c000b0f57f4f0eda5f4b83fb002303441c
:10271000c017c0ebe310e061f870574b4ff0004278
:10272000c3f89c2037e1ff20f5e723f002032b706c
:1027300000f098f934e123f004032b70534bdb785d
:1027400003f0f003402b20d04ff4c051002001f0e3
:102750007bff02f031f800bf01f088ff0028fbd0ba
:1027600002f0b2f820614a4bd87000121871337829
:102770008bb17368b268934213da3f4a4ff4800119
:10278000c2f89810013373600fe100232361404abf
:10279000d3701371ebe7384b4ff48002c3f89420e9
:1027a00003e1f1680a44934205da334a4ff48001a9
:1027b000c2f89410e6e73369013b3361002272608e
:1027c000002b40f0f2803270efe001222f4bdb78db
:1027d000c3f3810393422fd0d8f80030013bc8f8ef
:1027e00000306bb34ff4c051002001f009ff01f03d
:1027f000cbff00bf01f016ff0028fbd002f05ef80f
:10280000a061b8701c4b1b6ac3f3c023deb2a67074
:102810001e4a917866f3c301917065283cdd7e28dd
:1028200040f3e580c72840f3e480002b14bf032168
:10283000042132e00222c9e70423c8f80030d1e7be
:102840001249cb7862f38303cb700422c8f80020ce
:1028500003f00c032bb903221146104601f0aafe27
:10286000c0e705221421012001f0a4febae700bf51
:10287000b14000003c0b002000800041800b002094
:10288000200a0020840b002081808080580a0020cc
:10289000940b0020a00b002000216d4bdb78b1ebe6
:1028a000131f00f0a8806b4a1368013b1360002bd4
:1028b00000f0a580684bd3f8a030c3f3c00383f0c9
:1028c000010194f83420914200f0a280634802682c
:1028d000013a0260002a00f0a4805f4a136a83f480
:1028e0000023c3f3c04394f8301063f3000184f86d
:1028f0003010136a83f48023c3f38043c9b263f3b7
:10290000410184f83010136a83f40033c3f3404369
:10291000c9b263f3820184f83010136a83f4803300
:10292000c3f30043c9b263f3c30184f83010136ae0
:1029300083f40043c3f3c033c9b263f3041184f8d2
:102940003010116a81f48041c1f3803194f8303045
:1029500061f3451384f83030dbb23b71003318bfac
:10296000012384f83330136ac3f3405384f83130c1
:10297000374a917863f38201917001f067fc01f0ae
:102980009ffa01f0b9fb364e01f08efd2b7813f063
:10299000010f7ff4a2ae2b7813f0020f7ff4c5aec7
:1029a0002b7813f0040f7ff4c6ae2b7813f0080fca
:1029b000ead023f008032b704ff4c051012001f03e
:1029c0001ffe01f0e1fe00bf01f02cfe0028fbd04d
:1029d00001f074ff6061787053287ff7f6ae8a28a3
:1029e0007ff728afbf28b4bf03220022eee6012103
:1029f00053e7022151e7174b04221a605ae7144ba0
:102a0000da7861f30712da70124b04221a6051e788
:102a1000124b042119600e4bd97862f34101d97031
:102a20005be784f834100a4ad07861f34100d07033
:102a30000a4a042111602bb905221421012001f05a
:102a4000b9fd4ae705221146022001f0b3fd44e733
:102a5000580a0020a80b002000800041a40b002091
:042a60003c0b00200b
:020000040000fa
:102a640070b5a64b1b7edbb9a44b9b68012b00f011
:102a74003e81032b00f03e81002b00f03581a04bfa
:102a84001b78002b40f048819e4b1b6ac3f38023c4
:102a94009d4a53709d4a917863f30001917070bd13
:102aa400964a92f83420002a2fd0944b93f825307c
:102ab40023b1954b93f83330002bf0d18f4b9b6ba4
:102ac400002becd0013b8d4a9363002be7d100200f
:102ad40000f094fc894b002283f834201a7693f892
:102ae4002430002bdbd0854b93f83c303bb1864b34
:102af400d86ac0f30721c0b201f07efecfe77f4b56
:102b040093f83d0001f0a0fec9e7012b2bd0022b66
:102b14002cd001f0effa794a156a7b4bdc6ad36a50
:102b24000133d3627a4801680131016092f82620aa
:102b3400fab9724a92f82520002a3ed0724a92f8d5
:102b4400332042b3322b61dd0f2964dd714a1268f0
:102b5400a11a48bf111b022946dd6d4a00211160ec
:102b64006c4a146057e001f06ffbd4e701f0a6f95a
:102b7400d1e7624b012283f83420002283f83c2001
:102b8400062283f83d2005221146104601f010fd6f
:102b940001f08efd83e7594b012283f83420002293
:102ba40083f83c20092283f83d20052211460220a7
:102bb40001f0fefc01f07cfd71e7534a92f83320ea
:102bc400002abfd04d4b012283f83420002283f821
:102bd4003c200a2283f83d2005221146022001f000
:102be400e7fc01f065fd5ae7444b012283f83420e9
:102bf400002283f83c20072283f83d200522114659
:102c0400032001f0d5fc01f053fd48e7404a0021c0
:102c14001160404a1460394a126b934219dc2e1b2e
:102c240029d4364b996a304601f01afa01f09ef91c
:102c3400012e37dd314b1b7e012b4ed0022b2f4b47
:102c44004ff000029a620cbf0520082000f0d6fb6a
:102c540025e72a4b012283f83420002283f83c2004
:102c6400082283f83d2005221146042001f0a0fc2f
:102c740001f01efd13e7641b204b996a204601f006
:102c8400eff901f073f9012c0cdd1c4b1b7e012bb9
:102c940015d0022b1ad0194b02229a62072000f099
:102ca400adfbfce601f004fd144b012083f8340075
:102cb40083f83c000a22114601f07afcefe60f4b40
:102cc40000229a62022000f099fbe8e60b4b0022f6
:102cd4009a62042000f092fbe1e6084b00229a621b
:102ce400012000f08bfbdae601f028fac7e600f0d9
:102cf400e5fdc4e600f058f8c1e600bfe009002095
:102d0400810b002000800041200a0020580a002086
:102d14006c0b0020700b002000201f4b18701f4b01
:102d24001b681f4ca3601f4a537060612074e061ec
:102d34002076014601f0eef8a368012b12d0022b95
:102d44001ed0002b7ff4a0ae002000f057fb002023
:102d540001f026fb0021084601f0dcf8104b0022ac
:102d6400da6091e6002000f049fb012001f018fb35
:102d74000021012001f0cef842f27112e26083e6f4
:102d8400002000f03bfb012001f00afb00210120a0
:102d940001f0c0f878e600bf810b0020680b00202a
:082da400e0090020580a00209c
:020000040000fa
:102dac0008b56e4b1b7c012b0ad0002001f0f4fa05
:102dbc000021084601f0aaf8002000f01bfb08bd1a
:102dcc00012001f0e9fa0021084601f09ff8644b5c
:102ddc0093f8333053b9614b5b69062b00f2b98021
:102dec00dfe803f00a122b436684990000205b4b4a
:102dfc00187400f0fffae2e7002001f0b3f8574a2c
:102e0c00536901335361dae7554bdb68c82b0cdd92
:102e1c00c83b03ebd3730221581001f01df901f0ec
:102e2c00a1f8072000f0e6fac9e7092000f0e2fa61
:102e3c004a4a536901335361c1e7494b5868b0f5ad
:102e4c00166f0ada0021c0f5166001f005f901f0e1
:102e5c0089f8012000f0cefab1e7032000f0cafa9d
:102e6c003e4a536901335361a9e73d4b9b6840f2dd
:102e7c00db52934214dcc3f5bb63043303eb8303d3
:102e8c005b00384880fb0320db170021c3ebe0001c
:102e9c0001f0e2f801f066f8052000f0abfa8ee7dd
:102eac00062000f0a7fa2d4a53690133536186e7d7
:102ebc002b4b9b68002b11dd03eb83035b00294834
:102ecc0080fb0320db170021c3ebe00001f0c4f80a
:102edc0001f048f8042000f08dfa70e7062000f0ad
:102eec0089fa1e4a53690133536168e71c4b5868d1
:102efc00002808dd002101f0aff801f033f80220c2
:102f0c0000f078fa5be7032000f074fa134a536977
:102f1c000133536153e7124bdb68b3f5fa6f10dae8
:102f2c00c3f5fa6303ebd3730021581001f094f846
:102f3c0001f018f8072000f05dfa082000f05afaaa
:102f4c003de7092000f056fa044a536901335361f6
:102f5c0035e7024b00225a6131e700bfe00900203f
:082f6c00200a00201f85eb5133
:020000040000fa
:102f740038b50c461546092800f2bc80dfe800f09d
:102f8400050a11181f264f78a1ae01f08dfc01f03f
:102f940063fc38bd01f038fa0021084601f02cfc2e
:102fa400f7e701f0e1f90021084601f025fcf0e71c
:102fb40001f0bef90021084601f01efce9e701f02a
:102fc4003dfa0021084601f017fce2e70022012146
:102fd40004eb052000f044fe05281cd8dfe800f0cf
:102fe40003080b0f13172946204601f005fcd0e710
:102ff40001f0f8fbcde7022001f026fcc9e703202d
:1030040001f022fcc5e7032001f01efcc1e701200a
:1030140001f01afcbde7052001f016fcb9e7002217
:10302400012104eb052000f057fe05281cd8dfe839
:1030340000f003080b0f13172946204601f0dcfbb0
:10304400a7e701f0cffba4e7022001f0fdfba0e716
:10305400032001f0f9fb9ce7032001f0f5fb98e75e
:10306400012001f0f1fb94e7052001f0edfb90e76e
:103074000022012104eb052000f070fd05281cd876
:10308400dfe800f003080b0f13172946204601f070
:10309400b3fb7ee701f0a6fb7be7022001f0d4fb43
:1030a40077e7032001f0d0fb73e7032001f0ccfbaa
:1030b4006fe7012001f0c8fb6be7052001f0c4fbba
:1030c40067e7084601f04afa18b9032001f0bcfb8f
:1030d4005fe70021084601f08ffb5ae701f028fa68
:1030e40018b9032001f0b0fb53e70021084601f0b2
:0c30f40083fb4ee7042001f0a7fb4ae735
:020000040000fa
:103100002de9f04784b04ff084431c6d14f0007f2c
:103110001cbf4ff000721a6514f0010f62d04ff01f
:10312000844301221a655a6d22f001025a65d3f8d0
:10313000a43013f07f0f55d04ff08443d3f8a45040
:10314000c5f305252b014a4ad268d718d15811f08a
:10315000804fd15805eb8500464e56f8200014bf2d
:1031600021f06041c1f38a410160d2587b6813f4b9
:10317000001f02d112f0005f71d105eb85033d4abb
:1031800002eb83031b6900221a707e683a4b0fcb57
:103190000df1100c0ce90f00c6f30346664416f857
:1031a00010ac344e4fea850808eb050906eb890997
:1031b000524607f10801d9f8040001f0cbfad9f81a
:1031c000083083f800a0d9f80c300bb17a681a8067
:1031d0004ff08443c3f8a850284b1b6813b1274a0b
:1031e0005068984714f4007f20d04ff084434ff488
:1031f00000721a655a6d22f400725a65d3f8d8200d
:10320000d3f8e03013f0010f0ad012f0010f07d00d
:103210004ff08442d2f8e03023f00103c2f8e030ee
:10322000164b9b6913b1154ad069984714f4006f87
:1032300012d04ff084424ff400631365d2f8c430cb
:10324000c3f30423d2f8c420c2f30442934203d24e
:103250000133dbb29a42fbd104b0bde8f08705eb45
:103260008503044a02eb83031b6901221a708ce771
:10327000900a0020b80a00207c480000000b0020c3
:020000040000fa
:10328000200b00201c00000000000000580a002055
:103290000500000000000000840b00200500000075
:1032a0000100000003000000000000008c0b002063
:1032b0000500000001000000010000000000000007
:1032c000940b002005000000010000000200000037
:1032d00000000000600a0020300000000000000034
:1032e000e00a002020000000000000001000002084
:1032f00080090000000000005d0a002003000000bb
:10330000000000007c0b0020030000000000000013
:103310009c0b00200400000001000000000000449d
:10332000000b00202000000000000000900a002098
:1033300050000000000000007f0b00200100000092
:1033400000000000500b00200c00000000000000f6
:103350003c0b00201400000000000000200a0020a8
:1033600038000000000000005c0b00200c00000092
:1033700000000000800b00200100000000000000a1
:10338000a00b00200c000000010000000400000061
:103390000400000004000000680b0020040000008e
:1033a00000000000810b0020010000000000000070
:1033b0006c0b00200400000000000000e009002069
:1033c0004000000000000000700b0020080000001a
:1033d00000000000900900205000000000000000e4
:1033e000780b002004000000000000000000000036
:1033f0000000000066666666666666666666666605
:020000040000fa
:10340000554b1870092800f2a580dfe800f0050b85
:103410001d2f3e5062718395504b4ff40042c3f80c
:10342000942070474d4b4ff40042c3f8982001227e
:10343000c3f898200222c3f898204ff480729a6152
:103440000422c3f894207047444b4ff40042c3f861
:1034500098200122c3f898200222c3f898204ff444
:1034600080729a610422c3f8982070473b4b4ff456
:103470000042c3f898200122c3f898200222c3f822
:1034800098204ff480725a617047344b4ff40042d9
:10349000c3f898200122c3f898200222c3f8942090
:1034a0004ff480729a610422c3f8942070472b4b2a
:1034b0004ff40042c3f898200122c3f8982002225a
:1034c000c3f894204ff480729a610422c3f89820c4
:1034d0007047224b4ff40042c3f898200122c3f8f2
:1034e00098200222c3f894204ff480725a617047ea
:1034f0001a4b4ff40042c3f898200122c3f89420dd
:103500000222c3f898204ff480729a610422c3f813
:1035100094207047114b4ff40042c3f898200122c9
:10352000c3f894200222c3f898204ff480729a6165
:103530000422c3f898207047084b4ff40042c3f8a8
:1035400098200122c3f894200222c3f898204ff457
:1035500080725a61704700bfe0090020008000417e
:020000040000fa
:10356000474b00221a7403f50063464a5a621a4612
:10357000536813f0080ffbd1434b444a9a621a4632
:10358000536813f0100ffbd13f4b414a1a631a46a0
:10359000536813f0400ffbd13b4b4222c3f8842009
:1035a0001a4600bfd2f8843013f0400ffad0394bde
:1035b00000229a6377225a631a46d36b13f0040fe2
:1035c000fbd1344b022283f830201a46d36b13f020
:1035d000020ffbd12f4a136c03f00303032bfad124
:1035e0002d4b01225a711a46d37813f0010ffbd0ec
:1035f000254b2a4a1a621a46536813f0040ffbd16e
:10360000214b4122c3f8e4201a4600bfd2f8e4302f
:1036100013f0400ffad01c4b4422c3f8ec201a469a
:10362000d2f8ec3013f0400ffad0174b4122c3f818
:10363000f4201a46d2f8f43013f0400ffad0124baf
:103640004122c3f820211a46d2f8203113f0400f4e
:10365000fad00d4b4122c3f824211a46d2f8243166
:1036600013f0400ffad00c4b6ff07f421a6140f21a
:10367000ff725a610a4a9a614ff4c0721a62704727
:103680000014004006010100001c0040060130004b
:103690000601020000100040000800400701010080
:0436a0005688010047
:020000040000fa
:1036a4002de9f84f8b46924698469df828709df870
:1036b4002c609df830503f4bd3f800903e4c207066
:1036c400012363703d4800f0b9f9a770e6702571d5
:1036d4000223e372002323736373a373a371e3715f
:1036e4002372637284f82fb384f850a6b8f1000fe4
:1036f40003d009f00f03012b13d02f4b002283f8c2
:1037040071292d4a0d9bc2f874394ff00053c2f849
:1037140078391b78112b2cd0274b002283f87c2975
:103724003fe0c9f30219b9f1010fe6d184f87189b8
:1037340001f0b2f80028fbd1214b1968d1f8fc3311
:10374400b3f15a3f09d01f4b03eb8808002200bf96
:1037540043f8042b4345fbd1d3e70b46194a01eb4d
:10376400880800bf53f8041b42f8041b4345f9d1f1
:10377400c7e74ff000535b78822bcdd14ff0005355
:103784009b78132bc8d14ff00053db78842bc3d123
:10379400094b012283f87c294ff00053df711e721c
:1037a4005d72054b002283f87d2900f089fdbde898
:1037b400f88f00bf0440800010000020600a002041
:0837c4009c0b002061060020af
:020000040000fa
:1037cc0070b4394b394a1a60012083f84200072241
:1037dc0083f8432083f8440083f8450083f84600bf
:1037ec0083f84700402283f8482083f849200221bf
:1037fc0083f84a1083f84b10412483f84c4083f82b
:10380c004d2083f84e1083f84f1083f8501083f836
:10381c00511083f8521083f85310062483f8544047
:10382c00442483f8554083f8560083f8570083f8f6
:10383c005b10112583f8315083f8325083f83350e4
:10384c00052683f83660882683f83b60184ec3f84b
:10385c00806083f8c04083f8c14083f8c24083f88d
:10386c00c31083f8c41083f8c62083f8c70083f80c
:10387c00c80083f8c90083f8ca2083f8cb2083f8ea
:10388c00cc2083f8cd2083f8ce2083f8cf2083f88a
:10389c00d62083f8d74083f8df20102283f8b3209a
:1038ac0083f8b45070bc704700800041f0132000c6
:0438bc0007f0c080d1
:020000040000fa
:1038c00008b5324b93f8303013f0200f19d113f0b4
:1038d000100f20d113f0080f28d113f0040f2fd1af
:1038e00013f0020f37d113f0010f3ed0284b42f2f4
:1038f0007112da600122002140f6c41000f0b2f922
:1039000008e0234b42f27112da60012200210846de
:1039100000f026f908bd1e4b42f27112da60012256
:1039200000214ff47a7000f01bf9f3e7184b42f2d4
:103930007112da6001220021084600f0cff9e9e7b0
:10394000134b42f27112da60012200214ff416701b
:1039500000f0c4f9dee70e4b42f27112da60012288
:103960000021084600f07ef9d4e70020fff748fd6b
:10397000074ad368013bd360002bcbd10522142129
:10398000012000f017fe00f041fdc3e7200a0020ef
:04399000e00900202a
:020000040000fa
:10399400f8b59df818c0bcf1010f01d90020f8bd9d
:1039a4004ff08443d3f8c43013f4001f3fd14ff0d9
:1039b4008443d3f8c440c4f3044426011d4b9f69d7
:1039c400bd19b0f5006f26bf20f0604040f0804084
:1039d4008004b8510b46082928bf082318046860de
:1039e4001cf0fd0f1ed111461a4605f1080000f027
:1039f400affe114a13780133dbb213706a6842eaee
:103a0400036343f400036b60012000fa04f44ff0f5
:103a14008443c3f8e040c3f8d0405a6d42f40072c6
:103a24005a65bce7bb5943f00053bb51e1e70020a2
:0c3a3400b5e700bf900a00207f0b0020c7
:020000040000fa
:103a400038b504463022002100f0ecfe4ff08443ec
:103a500001229a611a46936913f0010ffbd04ff0cf
:103a600084439a6942f002029a611749cc60a2b27b
:103a700042f0004242f48032c3f8a02004f1100268
:103a80008a6192b242f08072c3f8c02004f1200231
:103a9000ca6192b242f48032c3f8f02004f12802e5
:103aa0000a620a4d03cda062e16292b242f4003292
:103ab000c3f884209a6922f001029a611a46936938
:103ac00013f0010ffbd138bd900a0020e048000040
:020000040000fa
:103ad00008b51b4b98471b4b9847eff3108172b604
:103ae000194ad2f8883043f47003c2f88830bff323
:103af0004f8fbff36f8f01b962b6144c2023636000
:103b000000f0b8fc124b23f07f030f4a9360114b77
:103b10009847a36823f00103a3602346da6812f0f4
:103b2000010ffbd1094b5a6842f004025a6001228e
:103b30009a60094b9847094b9847fef7a9fdfee7a5
:103b4000f3480000f348000000ed00e00060004191
:103b5000002000000d3e0000f3480000f348000084
:020000040000fa
:103b6000f8b50f4619b11d4b9b68022b2ed11c4b8b
:103b70005b786bb3194b1c7e64bb40f2aa5398422e
:103b80002adc1646054600f0b7fa154b9b6a5a1b0d
:103b900048bfea1a012a17dd104b03221a760020cb
:103ba000d8611d6283f8247083f8256083f82600ad
:103bb000d862986283f8340050229a6383f83c00fc
:103bc0004ff4fa621a6301242046f8bd0324fbe790
:103bd0000424f9e70524f7e70224f5e7e0090020cb
:043be000200a002097
:020000040000fa
:103be40038b54ff0844301229a611a46936913f061
:103bf400010ffbd04ff084439a6942f002029a61ac
:103c0400144ada612b22c3f8802001221a629a69cd
:103c140022f001029a611a46936913f0010ffbd155
:103c24004ff0844300249c650122da654ff0007252
:103c34005a65094d2c606c60ac6028222146074807
:103c440000f0eefdec602c616c61ac61ec612c6207
:103c54006c6238bd00050200900a0020b80a0020fa
:020000040000fa
:103c6400f8b50f4619b11a4b9b68022b29d1194b91
:103c74005b7843b3164b1c7e3cbb1646054600f0ee
:103c8400e3fa144b1b6a5a1b48bfea1a012a16ddd1
:103c94000f4b01241c760020d8611d6283f8247028
:103ca40083f8256083f82600d862986283f834008c
:103cb40050229a6383f83c004ff4fa621a63204658
:103cc400f8bd0324fbe70424f9e70524f7e700bf64
:083cd400e0090020200a002095
:020000040000fa
:103cdc00f8b50f4619b11a4b9b68022b2ad1194b18
:103cec005b784bb3164b1c7e44bb1646054600f066
:103cfc00e1f8144b5b6a5a1b48bfea1a012a17dd1c
:103d0c000f4b02221a760020d8611d6283f82470b2
:103d1c0083f8256083f82600d862986283f8340013
:103d2c0050229a6383f83c004ff496621a63012484
:103d3c002046f8bd0324fbe70424f9e70524f7e744
:083d4c00e0090020200a00201c
:020000040000fa
:103d5400154b01221a801a46136b13f0010ffbd185
:103d64004ff080131b689a0c02f07002d90a01f418
:103d7400e061c3f302430a431a430b4ba3f8482000
:103d84004ff480721a803f22da7203221a724ff4bf
:103d9400c0529a801822da80072283f82e201a460d
:0c3da400136b002bfcd170470020004383
:020000040000fa
:103db000154b01221a801a46136b13f0010ffbd129
:103dc0004ff080131b681a0902f07002d90001f449
:103dd000e061c3f382030a431a430b4ba3f8482064
:103de0004ff480721a803f22da7203221a724ff463
:103df000c0529a800022da80072283f82e201a46c9
:0c3e0000136b002bfcd17047001c00432a
:020000040000fa
:103e0c000e4a38b5002313600d4a0e4c13600e4a4f
:103e1c000e4d13600e4a13600e4a13600e4a536225
:103e2c0013610123936000f05ffd00f05dfdac4277
:103e3c0000d338bd54f8043b9847f8e7780b0020c2
:103e4c009c0900206c2200009809002070220000c0
:0c3e5c009009002094090020a00900201b
:020000040000fa
:103e6800124b93f87d3903b97047104b002283f841
:103e78007d29d3f8782901211170d3f878290221f6
:103e88005170d3f8782903219170d3f87839042236
:103e9800da70bff34f8f0649ca6802f4e062054b37
:103ea8001343cb60bff34f8f00bffde71000002026
:083eb80000ed00e00400fa0532
:020000040000fa
:103ec00008b54ff4c051062000f0befb00f074fcb2
:103ed00000f0ccfb0028fbd000f0f6fc32380b4a97
:103ee000906000eb80004000094981fb0031c3175e
:103ef000c3ebe1035362d36210f1190fd8bf002363
:103f0000044ad3701b12137108bd00bf200a0020a1
:083f10001f85eb518c0b002012
:020000040000fa
:103f180010b4c0b1114b4ff400129a61104b01223a
:103f280083f831200f4b0e4a987892f8314064f3a9
:103f38008200987082f83210da7861f30002da7041
:103f48005df8044b7047054a4ff400115161044a6b
:103f5800002182f831100146e4e700bf00800041eb
:083f6800200a0020580a002085
:020000040000fa
:103f7000072828bf0720c0f10700c0b2104b5860c7
:103f800010f0010f0f4b4ff4805214bfc3f898206c
:103f9000c3f8942010f0020f0a4b4ff4005214bfe4
:103fa000c3f89820c3f8942010f0040f054b4ff489
:103fb000804214bfc3f89820c3f89420704700bf14
:083fc000e0090020008000412f
:020000040000fa
:103fc800114b01221a601a46936813f0010ffbd1b6
:103fd8000d4b4ff480621a600221596158690b4aef
:103fe80002435a61d96342f210725a6400229a64f9
:103ff800da641a655a659a6596221a641a469368ad
:10400800002bfcd1704700bf00600141000f404009
:020000040000fa
:10401800f0b59df81440ecb94ff0844cdcf8a4508e
:10402800c5f305250c4cae007719bf0004eb070e4d
:10403800e051cef80420cef80810cef80c30069bdc
:10404800cef81030dcf8543043f00103ccf854308b
:0c405800012000e00020f0bdb80a0020ac
:020000040000fa
:10406400b0f57a7f11dcb0f5fa7f14dcb0f5c87fc7
:1040740013dcb0f5967f12dcc82812dc642812dc4d
:104084003228d4bf0020012000e007208842b8bfb6
:104094000846c0b270470620f8e70520f6e704207a
:0a40a400f4e70320f2e70220f0e742
:020000040000fa
:0240ae00704759
:020000040000fa
:1040b00010f0010f04d00f4a137843f0020313707d
:1040c00010f0020f04d00b4a137843f0040313706e
:1040d00010f0100f04d0074a137843f00803137050
:1040e00010f0800f04d0034a137843f001031370db
:0840f000704700bf800b0020a7
:020000040000fa
:1040f80008b54ff4c051072000f0a2fa00f058fbb1
:1041080000f0b0fa0028fbd000f0dafb3238084a99
:10411800d06000ebd0735b109362d36210f1020f92
:10412800d8bf0023034a53701b12937008bd00bf09
:08413800200a0020940b002076
:020000040000fa
:1041400008b50f4bdb68802b07dd0e4b93f833303f
:1041500003b108bd00f074f9fbe70a4a92f8332076
:1041600052b10133064ad360802bf2dd052211469d
:10417000022000f01ffaece7014b0022da60e8e7ca
:08418000e0090020200a0020e4
:020000040000fa
:104188000f4b01221a801a46136913f0010ffbd155
:104198000b4b4ff401421a8000221a621a46136927
:1041a80013f0200ffbd1064b00225a621a461369fe
:1041b80013f0400ffbd1024b93225a81704700bf86
:0441c800002400408f
:020000040000fa
:1041cc0010b5054c227832b9044b13b10448aff347
:1041dc0000800123237010bd200b00200000000084
:1041ec000000000008b5034b1bb103490348aff3b3
:1041fc00008008bd00000000240b0020000000001f
:020000040000fa
:10420c000d4ad36823f4e0631b041b0c43f0bf631b
:10421c0043f40033d360bff35f8f62b6074be022e9
:10422c0083f80b234ff40061196083f84e234ff48d
:10423c0080429a60704700bf00ed00e000e100e0b2
:020000040000fa
:10424c0008b54ff4c051052000f0f8f900f0aefab3
:10425c0000f006fa0028fbd000f030fb3238054b9a
:10426c0058601862d86220eae070034b5870001254
:0c427c00987008bd200a00208c0b002068
:020000040000fa
:104288004ff08443586c20f4605020f0180040042c
:10429800400c9b6913f0010f0ed04ff084439a69cc
:1042a80042f002029a619a6922f001029a611a4662
:0a42b800936913f0010ffbd170476a
:020000040000fa
:0242c200fee715
:020000040000fa
:1042c40000b583b000221146084800f033fa0848cc
:1042d400084b01930023009300f10e03021d00f12b
:1042e4000c01fff797fe03b05df804fbfd420000ec
:0842f400e00a00205e0a002030
:020000040000fa
:1042fc0008b5fff7c3ff10f0070001d0072809d15c
:10430c00064b1b68b3f5a07f2cbf054b054b012258
:10431c001a7008bdfff7d0fffbe700bfe00a0020d2
:08432c007e0b00207c0b002039
:020000040000fa
:104334000a4b1b7e83b9094b9b68032b0cd0084b9b
:104344001b781bb1074b1b68032b05d0044b0122c0
:104354001a70044b03221a60704700bfe009002062
:08436400810b0020680b002012
:020000040000fa
:10436c000a4b1b7e83b9094b9b68022b0cd0084b64
:10437c001b781bb1074b1b68022b05d0044b012289
:10438c001a70044b02221a60704700bfe00900202b
:08439c00810b0020680b0020da
:020000040000fa
:1043a400014658b1084b4ff400729a61074b1970db
:1043b400074b9a7861f341029a707047024b4ff4ad
:1043c40000725a61f2e700bf00800041200a002019
:0443d400580a002063
:020000040000fa
:1043d80038b50a4d0024ac60094b5c702046fff7e5
:1043e8000bf82046fff7c0fd2046fff7d7ff2c74d7
:1043f8002c76ec6185f8264038bd00bfe009002026
:04440800580a00202e
:020000040000fa
:10440c00094b1b7e73b9084b9b685bb1074b1b7840
:10441c0013b1074b1b682bb1044b01221a70044bd0
:10442c0000221a60704700bfe0090020810b0020b9
:04443c00680b0020e9
:020000040000fa
:10444000094b1b7e7bb9084b9b68012b0bd0074b9c
:104450001b781bb1064b1b68012b04d00123034ab8
:104460001370034a13607047e0090020810b00209d
:04447000680b0020b5
:020000040000fa
:1044740070b50a480a4d4ff6ff76016811b94368d2
:1044840003b970bd83684268334000f10c0455f8e9
:1044940023302046984704eb8000eee7803200008a
:0444a40010480000bc
:020000040000fa
:1044a80008b5074800f014f8064800f011f8064867
:1044b80000f00ef8054800f00bf8fdf7ddfe08bd2a
:1044c800580a00208c0b0020940b0020840b00203d
:020000040000fa
:1044d80010b5044642780021007800f0f9f8a27877
:1044e8000121207800f0f4f8e2780221207800f029
:0e44f800eff822790321207800f0eaf810bdd9
:020000040000fa
:1045060008b500f0c0f9fff75ef9fff726f8fff7e8
:10451600cbfdfff756fdfff748fcfff718fcfff74a
:0c4526005efbfff72efefff76efe08bde7
:020000040000fa
:02453200fee7a2
:020000040000fa
:10453400094b9b68032b0dd1074b1b7c2bb9064bf6
:1045440000225a61012018747047034b00221a7428
:0c4554000120704700207047e0090020a3
:020000040000fa
:1045600008b528b1084b9b68022b07d0002008bd76
:1045700000210846fff7d0fc0120f8e7012108469a
:0c458000fff7cafc0120f2e7e009002070
:020000040000fa
:10458c0008b5074a908980b2064b58604cf2ff314f
:10459c0091811b6813b1034a9168984708bd00bf0d
:0845ac0000240040500b002028
:020000040000fa
:1045b400084b1b786bb900280bdd10b4054b0024a5
:1045c4005c609960da60186101221a705df8044b2e
:0845d400704770473c0b00200a
:020000040000fa
:1045dc0000b585b0064b0393012202920023019390
:1045ec00009204211520fff757f805b05df804fb85
:0445fc00752f000017
:020000040000fa
:10460000074a93889bb223f4f85323f01f03014316
:104610000b439380136b13f0040ffbd1704700bf63
:044620000020004333
:020000040000fa
:10462400074b93f82e3003f00103002b14bf012035
:10463400002003d0024b012283f82e20704700bfd4
:04464400002000430f
:020000040000fa
:10464800074a93889bb223f4f85323f01f030143ce
:104658000b439380136b13f0040ffbd1704700bf1b
:04466800001c0043ef
:020000040000fa
:10466c00074b93f82e3003f00103002b14bf0120ed
:10467c00002003d0024b012283f82e20704700bf8c
:04468c00001c0043cb
:020000040000fa
:1046900008b5064b4ff40002c3f89820044b0022e3
:1046a0001a725a60186000f027f808bd00800041b7
:0446b0005c0b00207f
:020000040000fa
:1046b40008b5074b1b7e012b06d0022b0cbf06202e
:1046c4000920fef79bfe08bd0320fef797fefae7dc
:0446d400e0090020d9
:020000040000fa
:1046d800064b93f82f33834206d9032904d8034b9a
:1046e80003eb80000844c273704700bf100000202d
:020000040000fa
:1046f800064b1b6b13f0800f05d120f07f40034b56
:10470800d866012070470020704700bf0060014153
:020000040000fa
:1047180010b50023934206d113f0030018bf0120ff
:0e47280000eb930010bdc45ccc540133f2e7eb
:020000040000fa
:02473600fee79c
:020000040000fa
:1047380010b428b1044b43f8320003ebc2035960ac
:0c4748005df8044b704700bf000b002020
:020000040000fa
:104754005ab110b40a44431e11f8014b03f8014f37
:0c4764009142f9d15df8044b704770479a
:020000040000fa
:10477000044a138843f002031380136b002bfcd10f
:08478000704700bf0020004358
:020000040000fa
:10478800044a137d43f002031375136b13f4006f8f
:08479800fbd170470020004333
:020000040000fa
:1047a000044a138843f002031380136b002bfcd1df
:0847b000704700bf001c00432c
:020000040000fa
:1047b800044a137d43f002031375136b13f4006f5f
:0847c800fbd17047001c004307
:020000040000fa
:1047d000044a138843f002031380136913f0020f95
:0847e000fbd1704700240040ea
:020000040000fa
:1047e800034b0122da7200221a735a739a737047c4
:0447f800100000208d
:020000040000fa
:1047fc00034b0222da721873597300229a737047b2
:04480c001000002078
:020000040000fa
:104810003948000019470000e9480000e948000055
:04482000e948000063
:020000040000fa
:1048240032b1c9b20244034603f8011b9342fbd1df
:04483400704700bf0a
:020000040000fa
:104838000a440023914201d10020704701f8013b4e
:02484800f8e78f
:020000040000fa
:02484a00fee787
:020000040000fa
:10484c00024b0322da729873704700bf10000020ed
:020000040000fa
:10485c00024b0322da7206229a7370471000002072
:020000040000fa
:10486c0010b1024b9861d961704700bf000b00205a
:020000040000fa
:10487c000001020304050607080c10141820304030
:020000040000fa
:10488c00024b40f204521a80704700bf00400041b6
:020000040000fa
:10489c00024bd86ac0f38000704700bf0040004153
:020000040000fa
:1048ac00024b012283f82620704700bfe00900204c
:020000040000fa
:0c48bc00014bb3f840007047002000439f
:020000040000fa
:0c48c800014bb3f840007047001c004397
:020000040000fa
:0c48d400014b186099607047500b0020e9
:020000040000fa
:0848e0005501550915011509e8
:020000040000fa
:0448e80000207047f5
:020000040000fa
:0248ec00fee7e5
:020000040000fa
:0248ee00fee7e3
:020000040000fa
:0248f000fee7e1
:020000040000fa
:0248f20070470d
:020000040000fa
:0248f40070470b
:020000040000fa
:0200000400807a
:044000003912003c35
:020000040000fa
:0200000400807a
:044004009100a82a55
:020000040000fa
:0200000400807a
:04400800ffffffffb8
:00000001FF
